:020000040800F2
:1000000000000220FD2900083D25000843250008C6
:10001000492500084F25000855250008000000006C
:100020000000000000000000000000005B25000848
:1000300069250008000000007725000885250008D4
:100040004D2A00084D2A00084D2A00084D2A0008B4
:100050004D2A00084D2A00084D2A00084D2A0008A4
:100060004D2A00084D2A00084D2A00084D2A000894
:100070004D2A00084D2A00084D2A00084D2A000884
:100080004D2A00084D2A00084D2A00084D2A000874
:100090004D2A00084D2A00084D2A00084D2A000864
:1000A0004D2A00084D2A00084D2A00084D2A000854
:1000B000912500084D2A00084D2A0008A5250008B2
:1000C0004D2A00084D2A00084D2A0008B9250008CD
:1000D0004D2A0008CD250008E12500084D2A00081A
:1000E0004D2A00084D2A00084D2A00084D2A000814
:1000F0004D2A00084D2A00084D2A00084D2A000804
:100100004D2A00084D2A00084D2A00084D2A0008F3
:100110004D2A00084D2A00084D2A00084D2A0008E3
:10012000F52500084D2A00084D2A00084D2A000830
:100130004D2A00084D2A00084D2A00084D2A0008C3
:100140004D2A00084D2A00084D2A00084D2A0008B3
:100150004D2A00084D2A00084D2A00084D2A0008A3
:100160004D2A00084D2A00084D2A00084D2A000893
:100170004D2A00084D2A00084D2A00080000000002
:080180004D2A00084D2A000879
:1001900010B5054C237833B9044B13B10448AFF3C1
:1001A00000800123237010BDE40100200000000046
:1001B000E4C2000808B5034B1BB103490348AFF381
:1001C000008008BD00000000E8010020E4C2000833
:1001D000034613F8012B002AFBD1181A0138704787
:1001E00001F0FF01102A2BDB10F0070F08D010F8E8
:1001F000013B013A8B422DD010F0070F42B3F6D1EC
:10020000F0B441EA012141EA014122F007047FF004
:1002100000070023F0E80256083C85EA010586EA5B
:10022000010685FA47F5A3FA87F586FA47F6A5FA97
:1002300087F68EB9EED1F0BC01F0FF0102F00702A3
:1002400032B110F8013B013A83EA010313B1F8D14E
:100250000020704701387047002D06BF354603382F
:10026000073815F0010F07D1013015F4807F02BF68
:10027000013015F4C03F0130F0BC0138704700BFB9
:1002800081F0004102E000BF83F0004330B54FEA47
:1002900041044FEA430594EA050F08BF90EA020FB4
:1002A0001FBF54EA000C55EA020C7FEA645C7FEA47
:1002B000655C00F0E2804FEA5454D4EB5555B8BF6A
:1002C0006D420CDD2C4480EA020281EA030382EADB
:1002D000000083EA010180EA020281EA0303362D6D
:1002E00088BF30BD11F0004F4FEA01314FF4801C40
:1002F0004CEA113102D0404261EB410113F0004F52
:100300004FEA03334CEA133302D0524263EB430308
:1003100094EA050F00F0A780A4F10104D5F1200EA6
:100320000DDB02FA0EFC22FA05F2801841F1000101
:1003300003FA0EF2801843FA05F359410EE0A5F1D5
:1003400020050EF1200E012A03FA0EFC28BF4CF006
:10035000020C43FA05F3C01851EBE37101F00045BC
:1003600007D54FF0000EDCF1000C7EEB00006EEBC9
:100370000101B1F5801F1BD3B1F5001F0CD3490853
:100380005FEA30004FEA3C0C04F101044FEA4452AA
:1003900012F5800F80F09A80BCF1004F08BF5FEA31
:1003A000500C50F1000041EB045141EA050130BD11
:1003B0005FEA4C0C404141EB0101013C28BFB1F523
:1003C000801FE9D291F0000F04BF01460020B1FA6E
:1003D00081F308BF2033A3F10B03B3F120020CDA41
:1003E0000C3208DD02F1140CC2F10C0201FA0CF01F
:1003F00021FA02F10CE002F11402D8BFC2F1200C84
:1004000001FA02F120FA0CFCDCBF41EA0C01904039
:10041000E41AA2BF01EB0451294330BD6FEA040482
:100420001F3C1CDA0C340EDC04F11404C4F120026D
:1004300020FA04F001FA02F340EA030021FA04F37F
:1004400045EA030130BDC4F10C04C4F1200220FAD6
:1004500002F001FA04F340EA0300294630BD21FA14
:1004600004F0294630BD94F0000F83F4801306BFDA
:1004700081F480110134013D4EE77FEA645C18BFCE
:100480007FEA655C29D094EA050F08BF90EA020F65
:1004900005D054EA000C04BF1946104630BD91EA5D
:1004A000030F1EBF0021002030BD5FEA545C05D160
:1004B0004000494128BF41F0004130BD14F580049F
:1004C0003CBF01F5801130BD01F0004545F0FE4113
:1004D00041F470014FF0000030BD7FEA645C1ABF48
:1004E000194610467FEA655C1CBF0B46024650EA7F
:1004F000013406BF52EA033591EA030F41F40021AB
:1005000030BD00BF90F0000F04BF0021704730B530
:100510004FF4806404F132044FF000054FF0000105
:1005200050E700BF90F0000F04BF0021704730B5C6
:100530004FF4806404F1320410F0004548BF40429B
:100540004FF000013EE700BF42004FEAE2014FEAF0
:1005500031014FEA02701FBF12F07F4393F07F4FCB
:1005600081F06051704732F07F4208BF704793F0CE
:100570007F4F04BF41F40021704730B54FF46074E1
:1005800001F0004521F000411CE700BF50EA0102E4
:1005900008BF704730B54FF000050AE050EA01028D
:1005A00008BF704730B511F0004502D5404261EBFD
:1005B00041014FF4806404F132045FEA915C3FF43E
:1005C000D8AE4FF003025FEADC0C18BF03325FEADB
:1005D000DC0C18BF033202EBDC02C2F1200300FA8C
:1005E00003FC20FA02F001FA03FE40EA0E0021FAB1
:1005F00002F11444BDE600BF70B54FF0FF0C4CF49F
:10060000E06C1CEA11541DBF1CEA135594EA0C0F50
:1006100095EA0C0F00F0DEF82C4481EA030621EA8B
:100620004C5123EA4C5350EA013518BF52EA0335C6
:1006300041F4801143F4801338D0A0FB02CE4FF078
:100640000005E1FB02E506F00042E0FB03E54FF0A8
:100650000006E1FB03569CF0000F18BF4EF0010EA0
:10066000A4F1FF04B6F5007F64F5407404D25FEA9C
:100670004E0E6D4146EB060642EAC62141EA55514F
:100680004FEAC52040EA5E504FEACE2EB4F1FD0C91
:1006900088BFBCF5E06F1ED8BEF1004F08BF5FEA0F
:1006A000500E50F1000041EB045170BD06F00046C1
:1006B00046EA010140EA020081EA0301B4EB5C046E
:1006C000C2BFD4EB0C0541EA045170BD41F4801166
:1006D0004FF0000E013C00F3AB8014F1360FDEBF8B
:1006E000002001F0004170BDC4F10004203C35DA67
:1006F0000C341BDC04F11404C4F1200500FA05F3EA
:1007000020FA04F001FA05F240EA020001F000428A
:1007100021F0004110EBD37021FA04F642EB060100
:100720005EEA430E08BF20EAD37070BDC4F10C042A
:10073000C4F1200500FA04F320FA05F001FA04F2EE
:1007400040EA020001F0004110EBD37041F10001DA
:100750005EEA430E08BF20EAD37070BDC4F12005E5
:1007600000FA05F24EEA020E20FA04F301FA05F24D
:1007700043EA020321FA04F001F0004121FA04F2F5
:1007800020EA020000EBD3705EEA430E08BF20EAC5
:10079000D37070BD94F0000F0FD101F000464000FF
:1007A00041EB010111F4801F08BF013CF7D041EA81
:1007B000060195F0000F18BF704703F00046520085
:1007C00043EB030313F4801F08BF013DF7D043EA56
:1007D0000603704794EA0C0F0CEA135518BF95EA0C
:1007E0000C0F0CD050EA410618BF52EA4306D1D193
:1007F00081EA030101F000414FF0000070BD50EAB2
:10080000410606BF1046194652EA430619D094EA3B
:100810000C0F02D150EA013613D195EA0C0F05D125
:1008200052EA03361CBF104619460AD181EA030179
:1008300001F0004141F0FE4141F470014FF0000031
:1008400070BD41F0FE4141F4780170BD70B54FF0CC
:10085000FF0C4CF4E06C1CEA11541DBF1CEA13554C
:1008600094EA0C0F95EA0C0F00F0A7F8A4EB05042E
:1008700081EA030E52EA03354FEA013100F0888025
:100880004FEA03334FF0805545EA131343EA1263EE
:100890004FEA022245EA111545EA10654FEA0026A3
:1008A0000EF000419D4208BF964244F1FD0404F55C
:1008B000407402D25B084FEA3202B61A65EB0305B8
:1008C0005B084FEA32024FF480104FF4002CB6EB75
:1008D000020E75EB030E22BFB61A754640EA0C00F5
:1008E0005B084FEA3202B6EB020E75EB030E22BF35
:1008F000B61A754640EA5C005B084FEA3202B6EB76
:10090000020E75EB030E22BFB61A754640EA9C0034
:100910005B084FEA3202B6EB020E75EB030E22BF04
:10092000B61A754640EADC0055EA060E18D04FEAC2
:10093000051545EA16754FEA06164FEAC30343EA62
:1009400052734FEAC2025FEA1C1CC0D111F4801F2F
:100950000BD141EA00014FF000004FF0004CB6E728
:1009600011F4801F04BF01430020B4F1FD0C88BFC7
:10097000BCF5E06F3FF6AFAEB5EB030C04BFB6EBD2
:10098000020C5FEA500C50F1000041EB045170BDC5
:100990000EF0004E4EEA113114EB5C04C2BFD4EBF2
:1009A0000C0541EA045170BD41F480114FF0000E76
:1009B000013C90E645EA060E8DE60CEA135594EAF2
:1009C0000C0F08BF95EA0C0F3FF43BAF94EA0C0FF5
:1009D0000AD150EA01347FF434AF95EA0C0F7FF46A
:1009E00025AF104619462CE795EA0C0F06D152EABE
:1009F00003353FF4FDAE1046194622E750EA4106A2
:100A000018BF52EA43067FF4C5AE50EA41047FF4B2
:100A10000DAF52EA43057FF4EBAE12E74FF0FF3C17
:100A200006E000BF4FF0010C02E000BF4FF0010CE8
:100A30004DF804CD4FEA410C7FEA6C5C4FEA430C61
:100A400018BF7FEA6C5C1BD001B050EA410C0CBFB0
:100A500052EA430C91EA030F02BF90EA020F002012
:100A6000704710F1000F91EA030F58BF994208BF79
:100A700090422CBFD8176FEAE37040F00100704736
:100A80004FEA410C7FEA6C5C02D150EA013C07D18D
:100A90004FEA430C7FEA6C5CD6D152EA033CD3D0D8
:100AA0005DF8040B704700BF8446104662468C46D2
:100AB0001946634600E000BF01B5FFF7B7FF002805
:100AC00048BF10F1000F01BD4DF808EDFFF7F4FF2E
:100AD0000CBF012000205DF808FB00BF4DF808EDB9
:100AE000FFF7EAFF34BF012000205DF808FB00BFDC
:100AF0004DF808EDFFF7E0FF94BF012000205DF8FE
:100B000008FB00BF4DF808EDFFF7CEFF94BF0120B2
:100B100000205DF808FB00BF4DF808EDFFF7C4FFAB
:100B200034BF012000205DF808FB00BF4FEA410CF4
:100B30007FEA6C5C02D150EA013C0AD14FEA430CD7
:100B40007FEA6C5C02D152EA033C02D14FF0000014
:100B500070474FF0010070474FEA410212F5001252
:100B600015D211D56FF47873B3EB625212D94FEAF4
:100B7000C12343F0004343EA505311F0004F23FADE
:100B800002F018BF404270474FF00000704750EA33
:100B9000013005D111F0004008BF6FF000407047F0
:100BA0004FF00000704700BF4FEA4102B2F1E0434E
:100BB00024BFB3F5001CDCF1FE5C0DD901F0004C44
:100BC0004FEAC0024CEA5070B2F1004F40EB830094
:100BD00008BF20F00100704711F0804F21D113F1C0
:100BE0003872BCBF01F00040704741F480114FEAF9
:100BF0005252C2F11802C2F1200C10FA0CF320FA82
:100C000002F018BF40F001004FEAC1234FEAD3239E
:100C100003FA0CFC40EA0C0023FA02F34FEA430308
:100C2000CCE77FEA625307D150EA01331EBF4FF091
:100C3000FE4040F44000704701F0004040F0FE40AC
:100C400040F40000704700BF53B94AB9002908BFFB
:100C500000281CBF4FF0FF314FF0FF3000F06EB99D
:100C6000ADF1080C6DE904CE00F006F8DDF804E003
:100C7000DDE9022304B070472DE9F047089D0446E2
:100C80008C46002B40F083808A42174647D9B2FA3F
:100C900082F242B1C2F1200024FA00F09140974064
:100CA00040EA010C94404FEA1748230CBCFBF8F6CD
:100CB0001FFA87FE08FB16C143EA014306FB0EF14B
:100CC000994209D9FB1806F1FF3080F01981994249
:100CD00040F21681023E3B445B1AA4B2B3FBF8F02B
:100CE00008FB103344EA034400FB0EFEA64509D975
:100CF0003C1900F1FF3380F00581A64540F20281E6
:100D000002383C4440EA0640A4EB0E0400261DB124
:100D1000D4400023C5E900433146BDE8F08702B95D
:100D2000FFDEB2FA82F2002A50D1CB1B4FEA174EF7
:100D30001FFA87F80126B3FBFEFC210C0EFB1C33C7
:100D400041EA034108FB0CF38B4207D979180CF1F7
:100D5000FF3002D28B4200F2E9808446C91AA3B266
:100D6000B1FBFEF00EFB101143EA014408FB00F852
:100D7000A04507D93C1900F1FF3302D2A04500F28B
:100D8000D9801846A4EB080440EA0C40BFE78B4228
:100D900009D9002D00F0B1800026C5E900013046D8
:100DA0003146BDE8F087B3FA83F6002E4AD18B4274
:100DB00002D3824200F2B880841A61EB0301012061
:100DC0008C46002DA8D0C5E9004CA5E7C2F1200350
:100DD00020FA03F6974001FA02F04FEA174ED94085
:100DE0003043030CB1FBFEF61FFA87F80EFB161119
:100DF00043EA014306FB08F1994204FA02F409D9D7
:100E0000FB1806F1FF3C80F08D80994240F28A8009
:100E1000023E3B445B1A81B2B3FBFEF00EFB103383
:100E200041EA034100FB08F38B4207D9791800F12E
:100E3000FF3C73D28B4271D902383944CB1A40EA55
:100E4000064678E7C6F1200C03FA06F422FA0CF302
:100E50001C4320FA0CF701FA06F34FEA144E21FA6C
:100E60000CF11F433B0CB1FBFEF91FFA84F80EFB9B
:100E7000191143EA014109FB08FA8A4502FA06F210
:100E800000FA06F308D9611809F1FF3048D28A4503
:100E900046D9A9F102092144A1EB0A01BFB2B1FB75
:100EA000FEF00EFB101147EA014700FB08F8B845B9
:100EB00007D9E71900F1FF312ED2B8452CD90238F5
:100EC000274440EA0940A7EB0807A0FB02894F45E9
:100ED000C64649461AD317D05DB1B3EB0E0267EB95
:100EE000010707FA0CFCF2404CEA0202F740C5E9A0
:100EF000002700263146BDE8F0872E4628460BE73E
:100F00000646E9E61846FDE64345E5D2B8EB020E93
:100F100069EB04010138DFE70846D2E760468DE758
:100F20008146B9E7664675E730464AE7ACF1020C00
:100F3000394413E702383C4424E700BF704700BF40
:100F400080B500AF024801F0F5FD00BF80BD00BFD5
:100F5000D802002080B500AF04220349034801F005
:100F60002DFE00BF80BD00BF20030020D80200205E
:100F700080B400AF034B1B681846BD465DF8047B88
:100F8000704700BF2003002080B400AF034B5B68B4
:100F90001846BD465DF8047B704700BF2003002063
:100FA00080B500AF1A4B9B6807EE903AF8EE677A6F
:100FB00017EE900AFFF7C8FA11A3D3E90023FFF751
:100FC0001BFB02460B46104619464FF00002114B20
:100FD000FFF712FB02460B46104619460AA3D3E957
:100FE0000023FFF733FC02460B4610461946FFF775
:100FF000DBFD034607EE903AB0EE670A80BD00BF06
:101000006666666666660A40CDCCCCCCAC08B94054
:10101000200300200000284080B500AF244BDB688F
:1010200007EE903AF8EE677A17EE900AFFF78CFA1F
:101030001BA3D3E90023FFF7DFFA02460B46104655
:10104000194619A3D3E90023FFF700FC02460B461B
:10105000104619464FF00002164BFFF715F90246ED
:101060000B46104619464FF00002134BFFF7C4FA27
:1010700002460B46104619464FF000020D4BFFF793
:10108000E5FB02460B4610461946FFF78DFD034669
:1010900007EE903AB0EE670A80BD00BFAFF3008064
:1010A000E17A14AE47E1094048E17A14EEB2A44077
:1010B0002003002000000440000014402DE9F0410E
:1010C0009EB004AFFFF746FFFFF752FF0646FFF75B
:1010D0005BFF8046FFF764FF10EE103A1846FFF7FB
:1010E00033FA04460D46FFF797FF10EE103A184604
:1010F000FFF72AFA02460B46381DCDE90223CDE957
:10110000004543463246074908F0C0FE03469AB2FE
:10111000391D0A23044807F0A2FA00BF6837BD460C
:10112000BDE8F08100C300087803002080B500AF5F
:10113000044805F0DDFA01220821034802F0CAFF45
:1011400000BF80BD1C040020000C024080B582B0AE
:1011500000AF002208212A4802F0BCFF012208212A
:10116000274802F0B7FF012301222649264805F04F
:1011700084FC8023FB7100233B6038E0FB790F2B5C
:1011800017D9204B1A78FB791340DBB2002B06D01D
:101190003B68C3F103031D4A0021D15421E03B68A1
:1011A000C3F10303194AD25C0132D1B2174AD154B8
:1011B00017E0144B1A78FB791340DBB2002B05D0F3
:1011C000124A3B68134400221A700AE00F4A3B6837
:1011D00013441B780133D9B20C4A3B6813440A46C6
:1011E0001A70FB795B08FB713B6801333B603B681D
:1011F000072BC3DD00BF00BF0837BD4680BD00BF61
:10120000000C0240080200201C0400200002002004
:1012100080B582B000AF00237B6016E00F4A7B6888
:1012200013441B78002B0DD07B6801331A460C4900
:101230000C4808F02BFE03469AB2642309490A4879
:1012400007F00DFA7B6801337B607B68072BE5DDD7
:1012500000BF00BF0837BD4680BD00BF00020020B0
:101260003CC30008000500207803002080B500AFD3
:101270000A2301220649074807F0F1F900BF064B8F
:101280001B78002BFBD0044B00221A7000BF80BDDE
:1012900000000020BC0400200A02002080B500AF3E
:1012A000454B1B78032B00F2828001A252F823F0F9
:1012B000C1120008D11200081913000861130008B8
:1012C0003E4B1B78212B74D13B4B01221A7070E0EE
:1012D0003A4B1B783A2B0FD1394B1B78184601F04B
:1012E00069FB03461A46374B9A70354B00221A7039
:1012F000314B02221A705DE0314B1B781A46920086
:1013000013445B00DAB22D4B1B781344DBB2303B45
:10131000DAB22B4B1A704DE0284B1B783A2B0FD1C9
:10132000274B1B78184601F045FB03461A46254B10
:101330005A70234B00221A701F4B03221A7039E097
:101340001F4B1B781A46920013445B00DAB21B4B0A
:101350001B781344DBB2303BDAB2194B1A7029E028
:10136000164B1B78232B12D1154B1B78184601F016
:1013700021FB03461A46134B1A70114B00221A70B8
:10138000114B01221A700C4B00221A7012E00C4B08
:101390001B781A46920013445B00DAB2074B1B78A5
:1013A0001344DBB2303BDAB2054B1A7002E000BFE7
:1013B00000E000BF00BF80BD090200203102002014
:1013C0000B020020640500200A02002080B582B0D4
:1013D00002AFFFF74BFF052001F0ECFA03461A4677
:1013E000114BDA70032001F0E5FA03461A460E4B62
:1013F0001A71082001F0DEFA03461A460A4B5A71A8
:10140000172001F0D7FA03461A46074B9A710723B3
:101410000193054B009301230022D021034802F0E1
:10142000D1FF00BFBD4680BD640500203C02002006
:1014300080B500AF1B4B1B781B4AA2FB0323DB08C4
:10144000DBB20121184600F05DF9164B1A78164BF5
:10145000A3FB0213D9080B469B000B445B00D31A75
:10146000DBB20221184600F04DF90E4B5B780E4AB4
:10147000A2FB0323DB08DBB20321184600F042F98C
:10148000084B5A78084BA3FB0213D9080B469B0064
:101490000B445B00D31ADBB20421184600F032F98A
:1014A00000BF80BD7C050020CDCCCCCC80B582B007
:1014B00002AF07230193054B009301230022D021A3
:1014C000034803F031F800BFBD4680BD740500201D
:1014D0003C02002080B582B000AF78607B681B685A
:1014E000224A93423ED1224B1B78184601F048FA1B
:1014F00003461A461F4B9A701D4B5B78184601F045
:101500003FFA03461A461B4B5A70194B9B781846F4
:1015100001F036FA03461A46164B1A70144BDB7864
:10152000184601F02DFA03461A46124B1A71104B59
:101530001B79184601F024FA03461A460D4BDA705F
:101540000B4B5B79184601F01BFA03461A46094B10
:101550005A71074B9B79184601F012FA03461A4656
:10156000044B9A7100BF0837BD4680BD005400404F
:10157000740500207C05002080B500AF00224FF4E8
:1015800080610D4802F0A6FD00224FF400610B4877
:1015900002F0A0FD00220421074802F09BFD00227A
:1015A0004FF40061044802F095FD012240210448F7
:1015B00002F090FD00BF80BD000402400014024014
:1015C0000018024080B500AF00224021474802F0D9
:1015D00081FD474B1B681A46464BD1180123012257
:1015E000454805F00EF901224021404802F072FD05
:1015F0003F4B1B68032B6BD801A252F823F000BFAE
:10160000111600084116000871160008A1160008FE
:1016100000224FF48061394802F05CFD01224FF452
:101620000061374802F056FD01220421334802F0E0
:1016300051FD01224FF40061304802F04BFD47E0BC
:1016400001224FF480612D4802F044FD00224FF446
:1016500000612B4802F03EFD01220421274802F0E0
:1016600039FD01224FF40061244802F033FD2FE0E0
:1016700001224FF48061214802F02CFD01224FF439
:1016800000611F4802F026FD002204211B4802F0E1
:1016900021FD01224FF40061184802F01BFD17E004
:1016A00001224FF48061154802F014FD01224FF42D
:1016B0000061134802F00EFD012204210F4802F0E0
:1016C00009FD00224FF400610C4802F003FD00BF49
:1016D000074B1B6801335A4203F0030302F0030275
:1016E00058BF5342024A136000BF80BD0018024039
:1016F0000C020020040000201C0400200004024012
:101700000014024080B485B000AF786039607B6817
:10171000092B43DC7B68002B40DB0023FB737B68D9
:10172000092B35D801A252F823F000BF5517000845
:101730005B17000861170008671700086D1700089D
:1017400073170008791700087F170008851700082D
:101750008B1700080323FB731AE09F23FB7317E02A
:101760002523FB7314E00D23FB7311E09923FB7316
:101770000EE04923FB730BE04123FB7308E01F23BA
:10178000FB7305E00123FB7302E00923FB7300BF39
:101790003B68013B0449FA7BCA5400E000BF1437A0
:1017A000BD465DF8047B70470400002080B500AFA3
:1017B00001F04EF900F050F800F0F2FA00F094F960
:1017C00000F07AFA00F05AF900F0CAFA00F0ACF82A
:1017D00000F0D6F900F024F900F098FA00F01EFAB3
:1017E00000F0EAFF00F0F6FBFFF7A0FCFFF7C4FEF5
:1017F000FFF7A6FB01F078F8FFF7E8FD01221021C2
:10180000124802F067FC00BF114B1B68002BFBD095
:10181000FFF79CFC00F0B4FBFFF70AFEFFF7F8FCB3
:1018200000F0F4FB322000F0F5FF0A4B1B68002BA0
:10183000E9D04FF47A7000F0D7FF1021034802F08E
:1018400062FCFFF733FEFFF739FCDCE700100240D3
:101850001C0200201802002080B594B000AF07F1F0
:10186000200330220021184607F09EFE07F10C03EA
:1018700000221A605A609A60DA601A610023BB6025
:10188000274B1B6C264A43F080531364244B1B6C7C
:1018900003F08053BB60BB6800237B60214B1B6857
:1018A000204A43F4804313601E4B1B6803F48043BB
:1018B0007B607B6801233B624FF480337B620223B1
:1018C000BB634FF48003FB6304233B6448237B64C6
:1018D0000223BB640423FB6407F12003184604F0D1
:1018E00093FA0346002B01D000F06EFB0F23FB6040
:1018F00002233B6100237B614FF48053BB610023D3
:10190000FB6107F10C030221184604F0F5FC0346C5
:10191000002B01D000F058FB00BF5037BD4680BD02
:10192000003802400070004080B584B000AF3B46F4
:1019300000221A605A609A60DA60364B364A1A60A2
:10194000344B00225A60334B00229A60314B012203
:101950001A61304B00221A762E4B002283F8202089
:101960002C4B0022DA622B4B2C4A9A62294B002224
:10197000DA60284B0422DA61264B002283F83020FB
:10198000244B01225A61234801F0D4F80346002B6E
:1019900001D000F019FB0A233B6001237B60012387
:1019A000BB603B4619461B4801F036FA0346002B44
:1019B00001D000F009FB0B233B6002237B603B4618
:1019C0001946144801F028FA0346002B01D000F014
:1019D000FBFA08233B6003237B603B4619460D4816
:1019E00001F01AFA0346002B01D000F0EDFA0923AA
:1019F0003B6004237B603B461946064801F00CFA25
:101A00000346002B01D000F0DFFA00BF1037BD46BF
:101A100080BD00BFD8020020002001400100000F5F
:101A200080B500AF124B134A1A60114B124A5A602C
:101A30000F4B00229A600E4B0022DA600C4B4FF4E1
:101A400080421A610A4B00225A61094B00229A61B6
:101A5000074B0022DA61064B00221A62044802F0AA
:101A60006DFB0346002B01D000F0AEFA00BF80BD35
:101A70003C02002000540040A086010080B500AF69
:101A8000174B184A1A60164B4FF482725A60144B67
:101A900000229A60124B0022DA60114B00221A6178
:101AA0000F4B00225A610E4B4FF400729A610C4B9F
:101AB0000022DA610A4B00221A62094B00225A62A4
:101AC000074B00229A62064B0A22DA62044804F0AD
:101AD0000FFE0346002B01D000F076FA00BF80BD58
:101AE0001C0400200030014080B586B000AF07F133
:101AF000080300221A605A609A60DA603B460022AE
:101B00001A605A601D4B4FF080421A601B4B40F226
:101B1000CF225A60194B00229A60184B6322DA6078
:101B2000164B00221A61154B00229A61134805F0EA
:101B3000A5FC0346002B01D000F046FA4FF4805379
:101B4000BB6007F1080319460C4806F0ABF80346E2
:101B5000002B01D000F038FA00233B6000237B60AB
:101B60003B461946054806F09DFC0346002B01D074
:101B700000F02AFA00BF1837BD4680BD740400206B
:101B800080B586B000AF07F1080300221A605A60E2
:101B90009A60DA603B4600221A605A601D4B1E4A6A
:101BA0001A601C4B47225A601A4B00229A60194B4C
:101BB0004FF6FE72DA60174B00221A61154B802235
:101BC0009A61144805F05AFC0346002B01D000F03E
:101BD000FBF94FF48053BB6007F1080319460D4829
:101BE00006F060F80346002B01D000F0EDF9002369
:101BF0003B6000237B603B461946064806F052FCDA
:101C00000346002B01D000F0DFF900BF1837BD46B6
:101C100080BD00BF900200200004004080B588B065
:101C200000AF3B1D00221A605A609A60DA601A61A8
:101C30005A619A611E4B1F4A1A601D4B41F61F42A2
:101C40005A601B4B00229A60194B0922DA60184B2C
:101C500000221A61164B80229A61154805F00EFC8D
:101C60000346002B01D000F0AFF9114805F02EFD1E
:101C70000346002B01D000F0A7F960237B6000230E
:101C8000BB600023FB6000237B613B1D00221946E3
:101C9000074805F045FF0346002B01D000F094F9FA
:101CA000034800F085FB00BF2037BD4680BD00BF64
:101CB00030030020001C004080B500AF114B124AD9
:101CC0001A60104B4FF4E1325A600E4B00229A60BA
:101CD0000C4B0022DA600B4B00221A61094B0C22DC
:101CE0005A61084B00229A61064B0022DA610548CE
:101CF00006F068FC0346002B01D000F065F900BF38
:101D000080BD00BF780300200010014080B500AF07
:101D1000114B124A1A60104B4FF4E1325A600E4BCD
:101D200000229A600C4B0022DA600B4B00221A61F1
:101D3000094B0C225A61084B00229A61064B002283
:101D4000DA61054806F03EFC0346002B01D000F0A6
:101D50003BF900BF80BD00BFBC0400200044004030
:101D600080B582B000AF00237B600C4B1B6B0B4A2D
:101D700043F480031363094B1B6B03F480037B6004
:101D80007B6800220021382001F0C1FB382001F0DF
:101D9000DAFB00BF0837BD4680BD00BF00380240F7
:101DA00080B58EB000AF07F1240300221A605A609C
:101DB0009A60DA601A6100233B626B4B1B6B6A4AC4
:101DC00043F010031363684B1B6B03F010033B627B
:101DD0003B6A0023FB61644B1B6B634A43F02003A7
:101DE0001363614B1B6B03F02003FB61FB69002352
:101DF000BB615D4B1B6B5C4A43F0800313635A4B22
:101E00001B6B03F08003BB61BB6900237B61564BF6
:101E10001B6B554A43F004031363534B1B6B03F0D6
:101E200004037B617B6900233B614F4B1B6B4E4A74
:101E300043F0010313634C4B1B6B03F001033B6145
:101E40003B690023FB60484B1B6B474A43F002038E
:101E50001363454B1B6B03F00203FB60FB6800231D
:101E6000BB60414B1B6B404A43F0400313633E4B46
:101E70001B6B03F04003BB60BB6800237B603A4BE5
:101E80001B6B394A43F008031363374B1B6B03F09A
:101E900008037B607B6800227021344802F01AF945
:101EA000002240F60441324802F014F900224FF4B7
:101EB0000061304802F00EF900224FF410712E48F4
:101EC00002F008F9002248212C4802F003F970239F
:101ED0007B620123BB620023FB6200233B6307F1AB
:101EE00024031946214801F059FF40F604437B6260
:101EF0000123BB620023FB6200233B6307F1240341
:101F000019461B4801F04AFF4FF400637B6201232E
:101F1000BB620023FB6200233B6307F124031946E5
:101F2000144801F03BFF4FF410737B620123BB6246
:101F30000023FB6200233B6307F1240319460E488C
:101F400001F02CFF48237B620123BB620023FB626C
:101F500000233B6307F124031946084801F01EFFE4
:101F600000BF3837BD4680BD003802400010024037
:101F7000000402400014024000180240000C02401D
:101F800080B500AF0D4B5B781A4620210C4802F05B
:101F9000A1F80A4B9A780B4BA3FB021319090B46C5
:101FA0009B000B449B00D31ADBB2012B03D14021D1
:101FB000034802F0A8F800BF80BD00BF0002002067
:101FC00000100240CDCCCCCC80B400AF72B600BFC4
:101FD000FEE7000080B500AF0021024805F0D0FB0D
:101FE00000BF80BD3003002080B483B000AF034643
:101FF000FB71054B1B68FA795A6300BF0C37BD466D
:102000005DF8047B704700BF3003002080B500AF4F
:102010000E4B1B78012B12D10D4B1B78002B03D1DB
:102020000B4B05221A700AE0094B1B78052B03D1D4
:10203000074B09221A7002E0054B00221A70044B6C
:102040001B781846FFF7D0FF00BF80BD00020020BC
:102050001002002080B483B000AF00237B60104BDF
:102060005B6C0F4A43F4804353640D4B5B6C03F489
:1020700080437B607B6800233B60094B1B6C084AF4
:1020800043F080531364064B1B6C03F080533B609A
:102090003B6800BF0C37BD465DF8047B704700BF4E
:1020A0000038024080B58AB000AF786007F11403B1
:1020B00000221A605A609A60DA601A617B681B68B5
:1020C0003C4A934271D100233B613B4B5B6C3A4AE3
:1020D00043F480735364384B5B6C03F480733B614F
:1020E0003B690023FB60344B1B6B334A43F0040312
:1020F0001363314B1B6B03F00403FB60FB6800238D
:10210000BB602D4B1B6B2C4A43F0020313632A4B1D
:102110001B6B03F00203BB60BB6803237B610323DB
:10212000BB610023FB6107F114031946234801F04A
:1021300035FE03237B610323BB610023FB6107F1B1
:10214000140319461E4801F029FE1E4B1E4A1A6050
:102150001C4B00225A601B4B00229A60194B002234
:10216000DA60184B4FF480621A61164B4FF48052BC
:102170005A61144B4FF480429A61124B4FF48072B3
:10218000DA61104B00221A620E4B00225A620D488F
:1021900001F0F4F90346002B01D0FFF715FF7B682F
:1021A000084A9A63074A7B68936300BF2837BD4695
:1021B00080BD00BF002001400038024000080240FE
:1021C00000040240BC0300201064024080B58AB0C5
:1021D00000AF786007F1140300221A605A609A6019
:1021E000DA601A617B681B681D4A934233D1002371
:1021F0003B611C4B1B6B1B4A43F002031363194BDF
:102200001B6B03F002033B613B69C0237B6112231C
:10221000BB610023FB6103233B6204237B6207F164
:1022200014031946104801F0B9FD0023FB600D4B63
:102230001B6C0C4A43F4001313640A4B1B6C03F42D
:102240000013FB60FB68002200211F2001F05FF9F2
:102250001F2001F078F900BF2837BD4680BD00BFC0
:1022600000540040003802400004024080B58AB0AB
:1022700000AF786007F1140300221A605A609A6078
:10228000DA601A617B681B681D4A934233D10023D0
:102290003B611C4B5B6C1B4A43F480535364194BEA
:1022A0005B6C03F480533B613B690023FB60154B7F
:1022B0001B6B144A43F002031363124B1B6B03F0B6
:1022C0000203FB60FB6838237B610223BB610023B0
:1022D000FB6103233B6205237B6207F1140319466C
:1022E000094801F05BFD00220021232001F00FF9D5
:1022F000232001F028F900BF2837BD4680BD00BF6C
:1023000000300140003802400004024080B586B031
:1023100000AF78607B681B68B3F1804F16D1002353
:102320007B61204B1B6C1F4A43F0010313641D4B60
:102330001B6C03F001037B617B69002200211C20E0
:1023400001F0E5F81C2001F0FEF826E07B681B6830
:10235000154A93420ED100233B61124B1B6C114A6C
:1023600043F0020313640F4B1B6C03F002033B6149
:102370003B6912E07B681B680C4A93420DD1002335
:10238000FB60084B1B6C074A43F080031364054B4A
:102390001B6C03F08003FB60FB6800BF1837BD4671
:1023A00080BD00BF0038024000040040001C004017
:1023B00080B588B000AF786007F10C0300221A6086
:1023C0005A609A60DA601A617B681B68124A93420D
:1023D0001ED10023BB60114B1B6B104A43F020033E
:1023E00013630E4B1B6B03F02003BB60BB684FF401
:1023F0008073FB6002233B6100237B610023BB6190
:102400000923FB6107F10C031946054801F0C6FCDE
:1024100000BF2037BD4680BD001C00400038024090
:102420000014024080B58CB000AF786007F11C0347
:1024300000221A605A609A60DA601A617B681B6831
:102440003A4A934235D10023BB61394B5B6C384A21
:1024500043F010035364364B5B6C03F01003BB6115
:10246000BB6900237B61324B1B6B314A43F0010394
:1024700013632F4B1B6B03F001037B617B694FF4EC
:10248000C063FB6102233B6200237B620323BB62C8
:102490000723FB6207F11C031946264801F07EFC66
:1024A00000220021252001F032F8252001F04BF810
:1024B00038E07B681B68204A934233D100233B619C
:1024C0001B4B1B6C1A4A43F400331364184B1B6CF0
:1024D00003F400333B613B690023FB60144B1B6B2F
:1024E000134A43F001031363114B1B6B03F0010309
:1024F000FB60FB680C23FB6102233B6200237B62D1
:102500000323BB620723FB6207F11C03194609483A
:1025100001F044FC00220021262000F0F8FF2620D4
:1025200001F011F800BF3037BD4680BD00100140FA
:1025300000380240000002400044004080B400AF78
:10254000FEE780B400AFFEE780B400AFFEE780B4E2
:1025500000AFFEE780B400AFFEE780B400AF00BF7D
:10256000BD465DF8047B704780B400AF00BFBD4638
:102570005DF8047B704780B400AF00BFBD465DF8D6
:10258000047B704780B500AF00F0B4FA00BF80BD97
:1025900080B500AF024805F0BBF900BF80BD00BFA9
:1025A0007404002080B500AF024802F07BF800BF41
:1025B00080BD00BF3C02002080B500AF024804F09F
:1025C0000FFD00BF80BD00BF1C04002080B500AF20
:1025D000024806F007F900BF80BD00BF7803002065
:1025E00080B500AF024806F0FDF800BF80BD00BF17
:1025F000BC04002080B500AF024801F057F900BFCD
:1026000080BD00BFBC03002080B400AF012318468A
:10261000BD465DF8047B704780B582B000AF78603E
:10262000396006F097FF034616221A604FF0FF3319
:1026300018460837BD4680BD80B582B000AF7860CF
:102640004FF0FF317868FFF7E7FFFEE780B586B00F
:1026500000AFF860B9607A6000237B610AE0AFF3F5
:1026600000800146BB685A1CBA60CAB21A707B6906
:1026700001337B617A697B689A42F0DB7B6818469C
:102680001837BD4680BD80B586B000AFF860B96030
:102690007A6000237B6109E0BB685A1CBA601B7832
:1026A0001846AFF300807B6901337B617A697B68F0
:1026B0009A42F1DB7B6818461837BD4680BD80B46E
:1026C00083B000AF78604FF0FF3318460C37BD463B
:1026D0005DF8047B704780B483B000AF78603960E8
:1026E0003B684FF400525A60002318460C37BD4631
:1026F0005DF8047B704780B483B000AF786001233D
:1027000018460C37BD465DF8047B704780B485B031
:1027100000AFF860B9607A60002318461437BD46F0
:102720005DF8047B7047000080B586B000AF78602C
:10273000144A154BD31A7B617B693B61134B1B68B1
:10274000002B02D1114B124A1A60104B1A687B6899
:1027500013443A699A4207D206F0FCFE03460C2263
:102760001A604FF0FF3309E0084B1B68FB60074B12
:102770001A687B681344054A1360FB6818461837CB
:10278000BD4680BD000002200004000014020020AD
:102790009805002080B400AF064BD3F88830054A76
:1027A00043F47003C2F8883000BFBD465DF8047B77
:1027B000704700BF00ED00E080B500AF084804F0AE
:1027C00015FF084804F05AFE064804F0A7FE4FF42F
:1027D0007A7000F009F8322000F01CF800BF80BDCC
:1027E000740400209002002080B483B000AF7860B1
:1027F000064B4FF47A721A60054B00221A6000BF34
:102800000C37BD465DF8047B704700BF24020020F2
:102810001802002080B483B000AF7860054A7B685E
:102820001360054B00221A6000BF0C37BD465DF8EF
:10283000047B7047280200201C02002080B400AFF7
:102840001A4B1B68002B0BDD184B1B68013B174A0A
:102850001360164B1B68002B02D1154B01221A6026
:10286000144B1B68002B0BDD124B1B68013B114AFC
:102870001360104B1B68002B02D10F4B01221A6012
:102880000E4B1B68002B0BDD0C4B1B68013B0B4AEE
:1028900013600A4B1B68002B02D1094B01221A60FE
:1028A00000BFBD465DF8047B704700BF24020020D6
:1028B00018020020280200201C0200202C02002008
:1028C0002002002080B582B000AF78607B681B6872
:1028D000B3F1804F03D1FFF7B1FFFEF773FE00BFE6
:1028E0000837BD4680BD000080B500AF0122054914
:1028F000054805F046FF01220449054805F041FF5F
:1029000000BF80BD3002002078030020310200208B
:10291000BC04002080B582B000AF78607B681B6883
:10292000114A93420AD10A2301221049104805F0A6
:1029300096FE01220D490E4805F023FF7B681B68B7
:102940000C4A93420CD1FEF7A9FC01220A490B481C
:1029500005F017FF0A2301220749054805F07FFE0D
:1029600000BF0837BD4680BD001001403002002086
:10297000780300200044004031020020BC04002005
:1029800080B483B000AF0346FB71FB791B09DBB257
:102990001A46920013445B00DAB2FB7903F00F038E
:1029A000DBB21344DBB218460C37BD465DF8047B3E
:1029B0007047000080B483B000AF0346FB71FB7921
:1029C0000D4AA2FB0323DB08DBB21B0158B2FA79E4
:1029D000094BA3FB0213D9080B469B000B445B0079
:1029E000D31ADBB25BB203435BB2DBB218460C37DF
:1029F000BD465DF8047B7047CDCCCCCCDFF834D03D
:102A00000D480E490E4A002302E0D458C450043346
:102A1000C4188C42F9D30B4A0B4C002301E013601D
:102A20000432A242FBD3FFF7B5FE06F099FDFEF794
:102A3000BDFE70470000022000000020E4010020DD
:102A400064C70008E401002098050020FEE70000AC
:102A500080B500AF0E4B1B680D4A43F40073136042
:102A60000B4B1B680A4A43F480631360084B1B68D6
:102A7000074A43F480731360032000F03DFD0F20EC
:102A800000F008F8FFF7E6FA0023184680BD00BF03
:102A9000003C024080B582B000AF7860124B1A68EB
:102AA000124B1B7819464FF47A73B3FBF1F3B2FB68
:102AB000F3F3184600F055FD0346002B01D0012327
:102AC0000EE07B680F2B0AD8002279684FF0FF30A8
:102AD00000F01DFD064A7B681360002300E001231F
:102AE00018460837BD4680BD0800002010000020B1
:102AF0000C00002080B400AF064B1B781A46064B32
:102B00001B681344044A136000BFBD465DF8047B94
:102B1000704700BF100000208405002080B400AF83
:102B2000034B1B681846BD465DF8047B704700BF29
:102B30008405002080B584B000AF78600023FB736B
:102B40007B68002B01D1012333E07B681B6C002BD9
:102B500009D17868FFF7A6FA7B6800225A647B687F
:102B6000002283F83C207B681B6C03F01003002BD1
:102B700018D17B681B6C23F4885323F0020343F0C5
:102B800002027B681A64786800F068FA7B680022A9
:102B90005A647B681B6C23F0030343F001027B68DB
:102BA0001A6401E00123FB737B68002283F83C2058
:102BB000FB7B18461037BD4680BD000080B586B04F
:102BC00000AFF860B9607A6000233B61FB6893F85E
:102BD0003C30012B01D10223E9E0FB68012283F89C
:102BE0003C20FB681B689B6803F00103012B18D095
:102BF000FB681B689A68FB681B6842F001029A60D8
:102C00006D4B1B686D4AA2FB03239A0C13465B00B5
:102C100013443B6102E03B69013B3B613B69002B94
:102C2000F9D1FB681B689B6803F48073B3F5807F60
:102C300007D1FB681B689A68FB681B6822F48072E6
:102C40009A60FB681B689B6803F00103012B40F04E
:102C5000A180FB681B6C23F4E06323F0010343F4C1
:102C60008072FB681A64FB681B685B6803F480630E
:102C7000002B07D0FB681B6C23F4405343F48052B5
:102C8000FB681A64FB681B6C03F48053B3F5805F28
:102C900006D1FB685B6C23F00602FB685A6402E015
:102CA000FB6800225A64FB68002283F83C20444BF6
:102CB0007B61FB689B6B434ADA63FB689B6B424A10
:102CC0001A64FB689B6B414ADA64FB681B686FF00F
:102CD00022021A60FB681B685A68FB681B6842F096
:102CE00080625A60FB681B689A68FB681B6842F444
:102CF00080729A60FB68986BFB681B684C331946BE
:102D0000BA687B6800F0E8FC7B695B6803F01F032E
:102D1000002B2AD1FB681B682D4A934215D0FB6813
:102D20001B682C4A934205D1254B5B6803F01F03B7
:102D3000002B0AD0FB681B68274A934236D1204BF0
:102D40005B6803F01003002B30D1FB681B689B68A5
:102D500003F04053002B29D1FB681B689A68FB687D
:102D60001B6842F080429A6020E0FB681B68184AAA
:102D700093421BD1FB681B689B6803F04053002BF8
:102D800014D1FB681B689A68FB681B6842F080429C
:102D90009A600BE0FB681B6C43F01002FB681A643E
:102DA000FB685B6C43F00102FB685A640023184621
:102DB0001837BD4680BD00BF0800002083DE1B43DE
:102DC00000230140553200080F3300082B33000860
:102DD00000200140002101400022014080B483B066
:102DE00000AF786000BF0C37BD465DF8047B7047CC
:102DF00080B483B000AF786000BF0C37BD465DF88B
:102E0000047B704780B483B000AF786000BF0C379C
:102E1000BD465DF8047B704780B485B000AF786034
:102E200039600023BB607B6893F83C30012B01D1F3
:102E3000022305E17B68012283F83C203B681B6884
:102E4000092B25D97B681B68D9683B681B689BB236
:102E50001A4613465B0013441E3B072202FA03F393
:102E6000DA437B681B680A40DA607B681B68D968B4
:102E70003B689A683B681B689BB2184603465B0038
:102E800003441E3B9A407B681B680A43DA6022E0D9
:102E90007B681B6819693B681B689BB21A4613461E
:102EA0005B001344072202FA03F3DA437B681B68D2
:102EB0000A401A617B681B6819693B689A683B681D
:102EC0001B689BB2184603465B0003449A407B682C
:102ED0001B680A431A613B685B68062B24D87B6831
:102EE0001B68596B3B685A6813469B001344053BAB
:102EF0001F2202FA03F3DA437B681B680A405A6315
:102F00007B681B68596B3B681B689BB218463B6823
:102F10005A6813469B001344053B00FA03F27B6892
:102F20001B680A435A634CE03B685B680C2B24D84F
:102F30007B681B68196B3B685A6813469B001344F7
:102F4000233B1F2202FA03F3DA437B681B680A4023
:102F50001A637B681B68196B3B681B689BB2184639
:102F60003B685A6813469B001344233B00FA03F264
:102F70007B681B680A431A6323E07B681B68D96A75
:102F80003B685A6813469B001344413B1F2202FAD8
:102F900003F3DA437B681B680A40DA627B681B68CC
:102FA000D96A3B681B689BB218463B685A6813464F
:102FB0009B001344413B00FA03F27B681B680A4301
:102FC000DA62224BFB607B681B68214A934209D17D
:102FD0003B681B68122B05D1FB685B6843F48002D9
:102FE000FB685A607B681B68194A934223D13B688F
:102FF0001B68102B03D03B681B68112B1BD1FB688F
:103000005B6843F40002FB685A603B681B68102B46
:1030100011D1104B1B68104AA2FB03239A0C1346D4
:103020009B0013445B00BB6002E0BB68013BBB60DC
:10303000BB68002BF9D17B68002283F83C20002379
:1030400018461437BD465DF8047B704700230140E5
:10305000002001400800002083DE1B4380B485B0BF
:1030600000AF7860794BFB60FB685B6823F440320B
:10307000FB685A60FB685A687B685B681A43FB68A8
:103080005A607B681B685A687B681B6822F48072F0
:103090005A607B681B6859687B681B691A027B68E9
:1030A0001B680A435A607B681B685A687B681B6808
:1030B00022F040725A607B681B6859687B689A6886
:1030C0007B681B680A435A607B681B689A687B6848
:1030D0001B6822F400629A607B681B6899687B68B1
:1030E000DA687B681B680A439A607B689B6A584A67
:1030F000934222D07B681B689A687B681B6822F029
:1031000070629A607B681B6899687B689A6A7B68C2
:103110001B680A439A607B681B689A687B681B6817
:1031200022F040529A607B681B6899687B68DA6A73
:103130007B681B680A439A600FE07B681B689A688B
:103140007B681B6822F070629A607B681B689A68D3
:103150007B681B6822F040529A607B681B689A6803
:103160007B681B6822F002029A607B681B68996882
:103170007B681B7E5A007B681B680A439A607B68E9
:1031800093F82030002B1BD07B681B685A687B6843
:103190001B6842F400625A607B681B685A687B684F
:1031A0001B6822F460425A607B681B6859687B6820
:1031B0005B6A013B5A037B681B680A435A6007E05D
:1031C0007B681B685A687B681B6822F400625A603F
:1031D0007B681B68DA6A7B681B6822F47002DA621B
:1031E0007B681B68D96A7B68DB69013B1A057B68D1
:1031F0001B680A43DA627B681B689A687B681B68F5
:1032000022F400729A607B681B6899687B6893F867
:1032100030305A027B681B680A439A607B681B68DF
:103220009A687B681B6822F480629A607B681B68DE
:1032300099687B685B699A027B681B680A439A609D
:1032400000BF1437BD465DF8047B70470023014082
:103250000100000F80B584B000AF78607B689B6B85
:10326000FB60FB681B6C03F05003002B3CD1FB6838
:103270001B6C43F40072FB681A64FB681B689B6854
:1032800003F04053002B2BD1FB681B7E002B27D172
:10329000FB681B68DB6A03F47003002B06D0FB6835
:1032A0001B689B6803F48063002B19D1FB681B68C3
:1032B0005A68FB681B6822F020025A60FB681B6C8E
:1032C00023F48072FB681A64FB681B6C03F4805360
:1032D000002B05D1FB681B6C43F00102FB681A64EC
:1032E000F868FFF77BFD0EE0FB681B6C03F0100332
:1032F000002B03D0F868FFF785FD04E0FB689B6BAB
:10330000DB6C7868984700BF1037BD4680BD80B53C
:1033100084B000AF78607B689B6BFB60F868FFF758
:1033200067FD00BF1037BD4680BD80B584B000AFDB
:1033300078607B689B6BFB60FB6840221A64FB68CB
:103340005B6C43F00402FB685A64F868FFF75AFDAF
:1033500000BF1037BD4680BD80B485B000AF786037
:103360007B6803F00703FB600C4BDB68BB60BA684B
:103370004FF6FF031340BB60FB681A02BB681343A0
:1033800043F0BF6343F40033BB60044ABB68D360BF
:1033900000BF1437BD465DF8047B704700ED00E0C8
:1033A00080B400AF044BDB681B0A03F00703184628
:1033B000BD465DF8047B704700ED00E080B483B04B
:1033C00000AF0346FB7197F90730002B0BDBFB794D
:1033D00003F01F02074997F907305B09012000FA43
:1033E00002F241F8232000BF0C37BD465DF8047B94
:1033F000704700BF00E100E080B483B000AF034637
:103400003960FB7197F90730002B0ADB3B68DAB2B1
:103410000C4997F907301201D2B20B4483F800230C
:103420000AE03B68DAB20849FB7903F00F03043B7A
:103430001201D2B20B441A7600BF0C37BD465DF8BC
:10344000047B704700E100E000ED00E080B489B04B
:1034500000AFF860B9607A60FB6803F00703FB61B6
:10346000FB69C3F10703042B28BF0423BB61FB697D
:103470000433062B02D9FB69033B00E000237B6188
:103480004FF0FF32BB6902FA03F3DA43BB681A401C
:103490007B699A404FF0FF317B6901FA03F3D9430E
:1034A0007B680B40134318462437BD465DF8047B08
:1034B0007047000080B582B000AF78607B68013B48
:1034C000B3F1807F01D301230FE00A4A7B68013BFF
:1034D00053600F214FF0FF30FFF78EFF054B0022A6
:1034E0009A60044B07221A60002318460837BD462D
:1034F00080BD00BF10E000E080B582B000AF786012
:103500007868FFF729FF00BF0837BD4680BD80B54A
:1035100086B000AF0346B9607A60FB7300237B611D
:10352000FFF73EFF78617A68B9687869FFF78EFF28
:10353000024697F90F3011461846FFF75DFF00BFAE
:103540001837BD4680BD80B582B000AF0346FB7121
:1035500097F907301846FFF731FF00BF0837BD461F
:1035600080BD80B582B000AF78607868FFF7A2FFB9
:10357000034618460837BD4680BD000080B586B0BA
:1035800000AF786000237B61FFF7C8FA38617B6881
:10359000002B01D1012399E07B68022283F83520BA
:1035A0007B68002283F834207B681B681A687B687C
:1035B0001B6822F001021A600FE0FFF7AFFA024623
:1035C0003B69D31A052B08D97B6820225A657B6892
:1035D000032283F83520032378E07B681B681B688F
:1035E00003F00103002BE8D17B681B681B687B613B
:1035F0007A69384B13407B617B685A687B689B68AB
:103600001A437B68DB681A437B681B691A437B6833
:103610005B691A437B689B691A437B68DB691A43C1
:103620007B681B6A13437A6913437B617B685B6A1F
:10363000042B07D17B68DA6A7B681B6B13437A69BA
:1036400013437B617B681B687A691A607B681B681F
:103650005B697B617B6923F007037B617B685B6A45
:103660007A6913437B617B685B6A042B17D17B68A3
:103670009B6A7A6913437B617B68DB6A002B0ED0FF
:10368000786800F00FFB0346002B08D07B684022CF
:103690005A657B68012283F83520012316E07B6898
:1036A0001B687A695A61786800F0C6FA0346FB60C5
:1036B0007B68DB6D3F229A40FB689A607B68002242
:1036C0005A657B68012283F8352000231846183795
:1036D000BD4680BD3F8010F080B586B000AFF86079
:1036E000B9607A603B600023FB75FB689B6D3B61B2
:1036F000FB6893F83430012B01D1022340E0FB68D2
:10370000012283F83420FB6893F83530DBB2012BBB
:103710002FD1FB68022283F83520FB6800225A650E
:103720003B687A68B968F86800F058FAFB68DB6DA6
:103730003F229A403B699A60FB681B681A68FB68E5
:103740001B6842F016021A60FB681B6C002B07D046
:10375000FB681B681A68FB681B6842F008021A6065
:10376000FB681B681A68FB681B6842F001021A605C
:1037700005E0FB68002283F834200223FB75FB7D03
:1037800018461837BD4680BD80B584B000AF78605C
:103790007B689B6DFB60FFF7C1F9B8607B6893F8AD
:1037A0003530DBB2022B08D07B6880225A657B68FB
:1037B000002283F83420012352E07B681B681A68DA
:1037C0007B681B6822F016021A607B681B685A69C6
:1037D0007B681B6822F080025A617B681B6C002B9F
:1037E00003D17B689B6C002B07D07B681B681A6831
:1037F0007B681B6822F008021A607B681B681A68E5
:103800007B681B6822F001021A6013E0FFF786F95B
:103810000246BB68D31A052B0CD97B6820225A6557
:103820007B68032283F835207B68002283F83420EC
:10383000032315E07B681B681B6803F00103002B62
:10384000E4D17B68DB6D3F229A40FB689A607B681D
:10385000012283F835207B68002283F8342000237E
:1038600018461037BD4680BD80B483B000AF786085
:103870007B6893F83530DBB2022B04D07B68802262
:103880005A6501230CE07B68052283F835207B68AC
:103890001B681A687B681B6822F001021A6000230B
:1038A00018460C37BD465DF8047B704780B586B07E
:1038B00000AF78600023BB60924B1B68924AA2FB6A
:1038C00003239B0A7B617B689B6D3B613B691B68A3
:1038D000FB607B68DB6D08229A40FB681340002B7D
:1038E0001AD07B681B681B6803F00403002B13D0FD
:1038F0007B681B681A687B681B6822F004021A60E8
:103900007B68DB6D08229A403B699A607B685B6D3F
:1039100043F001027B685A657B68DB6D01229A40A7
:10392000FB681340002B12D07B681B685B6903F0B7
:103930008003002B0BD07B68DB6D01229A403B6932
:103940009A607B685B6D43F002027B685A657B6816
:10395000DB6D04229A40FB681340002B12D07B6879
:103960001B681B6803F00203002B0BD07B68DB6D28
:1039700004229A403B699A607B685B6D43F00402C5
:103980007B685A657B68DB6D10229A40FB681340A8
:10399000002B43D07B681B681B6803F00803002BD7
:1039A0003CD07B68DB6D10229A403B699A607B6853
:1039B0001B681B6803F48023002B18D07B681B68EE
:1039C0001B6803F40023002B08D17B681B6C002BC1
:1039D00024D07B681B6C786898471FE07B689B6CE1
:1039E000002B1BD07B689B6C7868984716E07B683F
:1039F0001B681B6803F48073002B07D17B681B686E
:103A00001A687B681B6822F008021A607B681B6CCE
:103A1000002B03D07B681B6C786898477B68DB6D54
:103A200020229A40FB681340002B00F08E807B68B8
:103A30001B681B6803F01003002B00F086807B6876
:103A4000DB6D20229A403B699A607B6893F83530A1
:103A5000DBB2052B36D17B681B681A687B681B6854
:103A600022F016021A607B681B685A697B681B6823
:103A700022F080025A617B681B6C002B03D17B68AB
:103A80009B6C002B07D07B681B681A687B681B68DF
:103A900022F008021A607B68DB6D3F229A403B6986
:103AA0009A607B68012283F835207B68002283F8C6
:103AB00034207B681B6D002B7DD07B681B6D786884
:103AC000984778E07B681B681B6803F48023002B11
:103AD0001CD07B681B681B6803F40023002B08D1F3
:103AE0007B685B6C002B30D07B685B6C7868984798
:103AF0002BE07B68DB6B002B27D07B68DB6B786867
:103B0000984722E008000020B5814E1B7B681B68A7
:103B10001B6803F48073002B0FD17B681B681A6845
:103B20007B681B6822F010021A607B68012283F810
:103B300035207B68002283F834207B68DB6B002B08
:103B400003D07B68DB6B786898477B685B6D002BE4
:103B500032D07B685B6D03F00103002B22D07B68C1
:103B6000052283F835207B681B681A687B681B6810
:103B700022F001021A60BB680133BB607A699A4285
:103B800007D37B681B681B6803F00103002BF2D18D
:103B900000E000BF7B68012283F835207B680022AB
:103BA00083F834207B68DB6C002B05D07B68DB6CF2
:103BB0007868984700E000BF1837BD4680BD00BF59
:103BC00080B483B000AF78607B6893F83530DBB2A7
:103BD00018460C37BD465DF8047B704780B485B04D
:103BE00000AFF860B9607A603B60FB681B681A68D8
:103BF000FB681B6822F480221A60FB681B683A6825
:103C00005A60FB689B68402B08D1FB681B687A6888
:103C10009A60FB681B68BA68DA6007E0FB681B689B
:103C2000BA689A60FB681B687A68DA6000BF14376C
:103C3000BD465DF8047B704780B485B000AF786006
:103C40007B681B68DBB2103B144AA2FB03231B09F1
:103C5000FB60134AFB6813441B781A467B68DA65DD
:103C6000FB68032B09D97B681B6823F47F7323F05F
:103C700003031A1D7B689A6507E07B681B6823F4C1
:103C80007F7323F003037A6893657B689B6D184606
:103C90001437BD465DF8047B704700BFABAAAAAAE3
:103CA00068C3000880B485B000AF78600023FB7360
:103CB0007B689B6ABB607B689B69002B1FD1BB68DC
:103CC000032B56D801A252F823F000BFDD3C0008B8
:103CD000EF3C0008DD3C0008733D00087B68DB6AB0
:103CE00003F08073002B46D00123FB7343E07B6815
:103CF000DB6AB3F1C07F40D10123FB733DE07B68F9
:103D00009B69B3F5005F21D1BB68032B37D801A2B3
:103D100052F823F0253D00082B3D0008253D000802
:103D20003D3D00080123FB7330E07B68DB6A03F054
:103D30008073002B25D00123FB7322E07B68DB6AB4
:103D4000B3F1C07F1FD10123FB731CE0BB68022BC2
:103D500003D9BB68032B03D018E00123FB7315E0E4
:103D60007B68DB6A03F08073002B0ED00123FB73AA
:103D70000BE000BF0AE000BF08E000BF06E000BFA4
:103D800004E000BF02E000BF00E000BFFB7B18467C
:103D90001437BD465DF8047B704700BF80B489B01E
:103DA00000AF7860396000237B6100233B61002312
:103DB000BB610023FB616BE10122FB6902FA03F3A3
:103DC0007B613B681B687A6913403B613A697B6998
:103DD0009A4240F05A813B685B6803F00303012B71
:103DE00005D03B685B6803F00303022B30D17B688E
:103DF0009B68BB61FB695B00032202FA03F3DB43B0
:103E0000BA691340BB613B68DA68FB695B0002FA80
:103E100003F3BA691343BB617B68BA699A607B6834
:103E20005B68BB610122FB6902FA03F3DB43BA69F9
:103E30001340BB613B685B681B0903F00102FB692F
:103E400002FA03F3BA691343BB617B68BA695A602B
:103E50003B685B6803F00303032B17D07B68DB68C8
:103E6000BB61FB695B00032202FA03F3DB43BA691F
:103E70001340BB613B689A68FB695B0002FA03F37D
:103E8000BA691343BB617B68BA69DA603B685B68F7
:103E900003F00303022B23D1FB69DA087B680832A5
:103EA00053F82230BB61FB6903F007039B000F222C
:103EB00002FA03F3DB43BA691340BB613B681A693A
:103EC000FB6903F007039B0002FA03F3BA6913438B
:103ED000BB61FB69DA087B680832B96943F82210D4
:103EE0007B681B68BB61FB695B00032202FA03F37A
:103EF000DB43BA691340BB613B685B6803F00302B4
:103F0000FB695B0002FA03F3BA691343BB617B6888
:103F1000BA691A603B685B6803F44033002B00F019
:103F2000B4800023FB60604B5B6C5F4A43F48043CA
:103F300053645D4B5B6C03F48043FB60FB685B4A3E
:103F4000FB699B08023352F82330BB61FB6903F025
:103F500003039B000F2202FA03F3DB43BA69134009
:103F6000BB617B68524A93422BD07B68514A934293
:103F700025D07B68504A93421FD07B684F4A9342BA
:103F800019D07B684E4A934213D07B684D4A9342C6
:103F90000DD07B684C4A934207D07B684B4A9342D2
:103FA00001D107230EE008230CE006230AE00523D5
:103FB00008E0042306E0032304E0022302E00123D7
:103FC00000E00023FA6902F0030292009340BA690C
:103FD0001343BB613549FB699B080233BA6941F859
:103FE00023203B4B1B68BB613B69DB43BA69134031
:103FF000BB613B685B6803F48033002B03D0BA6974
:104000003B691343BB61324ABB691360304B5B6849
:10401000BB613B69DB43BA691340BB613B685B68CA
:1040200003F40033002B03D0BA693B691343BB612F
:10403000274ABB695360264B9B68BB613B69DB43E6
:10404000BA691340BB613B685B6803F48013002BC3
:1040500003D0BA693B691343BB611D4ABB699360D6
:104060001B4BDB68BB613B69DB43BA691340BB6137
:104070003B685B6803F40013002B03D0BA693B690B
:104080001343BB61124ABB69D360FB690133FB6117
:10409000FB690F2B7FF690AE00BF00BF2437BD46F3
:1040A0005DF8047B704700BF0038024000380140D3
:1040B000000002400004024000080240000C0240E0
:1040C000001002400014024000180240001C024090
:1040D000003C014080B483B000AF78600B467B8029
:1040E00013467B707B78002B03D07A887B689A61BB
:1040F00003E07B881A047B689A6100BF0C37BD46D9
:104100005DF8047B704780B485B000AF78600B46E3
:104110007B807B685B69FB607A88FB6813401A04CC
:10412000FB68D9437B880B401A437B689A6100BFC8
:104130001437BD465DF8047B7047000080B584B03D
:1041400000AF78607B68002B01D101232BE17B68F5
:1041500093F83D30DBB2002B06D17B68002283F858
:104160003C207868FEF732F87B68242283F83D20F3
:104170007B681B681A687B681B6822F001021A6062
:104180007B681B681A687B681B6842F400421A60EF
:104190007B681B681A687B681B6822F400421A60FF
:1041A00002F07EFAF8607B685B68814A934207D828
:1041B000FB68804A934294BF01230023DBB206E0F0
:1041C000FB687D4A934294BF01230023DBB2002B9E
:1041D00001D00123E7E0FB68784AA2FB03239B0C94
:1041E000BB607B681B685B6823F03F017B681B68D2
:1041F000BA680A435A607B681B681B6A23F03F0158
:104200007B685B686A4A934202D8BB68013309E065
:10421000BB684FF4967202FB03F3694AA2FB0323C7
:104220009B0901337A6812680B4313627B681B6831
:10423000DB6923F44F4222F0FF027B685B685C4934
:104240008B4219D8FB68591E7B685B685B00B1FB29
:10425000F3F3591C40F6FC730B40002B0AD0FB68AB
:10426000591E7B685B685B00B1FBF3F30133C3F35A
:104270000B0351E004234FE07B689B68002B11D1B6
:10428000FB68581E7B6859680B465B000B44B0FB0B
:10429000F3F30133C3F30B03002B0CBF0123002303
:1042A000DBB212E0FB68581E7B6859680B469B0026
:1042B0000B4499000B44B0FBF3F30133C3F30B033E
:1042C000002B0CBF01230023DBB2002B01D0012304
:1042D00022E07B689B68002B0ED1FB68581E7B6830
:1042E00059680B465B000B44B0FBF3F30133C3F397
:1042F0000B0343F400430FE0FB68581E7B685968CA
:104300000B469B000B4499000B44B0FBF3F30133C5
:10431000C3F30B0343F44043796809681343CB614B
:104320007B681B681B6823F0C0017B68DA697B68C7
:104330001B6A1A437B681B680A431A607B681B6808
:104340009B6823F4034323F0FF037A6811697A68BA
:10435000D26811437A6812680B4393607B681B68CC
:10436000DB6823F0FF017B685A697B689B691A430D
:104370007B681B680A43DA607B681B681A687B6885
:104380001B6842F001021A607B6800221A647B6895
:10439000202283F83D207B6800221A637B6800227C
:1043A00083F83E20002318461037BD4680BD00BF6D
:1043B000A08601007F841E00FF083D0083DE1B43B2
:1043C000D34D621080B487B000AFF8600846114644
:1043D0001A4603467B810B463B811346FB80002334
:1043E0007B61FB6893F83D30DBB2202B40F08E8080
:1043F0004A4B1B68DB084A4AA2FB03231A0A1346EE
:104400009B0013449A0013447B617B69013B7B61F1
:104410007B69002B16D1FB6800221A63FB682022FF
:1044200083F83D20FB68002283F83E20FB681B6C6C
:1044300043F02002FB681A64FB68002283F83C20EA
:10444000012364E0FB681B689B6903F00203022BF5
:10445000DBD0FB6893F83C30012B01D1022356E0FE
:10446000FB68012283F83C20FB681B681B6803F093
:104470000103012B07D0FB681B681A68FB681B68E7
:1044800042F001021A60FB681B681A68FB681B682F
:1044900022F400621A60FB68212283F83D20FB6849
:1044A000402283F83E20FB6800221A64FB683A6AC7
:1044B0005A62FB68BA8C5A85FB685B8D9AB2FB68BE
:1044C0001A85FB68174ADA627A89FB685A643A8966
:1044D000FB689A64FA88FB68DA64FB6800221A6554
:1044E000FB681B681A68FB681B6842F480721A60DC
:1044F000FB68002283F83C20FB681B685A68FB6855
:104500001B6842F4E0625A60002300E00223184670
:104510001C37BD465DF8047B704700BF08000020D3
:1045200089B5F8140000FFFF80B487B000AFF860D1
:10453000084611461A4603467B810B463B811346CB
:10454000FB8000237B61FB6893F83D30DBB2202BBE
:1045500040F09A80504B1B68DB08504AA2FB0323B3
:104560001A0A13469B0013449A0013447B617B692B
:10457000013B7B617B69002B16D1FB6800221A632B
:10458000FB68202283F83D20FB68002283F83E2050
:10459000FB681B6C43F02002FB681A64FB68002276
:1045A00083F83C20012370E0FB681B689B6903F0E3
:1045B0000203022BDBD0FB6893F83C30012B01D1C6
:1045C000022362E0FB68012283F83C20FB681B6841
:1045D0001B6803F00103012B07D0FB681B681A68F6
:1045E000FB681B6842F001021A60FB681B681A68CE
:1045F000FB681B6822F400621A60FB68222283F8C1
:104600003D20FB68402283F83E20FB6800221A64AC
:10461000FB683A6A5A62FB68BA8C5A85FB685B8D04
:104620009AB2FB681A85FB681D4ADA627A89FB68D0
:104630005A643A89FB689A64FA88FB68DA64FB6812
:1046400000221A65FB681B681A68FB681B6842F445
:1046500080621A60FB681B681A68FB681B6842F47A
:1046600080721A60FB68002283F83C20FB681B8D77
:10467000002B07D0FB681B685A68FB681B6842F474
:10468000E0625A60002300E0022318461C37BD4652
:104690005DF8047B704700BF0800002089B5F8145E
:1046A0000000FFFF80B588B000AF78600023BB61D9
:1046B0007B681B685B687B617B68DB6A3B617B684E
:1046C00093F83E30FB737B6893F83D30BB73FB7B04
:1046D000102B03D0FB7B402B40F0C1807B681B6814
:1046E0009B69BB617B681B685B69FB61FB6903F0CD
:1046F0000103002B0DD13B69B3F52A0F03D03B69B1
:10470000B3F12A4F01D1012300E00023012B00F077
:104710003281FB6903F00103002B0CD07B695B0A3B
:1047200003F00103002B06D0786801F051FB786894
:1047300000F0C8FC92E0FB69DB0803F00103002BEA
:1047400009D07B695B0A03F00103002B03D0786872
:1047500000F03EFD82E0FB695B0803F00103002BE3
:1047600009D07B695B0A03F00103002B03D0786852
:1047700000F058FD72E0BB699B0803F00103002BB9
:104780003BD07B681B685B6803F40063B3F5006F84
:1047900000F0F380FB69DB0903F00103002B0FD06D
:1047A0007B699B0A03F00103002B09D0FB699B087E
:1047B00003F00103002B03D1786800F042F94DE0CB
:1047C000FB699B0803F00103002B00F0D6807B6996
:1047D0005B0A03F00103002B00F0CF80BB7B212B91
:1047E00003D1786800F0C9F9C7E0FB7B402B40F0AB
:1047F000C480786800F037FABFE07B681B685B68AC
:1048000003F40063B3F5006F00F0B780FB699B0908
:1048100003F00103002B0FD07B699B0A03F0010317
:10482000002B09D0FB699B0803F00103002B03D187
:10483000786800F0ACFA11E0FB699B0803F0010313
:10484000002B00F09A807B695B0A03F00103002BC8
:1048500000F09380786800F04BFB8EE08DE07B6881
:104860001B6C002B04D07B681B685B69FB6107E055
:104870007B681B689B69BB617B681B685B69FB612C
:10488000FB695B0803F00103002B12D07B695B0A14
:1048900003F00103002B0CD07B681B6C002B03D0B2
:1048A0007B681B689B69BB61B969786800F009FF88
:1048B00066E0FB691B0903F00103002B09D07B694B
:1048C0005B0A03F00103002B03D0786800F044FF7B
:1048D00056E0BB7B212B02D0BB7B292B25D1FB696A
:1048E000DB0903F00103002B0FD07B699B0A03F067
:1048F0000103002B09D0FB699B0803F00103002B87
:1049000003D1786800F01FFE39E0FB699B0803F0D3
:104910000103002B33D07B695B0A03F00103002BFA
:104920002DD0786800F04CFE29E0FB699B0903F06C
:104930000103002B0FD07B699B0A03F00103002BBE
:1049400009D0FB699B0803F00103002B03D17868B1
:1049500000F057FE14E0FB699B0803F00103002BF5
:104960000ED07B695B0A03F00103002B08D0786846
:1049700000F085FE04E000BF02E000BF00E000BFE1
:104980002037BD4680BD80B483B000AF786000BFE3
:104990000C37BD465DF8047B704780B483B000AF30
:1049A000786000BF0C37BD465DF8047B704780B46B
:1049B00083B000AF786000BF0C37BD465DF8047B64
:1049C000704780B483B000AF786000BF0C37BD463D
:1049D0005DF8047B704780B483B000AF78600B460D
:1049E000FB7013463B8000BF0C37BD465DF8047B6F
:1049F000704780B483B000AF786000BF0C37BD460D
:104A00005DF8047B704780B483B000AF786000BF6E
:104A10000C37BD465DF8047B704780B483B000AFAF
:104A2000786000BF0C37BD465DF8047B704780B4EA
:104A300083B000AF786000BF0C37BD465DF8047BE3
:104A4000704780B584B000AF78607B6893F83D30E4
:104A5000FB737B6893F83E30BB737B68DB6ABB609B
:104A60007B681B8D002B50D1FB7B212B4DD1BB686C
:104A7000082B1DD0BB68202B1AD0BB6813F5803FD4
:104A800016D07B681B685A687B681B6822F4E0625A
:104A90005A607B6811221A637B68002283F83E20EB
:104AA0007B68202283F83D207868FFF76CFF60E088
:104AB0007B681B685A687B681B6822F4E0625A6056
:104AC0007B681B681A687B681B6842F400721A6076
:104AD0007B6800221A637B68202283F83D207B6874
:104AE00093F83E30DBB2402B07D17B68002283F87D
:104AF0003E207868FFF787FF3BE07B68002283F861
:104B00003E207868FFF73FFF33E0FB7B212B05D089
:104B1000BB7B402B2DD1FB7B222B2AD17B685B8D6D
:104B20009BB2002B08D17B681B685A687B681B68A6
:104B300022F480625A601CE07B6893F83E30DBB25E
:104B4000402B03D1786800F08EF812E07B685B6A36
:104B50001A787B681B681A617B685B6A5A1C7B68E1
:104B60005A627B685B8D9BB2013B9AB27B685A8527
:104B7000FFE700BF1037BD4680BD80B584B000AFF1
:104B800078607B68DB6AFB607B6893F83D30DBB262
:104B9000212B64D17B685B8D9BB2002B12D07B688C
:104BA0005B6A1A787B681B681A617B685B6A5A1CAF
:104BB0007B685A627B685B8D9BB2013B9AB27B68D3
:104BC0005A854CE0FB68082B1DD0FB68202B1AD0BF
:104BD000FB6813F5803F16D07B681B685A687B68BA
:104BE0001B6822F4E0625A607B6811221A637B68BA
:104BF000002283F83E207B68202283F83D207868DD
:104C0000FFF7C1FE2BE07B681B685A687B681B6856
:104C100022F4E0625A607B681B681A687B681B6834
:104C200042F400721A607B6800221A637B682022BB
:104C300083F83D207B6893F83E30DBB2402B07D1F0
:104C40007B68002283F83E207868FFF7DCFE06E0F0
:104C50007B68002283F83E207868FFF794FE00BF4F
:104C60001037BD4680BD80B584B000AF78607B68EA
:104C700093F83D30FB737B681B6D002B1DD17B6867
:104C8000DB6C012B0BD17B689B6CDAB27B681B68F9
:104C90001A617B681B6D9A1C7B681A6573E07B68E0
:104CA0009B6C9BB21B12DAB27B681B681A617B6833
:104CB0001B6D5A1C7B681A6565E07B681B6D012BB8
:104CC0000BD17B689B6CDAB27B681B681A617B68CE
:104CD0001B6D5A1C7B681A6555E07B681B6D022BA7
:104CE00051D1FB7B222B0DD17B681B681A687B6836
:104CF0001B6842F480721A607B681B6D5A1C7B68CB
:104D00001A6540E07B685B8D9BB2002B15D0FB7B66
:104D1000212B12D17B685B6A1A787B681B681A6149
:104D20007B685B6A5A1C7B685A627B685B8D9BB2AE
:104D3000013B9AB27B685A8525E07B685B8D9BB20C
:104D4000002B20D1FB7B212B1DD17B681B685A686F
:104D50007B681B6822F4E0625A607B681B681A68F3
:104D60007B681B6842F400721A607B6800221A6339
:104D70007B68202283F83D207B68002283F83E2058
:104D80007868FFF740FE00BF1037BD4680BD80B594
:104D900084B000AF78607B6893F83D30DBB2222BA3
:104DA00040F0A2807B685B8D9BB2FB60FB68032BAD
:104DB00021D97B681B681A697B685B6AD2B21A705A
:104DC0007B685B6A5A1C7B685A627B685B8D9BB20E
:104DD000013B9AB27B685A857B685B8D9BB2032B43
:104DE00040F082807B681B685A687B681B6822F4ED
:104DF00080625A6078E07B68DB6A022B74D0FB68C3
:104E0000012B02D0FB68002B6ED1786800F0AEFF5A
:104E10000346002B42D17B681B681A687B681B68BD
:104E200022F480621A607B681B685A687B681B6882
:104E300022F4E0625A607B681B681A697B685B6ACF
:104E4000D2B21A707B685B6A5A1C7B685A627B68B4
:104E50005B8D9BB2013B9AB27B685A857B682022AE
:104E600083F83D207B6893F83E30DBB2402B0AD1BB
:104E70007B68002283F83E207B6800221A637868F2
:104E8000FCF728FB30E07B68002283F83E207B683B
:104E900012221A637868FFF780FD25E07B681B68A3
:104EA0005A687B681B6822F4E0625A607B681B6862
:104EB0001A697B685B6AD2B21A707B685B6A5A1C9B
:104EC0007B685A627B685B8D9BB2013B9AB27B68C0
:104ED0005A857B68202283F83D207B68002283F876
:104EE0003E207868FFF799FD00BF1037BD4680BDB2
:104EF00080B584B000AF78607B68DB6AFB607B685C
:104F00005B8D9BB2042B1BD17B681B685A687B6846
:104F10001B6822F480625A607B681B681A697B6890
:104F20005B6AD2B21A707B685B6A5A1C7B685A62F1
:104F30007B685B8D9BB2013B9AB27B685A85BDE072
:104F40007B685B8D9BB2032B29D17B681B685A68F9
:104F50007B681B6822F480625A60FB68042B0AD0CD
:104F6000FB68022B07D07B681B681A687B681B688C
:104F700022F480621A607B681B681A697B685B6A2E
:104F8000D2B21A707B685B6A5A1C7B685A627B6873
:104F90005B8D9BB2013B9AB27B685A858EE07B6841
:104FA0005B8D9BB2022B76D1FB68012B02D0FB6894
:104FB000102B08D17B681B681A687B681B6822F479
:104FC00080621A6019E0FB68042B02D0FB68022B98
:104FD00008D17B681B681A687B681B6842F4806292
:104FE0001A600AE0FB68102B07D07B681B681A6800
:104FF0007B681B6842F400721A607B681B681A6940
:105000007B685B6AD2B21A707B685B6A5A1C7B68E9
:105010005A627B685B8D9BB2013B9AB27B685A8572
:105020007B681B681A697B685B6AD2B21A707B68FE
:105030005B6A5A1C7B685A627B685B8D9BB2013B42
:105040009AB27B685A857B681B685A687B681B68C4
:1050500022F440725A607B68202283F83D207B68EE
:1050600093F83E30DBB2402B0AD17B68002283F8F4
:105070003E207B6800221A637868FCF72BFA1DE05B
:105080007B68002283F83E207B6812221A637868CE
:10509000FFF783FC12E07B681B681A697B685B6A18
:1050A000D2B21A707B685B6A5A1C7B685A627B6852
:1050B0005B8D9BB2013B9AB27B685A8500BF10376B
:1050C000BD4680BD80B483B000AF78607B6893F844
:1050D0003E30DBB2402B17D17B681B6D002B09D112
:1050E0007B685B6CDBB21A467B681B6802F0FE02D1
:1050F0001A6167E07B685B6CDBB243F00103DAB2F4
:105100007B681B681A615DE07B681B69B3F5804FA3
:1051100033D17B6893F83D30DBB2212B09D17B681A
:105120005B6CDBB21A467B681B6802F0FE021A61F8
:1051300008E07B685B6CDBB243F00103DAB27B68AA
:105140001B681A617B685B6B002B04D07B685B6B10
:10515000DB6B002B08D17B689B6B002B32D07B680C
:105160009B6BDB6B002B2DD07B681B685A687B68C0
:105170001B6842F400625A6024E07B681B6D002BC0
:105180000ED17B685B6C9BB2DB11DBB203F00603D4
:10519000DBB263F00F03DAB27B681B681A6111E0BF
:1051A0007B681B6D012B0DD17B685B6C9BB2DB11A7
:1051B000DBB203F00603DBB263F00E03DAB27B6806
:1051C0001B681A6100BF0C37BD465DF8047B704751
:1051D00080B483B000AF78607B685B6CDAB27B68C8
:1051E0001B681A617B685B6B002B04D07B685B6B70
:1051F000DB6B002B08D17B689B6B002B0CD07B6892
:105200009B6BDB6B002B07D07B681B685A687B6845
:105210001B6842F400625A6000BF0C37BD465DF85F
:10522000047B704780B491B000AF78607B6893F8DE
:105230003E3087F83F307B68DB6ABB637B681B6B63
:105240007B637B6893F83D30DBB2222B40F06981B1
:105250007B681B6D002B0FD197F83F30402B0BD193
:1052600000233B637B681B685B693B637B681B684F
:105270009B693B633B6B60E17B681B6D002B1DD121
:105280007B681B69B3F5404F18D10023FB627B6834
:105290001B685B69FB627B681B689B69FB62FB6A3E
:1052A0007B681B681A687B681B6842F480721A600E
:1052B0007B681B6D5A1C7B681A653EE17B685B8DC1
:1052C0009BB2002B13D10023BB627B681B685B6918
:1052D000BB627B681B689B69BB62BB6A7B681B689F
:1052E0001A687B681B6842F400721A6015E17B68DB
:1052F0005B8D9BB2012B40F08A80BB6B13F5803F26
:1053000037D17B681B681A687B681B6822F480624F
:105310001A607B681B685B6803F40063B3F5006F79
:1053200013D17B681B681A687B681B6822F4806253
:105330001A6000237B627B681B685B697B627B6809
:105340001B689B697B627B6AE7E000233B627B68AA
:105350001B685B693B627B681B689B693B623B6ABD
:105360007B681B681A687B681B6842F400721A60CD
:10537000D3E0BB6B082B2ED0BB6B202B2BD07B6BD1
:10538000122B02D1BB6B012B25D1BB6B042B0ED092
:10539000BB6B022B0BD0BB6B102B08D07B681B6840
:1053A0001A687B681B6822F480621A6007E07B68D9
:1053B0001B681A687B681B6842F480621A600023CD
:1053C000FB617B681B685B69FB617B681B689B6991
:1053D000FB61FB69A1E07B681B681A687B681B683E
:1053E00022F480621A600023BB617B681B685B69E2
:1053F000BB617B681B689B69BB61BB697B681B6881
:105400001A687B681B6842F400721A6085E07B684A
:105410005B8D9BB2022B4DD1BB6B042B16D0BB6BAB
:10542000022B13D0BB6B102B10D07B681B681A6843
:105430007B681B6822F480621A607B681B681A68AC
:105440007B681B6842F400621A6007E07B681B6897
:105450001A687B681B6842F480621A607B681B686C
:105460005B6803F40063B3F5006F17D1BB6B13F5F2
:10547000803F0BD0BB6B012B08D0BB6B082B05D03A
:10548000BB6B102B02D0BB6B202B07D17B681B683A
:105490005A687B681B6842F480525A6000237B6123
:1054A0007B681B685B697B617B681B689B697B61B0
:1054B0007B6932E07B681B681A687B681B6842F472
:1054C00080621A607B681B685B6803F40063B3F555
:1054D000006F17D1BB6B13F5803F0BD0BB6B012B5B
:1054E00008D0BB6B082B05D0BB6B102B02D0BB6B5D
:1054F000202B07D17B681B685A687B681B6842F4C5
:1055000080525A6000233B617B681B685B693B618A
:105510007B681B689B693B613B697B6800221A655D
:105520000BE00023FB607B681B685B69FB607B68AA
:105530001B689B69FB60FB68FFE700BF4437BD4603
:105540005DF8047B704780B584B000AF78607B68FD
:1055500093F83D30FB737B685B8D9BB2002B2BD0A7
:105560007B685B6A1A787B681B681A617B685B6A78
:105570005A1C7B685A627B685B8D9BB2013B9AB276
:105580007B685A857B685B8D9BB2002B14D1FB7BBB
:10559000292B11D17B681B685A687B681B6822F431
:1055A00080625A607B6821221A637B68282283F814
:1055B0003D207868FFF7FBF900BF1037BD4680BD7E
:1055C00080B483B000AF78607B685B8D9BB2002BAA
:1055D00011D07B685B6A1A787B681B681A617B68EC
:1055E0005B6A5A1C7B685A627B685B8D9BB2013B8D
:1055F0009AB27B685A8500BF0C37BD465DF8047BC4
:10560000704780B584B000AF78607B6893F83D3018
:10561000FB737B685B8D9BB2002B2CD07B681B6877
:105620001A697B685B6AD2B21A707B685B6A5A1C23
:105630007B685A627B685B8D9BB2013B9AB27B6848
:105640005A857B685B8D9BB2002B14D1FB7B2A2B88
:1056500011D17B681B685A687B681B6822F48062E2
:105660005A607B6822221A637B68282283F83D20D7
:105670007868FFF7A6F900BF1037BD4680BD80B43B
:1056800083B000AF78607B685B8D9BB2002B12D03B
:105690007B681B681A697B685B6AD2B21A707B6888
:1056A0005B6A5A1C7B685A627B685B8D9BB2013BCC
:1056B0009AB27B685A8500BF0C37BD465DF8047B03
:1056C000704780B584B000AF786039600023FB7309
:1056D0007B6893F83D30DBB203F02803282B27D1F9
:1056E0007B681B685A687B681B6822F480625A607A
:1056F0003B689B0803F00103002B01D10123FB73DE
:105700003B68DB0903F00103002B03D17B68DB68F6
:10571000BB8102E07B689B69BB817B68002283F8C8
:105720003C20BA89FB7B19467868FFF754F90EE0F4
:105730000023BB607B681B685B69BB607B681B6880
:105740009B69BB60BB687B68002283F83C2000BF7C
:105750001037BD4680BD000080B584B000AF7860D2
:105760007B6893F83D30FB737B681B685A687B68E5
:105770001B6822F4E0625A600023BB607B681B68F0
:105780005B69BB607B681B681A687B681B6842F0BA
:1057900001021A60BB687B681B681A687B681B681B
:1057A00022F480621A607B681B685B6803F4006304
:1057B000B3F5006F72D1FB7B222B02D0FB7B2A2B2F
:1057C00035D17B689B6B1B685B689AB27B685A8596
:1057D0007B685B8D9BB2002B05D07B681B6C43F014
:1057E00004027B681A647B681B685A687B681B68C4
:1057F00022F400625A607B689B6B1846FEF7E0F962
:105800000346012B49D07B689B6B694A1A657B680C
:105810009B6B1846FEF728F80346002B3DD07B68AB
:105820009B6B1B6D7A68926B1046984735E07B68DE
:105830005B6B1B685B689AB27B685A857B685B8D83
:105840009BB2002B05D07B681B6C43F004027B6885
:105850001A647B681B685A687B681B6822F40062C4
:105860005A607B685B6B1846FEF7AAF90346012B6A
:1058700014D07B685B6B4E4A1A657B685B6B18467D
:10588000FDF7F2FF0346002B08D07B685B6B1B6DB6
:105890007A68526B1046984700E000BF7B685B8DCA
:1058A0009BB2002B3ED07B681B685B6903F004034E
:1058B000042B12D17B681B681A697B685B6AD2B2C1
:1058C0001A707B685B6A5A1C7B685A627B685B8DC6
:1058D0009BB2013B9AB27B685A857B681B685B6907
:1058E00003F04003402B12D17B681B681A697B6868
:1058F0005B6AD2B21A707B685B6A5A1C7B685A6218
:105900007B685B8D9BB2013B9AB27B685A857B6852
:105910005B8D9BB2002B05D07B681B6C43F00402AF
:105920007B681A647B681B6C002B03D0786800F0DE
:1059300043F839E0FB7B2A2B09D17B6800221A63EC
:105940007B68282283F83D207868FFF73AF87B6867
:1059500093F83D30DBB2282B11D17B68154ADA620F
:105960007B6800221A637B68202283F83D207B68D5
:10597000002283F83E207868FFF73BF814E07B684C
:105980001B6B222B02D0FB7B222B0DD17B680022CC
:105990001A637B68202283F83D207B68002283F80D
:1059A0003E207868FFF70DF800BF1037BD4680BD78
:1059B0001D5C00080000FFFF80B584B000AF786078
:1059C0007B6893F83D30FB737B6893F83E30BB7384
:1059D000BB7B102B02D0BB7B402B0AD1FB7B222B45
:1059E00007D17B681B681A687B681B6822F4006219
:1059F0001A60FB7B03F02803282B07D17B68002269
:105A00001A637B68282283F83D2015E07B681B68B9
:105A10005B6803F40063B3F5006F0AD0FB7B602B77
:105A200007D07B68202283F83D207B68002283F822
:105A30003E207B6800221A637B681B685B6803F466
:105A40000063B3F5006F62D17B681B685A687B689E
:105A50001B6822F400625A607B685B6B93F83530F8
:105A6000DBB2012B20D07B685B6B6A4A1A657B68CE
:105A70005B6B1846FDF7F8FE0346002B00F08980AB
:105A80007B681B681A687B681B6822F001021A6039
:105A90007B68202283F83D207B685B6B1B6D7A68F6
:105AA000526B1046984774E07B689B6B594A1A65A5
:105AB0007B689B6B1846FDF7D7FE0346002B68D02A
:105AC0007B681B685B6903F04003402B0BD17B684C
:105AD0001B681A697B685B6AD2B21A707B685B6A62
