:020000040800F2
:1000000000000220B93F0008C13A0008C73A0008C2
:10001000CD3A0008D33A0008D93A000800000000A1
:10002000000000000000000000000000DF3A0008AF
:10003000ED3A000800000000FB3A0008093B000808
:10004000094000080940000809400008094000086C
:10005000094000080940000809400008094000085C
:10006000094000080940000809400008094000084C
:10007000094000080940000809400008094000083C
:10008000094000080940000809400008094000082C
:10009000094000080940000809400008094000081C
:1000A000094000080940000809400008094000080C
:1000B000153B00080940000809400008293B0008DA
:1000C0000940000809400008094000083D3B0008BD
:1000D00009400008513B0008653B00080940000842
:1000E00009400008094000080940000809400008CC
:1000F00009400008094000080940000809400008BC
:1001000009400008094000080940000809400008AB
:10011000094000080940000809400008094000089B
:10012000793B000809400008094000080940000820
:10013000094000080940000809400008094000087B
:10014000094000080940000809400008094000086B
:10015000094000080940000809400008094000085B
:10016000094000080940000809400008094000084B
:10017000094000080940000809400008000000008C
:080180000940000809400008D5
:1001900010B5054C237833B9044B13B10448AFF3C1
:1001A00000800123237010BDE0010020000000004A
:1001B000ACD9000808B5034B1BB103490348AFF3A2
:1001C000008008BD00000000E4010020ACD9000858
:1001D000034613F8012B002AFBD1181A0138704787
:1001E00001F0FF01102A2BDB10F0070F08D010F8E8
:1001F000013B013A8B422DD010F0070F42B3F6D1EC
:10020000F0B441EA012141EA014122F007047FF004
:1002100000070023F0E80256083C85EA010586EA5B
:10022000010685FA47F5A3FA87F586FA47F6A5FA97
:1002300087F68EB9EED1F0BC01F0FF0102F00702A3
:1002400032B110F8013B013A83EA010313B1F8D14E
:100250000020704701387047002D06BF354603382F
:10026000073815F0010F07D1013015F4807F02BF68
:10027000013015F4C03F0130F0BC0138704700BFB9
:1002800081F0004102E000BF83F0004330B54FEA47
:1002900041044FEA430594EA050F08BF90EA020FB4
:1002A0001FBF54EA000C55EA020C7FEA645C7FEA47
:1002B000655C00F0E2804FEA5454D4EB5555B8BF6A
:1002C0006D420CDD2C4480EA020281EA030382EADB
:1002D000000083EA010180EA020281EA0303362D6D
:1002E00088BF30BD11F0004F4FEA01314FF4801C40
:1002F0004CEA113102D0404261EB410113F0004F52
:100300004FEA03334CEA133302D0524263EB430308
:1003100094EA050F00F0A780A4F10104D5F1200EA6
:100320000DDB02FA0EFC22FA05F2801841F1000101
:1003300003FA0EF2801843FA05F359410EE0A5F1D5
:1003400020050EF1200E012A03FA0EFC28BF4CF006
:10035000020C43FA05F3C01851EBE37101F00045BC
:1003600007D54FF0000EDCF1000C7EEB00006EEBC9
:100370000101B1F5801F1BD3B1F5001F0CD3490853
:100380005FEA30004FEA3C0C04F101044FEA4452AA
:1003900012F5800F80F09A80BCF1004F08BF5FEA31
:1003A000500C50F1000041EB045141EA050130BD11
:1003B0005FEA4C0C404141EB0101013C28BFB1F523
:1003C000801FE9D291F0000F04BF01460020B1FA6E
:1003D00081F308BF2033A3F10B03B3F120020CDA41
:1003E0000C3208DD02F1140CC2F10C0201FA0CF01F
:1003F00021FA02F10CE002F11402D8BFC2F1200C84
:1004000001FA02F120FA0CFCDCBF41EA0C01904039
:10041000E41AA2BF01EB0451294330BD6FEA040482
:100420001F3C1CDA0C340EDC04F11404C4F120026D
:1004300020FA04F001FA02F340EA030021FA04F37F
:1004400045EA030130BDC4F10C04C4F1200220FAD6
:1004500002F001FA04F340EA0300294630BD21FA14
:1004600004F0294630BD94F0000F83F4801306BFDA
:1004700081F480110134013D4EE77FEA645C18BFCE
:100480007FEA655C29D094EA050F08BF90EA020F65
:1004900005D054EA000C04BF1946104630BD91EA5D
:1004A000030F1EBF0021002030BD5FEA545C05D160
:1004B0004000494128BF41F0004130BD14F580049F
:1004C0003CBF01F5801130BD01F0004545F0FE4113
:1004D00041F470014FF0000030BD7FEA645C1ABF48
:1004E000194610467FEA655C1CBF0B46024650EA7F
:1004F000013406BF52EA033591EA030F41F40021AB
:1005000030BD00BF90F0000F04BF0021704730B530
:100510004FF4806404F132044FF000054FF0000105
:1005200050E700BF90F0000F04BF0021704730B5C6
:100530004FF4806404F1320410F0004548BF40429B
:100540004FF000013EE700BF42004FEAE2014FEAF0
:1005500031014FEA02701FBF12F07F4393F07F4FCB
:1005600081F06051704732F07F4208BF704793F0CE
:100570007F4F04BF41F40021704730B54FF46074E1
:1005800001F0004521F000411CE700BF50EA0102E4
:1005900008BF704730B54FF000050AE050EA01028D
:1005A00008BF704730B511F0004502D5404261EBFD
:1005B00041014FF4806404F132045FEA915C3FF43E
:1005C000D8AE4FF003025FEADC0C18BF03325FEADB
:1005D000DC0C18BF033202EBDC02C2F1200300FA8C
:1005E00003FC20FA02F001FA03FE40EA0E0021FAB1
:1005F00002F11444BDE600BF70B54FF0FF0C4CF49F
:10060000E06C1CEA11541DBF1CEA135594EA0C0F50
:1006100095EA0C0F00F0DEF82C4481EA030621EA8B
:100620004C5123EA4C5350EA013518BF52EA0335C6
:1006300041F4801143F4801338D0A0FB02CE4FF078
:100640000005E1FB02E506F00042E0FB03E54FF0A8
:100650000006E1FB03569CF0000F18BF4EF0010EA0
:10066000A4F1FF04B6F5007F64F5407404D25FEA9C
:100670004E0E6D4146EB060642EAC62141EA55514F
:100680004FEAC52040EA5E504FEACE2EB4F1FD0C91
:1006900088BFBCF5E06F1ED8BEF1004F08BF5FEA0F
:1006A000500E50F1000041EB045170BD06F00046C1
:1006B00046EA010140EA020081EA0301B4EB5C046E
:1006C000C2BFD4EB0C0541EA045170BD41F4801166
:1006D0004FF0000E013C00F3AB8014F1360FDEBF8B
:1006E000002001F0004170BDC4F10004203C35DA67
:1006F0000C341BDC04F11404C4F1200500FA05F3EA
:1007000020FA04F001FA05F240EA020001F000428A
:1007100021F0004110EBD37021FA04F642EB060100
:100720005EEA430E08BF20EAD37070BDC4F10C042A
:10073000C4F1200500FA04F320FA05F001FA04F2EE
:1007400040EA020001F0004110EBD37041F10001DA
:100750005EEA430E08BF20EAD37070BDC4F12005E5
:1007600000FA05F24EEA020E20FA04F301FA05F24D
:1007700043EA020321FA04F001F0004121FA04F2F5
:1007800020EA020000EBD3705EEA430E08BF20EAC5
:10079000D37070BD94F0000F0FD101F000464000FF
:1007A00041EB010111F4801F08BF013CF7D041EA81
:1007B000060195F0000F18BF704703F00046520085
:1007C00043EB030313F4801F08BF013DF7D043EA56
:1007D0000603704794EA0C0F0CEA135518BF95EA0C
:1007E0000C0F0CD050EA410618BF52EA4306D1D193
:1007F00081EA030101F000414FF0000070BD50EAB2
:10080000410606BF1046194652EA430619D094EA3B
:100810000C0F02D150EA013613D195EA0C0F05D125
:1008200052EA03361CBF104619460AD181EA030179
:1008300001F0004141F0FE4141F470014FF0000031
:1008400070BD41F0FE4141F4780170BD70B54FF0CC
:10085000FF0C4CF4E06C1CEA11541DBF1CEA13554C
:1008600094EA0C0F95EA0C0F00F0A7F8A4EB05042E
:1008700081EA030E52EA03354FEA013100F0888025
:100880004FEA03334FF0805545EA131343EA1263EE
:100890004FEA022245EA111545EA10654FEA0026A3
:1008A0000EF000419D4208BF964244F1FD0404F55C
:1008B000407402D25B084FEA3202B61A65EB0305B8
:1008C0005B084FEA32024FF480104FF4002CB6EB75
:1008D000020E75EB030E22BFB61A754640EA0C00F5
:1008E0005B084FEA3202B6EB020E75EB030E22BF35
:1008F000B61A754640EA5C005B084FEA3202B6EB76
:10090000020E75EB030E22BFB61A754640EA9C0034
:100910005B084FEA3202B6EB020E75EB030E22BF04
:10092000B61A754640EADC0055EA060E18D04FEAC2
:10093000051545EA16754FEA06164FEAC30343EA62
:1009400052734FEAC2025FEA1C1CC0D111F4801F2F
:100950000BD141EA00014FF000004FF0004CB6E728
:1009600011F4801F04BF01430020B4F1FD0C88BFC7
:10097000BCF5E06F3FF6AFAEB5EB030C04BFB6EBD2
:10098000020C5FEA500C50F1000041EB045170BDC5
:100990000EF0004E4EEA113114EB5C04C2BFD4EBF2
:1009A0000C0541EA045170BD41F480114FF0000E76
:1009B000013C90E645EA060E8DE60CEA135594EAF2
:1009C0000C0F08BF95EA0C0F3FF43BAF94EA0C0FF5
:1009D0000AD150EA01347FF434AF95EA0C0F7FF46A
:1009E00025AF104619462CE795EA0C0F06D152EABE
:1009F00003353FF4FDAE1046194622E750EA4106A2
:100A000018BF52EA43067FF4C5AE50EA41047FF4B2
:100A10000DAF52EA43057FF4EBAE12E74FF0FF3C17
:100A200006E000BF4FF0010C02E000BF4FF0010CE8
:100A30004DF804CD4FEA410C7FEA6C5C4FEA430C61
:100A400018BF7FEA6C5C1BD001B050EA410C0CBFB0
:100A500052EA430C91EA030F02BF90EA020F002012
:100A6000704710F1000F91EA030F58BF994208BF79
:100A700090422CBFD8176FEAE37040F00100704736
:100A80004FEA410C7FEA6C5C02D150EA013C07D18D
:100A90004FEA430C7FEA6C5CD6D152EA033CD3D0D8
:100AA0005DF8040B704700BF8446104662468C46D2
:100AB0001946634600E000BF01B5FFF7B7FF002805
:100AC00048BF10F1000F01BD4DF808EDFFF7F4FF2E
:100AD0000CBF012000205DF808FB00BF4DF808EDB9
:100AE000FFF7EAFF34BF012000205DF808FB00BFDC
:100AF0004DF808EDFFF7E0FF94BF012000205DF8FE
:100B000008FB00BF4DF808EDFFF7CEFF94BF0120B2
:100B100000205DF808FB00BF4DF808EDFFF7C4FFAB
:100B200034BF012000205DF808FB00BF4FEA410CF4
:100B30007FEA6C5C02D150EA013C0AD14FEA430CD7
:100B40007FEA6C5C02D152EA033C02D14FF0000014
:100B500070474FF0010070474FEA410212F5001252
:100B600015D211D56FF47873B3EB625212D94FEAF4
:100B7000C12343F0004343EA505311F0004F23FADE
:100B800002F018BF404270474FF00000704750EA33
:100B9000013005D111F0004008BF6FF000407047F0
:100BA0004FF00000704700BF4FEA4102B2F1E0434E
:100BB00024BFB3F5001CDCF1FE5C0DD901F0004C44
:100BC0004FEAC0024CEA5070B2F1004F40EB830094
:100BD00008BF20F00100704711F0804F21D113F1C0
:100BE0003872BCBF01F00040704741F480114FEAF9
:100BF0005252C2F11802C2F1200C10FA0CF320FA82
:100C000002F018BF40F001004FEAC1234FEAD3239E
:100C100003FA0CFC40EA0C0023FA02F34FEA430308
:100C2000CCE77FEA625307D150EA01331EBF4FF091
:100C3000FE4040F44000704701F0004040F0FE40AC
:100C400040F40000704700BF53B94AB9002908BFFB
:100C500000281CBF4FF0FF314FF0FF3000F06EB99D
:100C6000ADF1080C6DE904CE00F006F8DDF804E003
:100C7000DDE9022304B070472DE9F047089D0446E2
:100C80008C46002B40F083808A42174647D9B2FA3F
:100C900082F242B1C2F1200024FA00F09140974064
:100CA00040EA010C94404FEA1748230CBCFBF8F6CD
:100CB0001FFA87FE08FB16C143EA014306FB0EF14B
:100CC000994209D9FB1806F1FF3080F01981994249
:100CD00040F21681023E3B445B1AA4B2B3FBF8F02B
:100CE00008FB103344EA034400FB0EFEA64509D975
:100CF0003C1900F1FF3380F00581A64540F20281E6
:100D000002383C4440EA0640A4EB0E0400261DB124
:100D1000D4400023C5E900433146BDE8F08702B95D
:100D2000FFDEB2FA82F2002A50D1CB1B4FEA174EF7
:100D30001FFA87F80126B3FBFEFC210C0EFB1C33C7
:100D400041EA034108FB0CF38B4207D979180CF1F7
:100D5000FF3002D28B4200F2E9808446C91AA3B266
:100D6000B1FBFEF00EFB101143EA014408FB00F852
:100D7000A04507D93C1900F1FF3302D2A04500F28B
:100D8000D9801846A4EB080440EA0C40BFE78B4228
:100D900009D9002D00F0B1800026C5E900013046D8
:100DA0003146BDE8F087B3FA83F6002E4AD18B4274
:100DB00002D3824200F2B880841A61EB0301012061
:100DC0008C46002DA8D0C5E9004CA5E7C2F1200350
:100DD00020FA03F6974001FA02F04FEA174ED94085
:100DE0003043030CB1FBFEF61FFA87F80EFB161119
:100DF00043EA014306FB08F1994204FA02F409D9D7
:100E0000FB1806F1FF3C80F08D80994240F28A8009
:100E1000023E3B445B1A81B2B3FBFEF00EFB103383
:100E200041EA034100FB08F38B4207D9791800F12E
:100E3000FF3C73D28B4271D902383944CB1A40EA55
:100E4000064678E7C6F1200C03FA06F422FA0CF302
:100E50001C4320FA0CF701FA06F34FEA144E21FA6C
:100E60000CF11F433B0CB1FBFEF91FFA84F80EFB9B
:100E7000191143EA014109FB08FA8A4502FA06F210
:100E800000FA06F308D9611809F1FF3048D28A4503
:100E900046D9A9F102092144A1EB0A01BFB2B1FB75
:100EA000FEF00EFB101147EA014700FB08F8B845B9
:100EB00007D9E71900F1FF312ED2B8452CD90238F5
:100EC000274440EA0940A7EB0807A0FB02894F45E9
:100ED000C64649461AD317D05DB1B3EB0E0267EB95
:100EE000010707FA0CFCF2404CEA0202F740C5E9A0
:100EF000002700263146BDE8F0872E4628460BE73E
:100F00000646E9E61846FDE64345E5D2B8EB020E93
:100F100069EB04010138DFE70846D2E760468DE758
:100F20008146B9E7664675E730464AE7ACF1020C00
:100F3000394413E702383C4424E700BF704700BF40
:100F400080B500AF024803F0F7F800BF80BD00BFD6
:100F5000EC02002080B500AF04220349034803F0EF
:100F60002FF900BF80BD00BF34030020EC02002039
:100F700080B400AF034B1B681846BD465DF8047B88
:100F8000704700BF3403002080B400AF034B5B68A0
:100F90001846BD465DF8047B704700BF340300204F
:100FA00080B500AF1A4B9B6807EE903AF8EE677A6F
:100FB00017EE900AFFF7C8FA11A3D3E90023FFF751
:100FC0001BFB02460B46104619464FF00002114B20
:100FD000FFF712FB02460B46104619460AA3D3E957
:100FE0000023FFF733FC02460B4610461946FFF775
:100FF000DBFD034607EE903AB0EE670A80BD00BF06
:101000006666666666660A40CDCCCCCCAC08B94054
:10101000340300200000284080B500AF244BDB687B
:1010200007EE903AF8EE677A17EE900AFFF78CFA1F
:101030001BA3D3E90023FFF7DFFA02460B46104655
:10104000194619A3D3E90023FFF700FC02460B461B
:10105000104619464FF00002164BFFF715F90246ED
:101060000B46104619464FF00002134BFFF7C4FA27
:1010700002460B46104619464FF000020D4BFFF793
:10108000E5FB02460B4610461946FFF78DFD034669
:1010900007EE903AB0EE670A80BD00BFAFF3008064
:1010A0006666666666660A4048E17A14EEB2A44057
:1010B0003403002000000440000014402DE9F041FA
:1010C0009EB004AF3C4B1B785A1C3C4B83FB021375
:1010D000D910D317C91A0B469B000B449B00D11A99
:1010E000CAB2354B1A70344B1B78002B5FD1FFF717
:1010F00031FFFFF73DFF0646FFF746FF8046FFF74B
:101100004FFF10EE103A1846FFF71EFA04460D4640
:10111000FFF782FF10EE103A1846FFF715FA024665
:101120000B46381DCDE90223CDE900454346324642
:1011300023490AF00FFA03469AB2391D0A232148BF
:1011400008F021FDFFF72CFF10EE103A1846FFF7CC
:10115000FBF904460D46FFF75FFFF0EE407A9FED86
:101160001A7A67EE877A17EE900AFFF7EDF90246D2
:101170000B46381DCDE9002322462B4613490AF0C1
:10118000E9F9134B1A880023009378236421002087
:1011900000F0F2FA3A1D01230293102301931F235A
:1011A00000934FF6FF736421002001F04FFA00BF57
:1011B0006837BD46BDE8F081FC01002067666666C1
:1011C000C8D900088C03002000007A4404DA000823
:1011D0009805002080B500AF044806F0D9FC012234
:1011E0000821034804F078FA00BF80BD30040020D5
:1011F000000C024080B582B000AF002208212A48CE
:1012000004F06AFA01220821274804F065FA012354
:1012100001222649264806F080FE8023FB71002328
:101220003B6038E0FB790F2B17D9204B1A78FB79FC
:101230001340DBB2002B06D03B68C3F103031D4A09
:101240000021D15421E03B68C3F10303194AD25C69
:101250000132D1B2174AD15417E0144B1A78FB79F6
:101260001340DBB2002B05D0124A3B681344002226
:101270001A700AE00F4A3B6813441B780133D9B255
:101280000C4A3B6813440A461A70FB795B08FB71F1
:101290003B6801333B603B68072BC3DD00BF00BFE9
:1012A0000837BD4680BD00BF000C02400802002088
:1012B000300400200002002080B582B000AF00237F
:1012C0007B6016E00F4A7B6813441B78002B0DD01F
:1012D0007B6801331A460C490C480AF03BF9034677
:1012E0009AB2642309490A4808F04DFC7B6801332F
:1012F0007B607B68072BE5DD00BF00BF0837BD467C
:1013000080BD00BF000200201CDA00081405002088
:101310008C03002080B500AF454B1B78032B00F2F7
:10132000828001A252F823F0391300084913000803
:1013300091130008D91300083E4B1B78212B74D160
:101340003B4B01221A7070E03A4B1B783A2B0FD1BD
:10135000394B1B78184602F00BFE03461A46374BF2
:101360009A70354B00221A70314B02221A705DE0E0
:10137000314B1B781A46920013445B00DAB22D4BB6
:101380001B781344DBB2303BDAB22B4B1A704DE0C2
:10139000284B1B783A2B0FD1274B1B78184602F0AD
:1013A000E7FD03461A46254B5A70234B00221A705C
:1013B0001F4B03221A7039E01F4B1B781A4692000C
:1013C00013445B00DAB21B4B1B781344DBB2303B97
:1013D000DAB2194B1A7029E0164B1B78232B12D165
:1013E000154B1B78184602F0C3FD03461A46134BF3
:1013F0001A70114B00221A70114B01221A700C4BFB
:1014000000221A7012E00C4B1B781A46920013440B
:101410005B00DAB2074B1B781344DBB2303BDAB225
:10142000054B1A7002E000BF00E000BF00BF80BDA6
:1014300009020020450200200B0200207805002050
:101440000A02002080B400AF00BFBD465DF8047BF7
:101450007047000080B500AF1B4B1B781B4AA2FBF6
:101460000323DB08DBB20121184601F065FA164BB5
:101470001A78164BA3FB0213D9080B469B000B44AA
:101480005B00D31ADBB20221184601F055FA0E4B6D
:101490005B780E4AA2FB0323DB08DBB2032118466C
:1014A00001F04AFA084B5A78084BA3FB0213D908FB
:1014B0000B469B000B445B00D31ADBB20421184699
:1014C00001F03AFA00BF80BD90050020CDCCCCCC15
:1014D00080B582B002AF114B1B785A1C104B83FBB6
:1014E0000213D910D317C91A0B469B000B449B005B
:1014F000D11ACAB2094B1A70084B1B78002B09D1BC
:1015000007230193074B009301230022D0210648B3
:1015100004F05AFA00BFBD4680BD00BF0C02002097
:1015200067666666880500205002002080B582B09C
:1015300000AF78607B681B68224A93423ED1224B01
:101540001B78184602F0FAFC03461A461F4B9A70A5
:101550001D4B5B78184602F0F1FC03461A461B4B04
:101560005A70194B9B78184602F0E8FC03461A465D
:10157000164B1A70144BDB78184602F0DFFC03465A
:101580001A46124B1A71104B1B79184602F0D6FC02
:1015900003461A460D4BDA700B4B5B79184602F086
:1015A000CDFC03461A46094B5A71074B9B791846E6
:1015B00002F0C4FC03461A46044B9A7100BF083778
:1015C000BD4680BD005400408805002090050020E5
:1015D00080B400AF034B1B781846BD465DF8047B12
:1015E000704700BF9005002080B400AF034B5B78CC
:1015F0001846BD465DF8047B704700BF900500208B
:1016000080B400AF034B9B781846BD465DF8047B61
:10161000704700BF9005002080B483B000AF034640
:10162000FB80044AFB88138000BF0C37BD465DF881
:10163000047B7047FEFF0F6080B483B000AF0346A9
:10164000FB80044AFB88538000BF0C37BD465DF821
:10165000047B7047FEFF0F6080B483B000AF064B81
:101660005B889BB2FB80FB889BB218460C37BD465B
:101670005DF8047B704700BFFEFF0F6090B583B03C
:1016800000AF0446084611461A462346FB8003462F
:10169000BB800B467B8013463B802A20FFF7BCFFB4
:1016A000FB881B0A9BB21846FFF7C6FFFB88DBB21C
:1016B0009BB21846FFF7C0FF7B881B0A9BB21846F7
:1016C000FFF7BAFF7B88DBB29BB21846FFF7B4FF87
:1016D0002B20FFF7A1FFBB881B0A9BB21846FFF720
:1016E000ABFFBB88DBB29BB21846FFF7A5FF3B8878
:1016F0001B0A9BB21846FFF79FFF3B88DBB29BB2E9
:101700001846FFF799FF2C20FFF786FF00BF0C3724
:10171000BD4690BD80B584B000AF0346FB80154B3D
:101720001B88013B9AB2134B5B88013B9BB20021A3
:101730000020FFF7A3FF0023FB8111E00023BB8102
:1017400006E0FB881846FFF777FFBB890133BB81B2
:10175000084B5B88BA899A42F3D3FB890133FB813A
:10176000044B1B88FA899A42E8D300BF00BF1037A8
:10177000BD4680BD9805002090B585B000AF0446F9
:10178000084611461A462346FB800346BB800B469B
:101790007B8013463B807B88013B9AB23B88013BB0
:1017A0009BB2B988F888FFF769FFBB88FB8110E01E
:1017B000FB88BB8106E03B8C1846FFF73DFFBB89E9
:1017C0000133BB81BA897B889A42F4D3FB89013308
:1017D000FB81FA893B889A42EAD300BF00BF1437E5
:1017E000BD4690BD80B582B000AF0346FB800B467E
:1017F000BB8013467B80BB88FA88B988F888FFF7DE
:101800003DFF7B881846FFF717FF00BF0837BD462E
:1018100080BD000090B589B000AFBA601A4603469B
:10182000FB810B46BB811346FB8000237B77FB8942
:101830003B8397F83430DB08DBB21A4697F8343034
:1018400003F00703DBB2002B14BF01230023DBB23C
:1018500013449AB297F834309BB212FB03F3FB8225
:101860000523BB8200237B839DE07B8B534A1A2197
:1018700001FB03F313441A78BB681B789A4240F0CB
:101880008F807B8B4D4A1A2101FB03F313440133F4
:101890001A78BB6801331B789A4240F0818097F830
:1018A00034309AB2FB8913449BB2013B9CB297F847
:1018B00034309AB2BB8913449BB2013B9BB2B989C5
:1018C000F8892246FFF7DAFE0023FB7763E0002366
:1018D000BB775AE097F83830002B2BD17A8BFB7FFF
:1018E00036491A2000FB02F20A44134402331B78E3
:1018F0001A46BB7F42FA03F303F00103002B04D026
:10190000FB881846FFF798FE03E03B8E1846FFF76A
:1019100093FE7B7F01337B777B7F97F83420B3FB8B
:10192000F2F102FB01F29B1ADBB2002B2AD1002359
:101930007B772DE07A8BFB7F20491A2000FB02F297
:101940000A44134402331B781A46BB7F42FA03F35E
:1019500003F00103002B05D0FA88B989FB891846EA
:10196000FFF740FFFB890133FB81FA893B8BD21AD9
:1019700097F834309A4205D13B8BFB81BB89013308
:10198000BB8105E0BB7F0133BB77BB7F072BA1D9B0
:10199000FB7F0133FB77FB7F9BB2FA8A9A4296D892
:1019A0007B8B01337B837A8BBB8A9A42FFF45DAFDA
:1019B00000BF00BF2437BD4690BD00BF780E0108B0
:1019C00090B589B000AFBA601A460346FB810B465A
:1019D000BB811346FB8000237B77FB893B8397F811
:1019E0003430DB08DBB21A4697F8343003F00703D3
:1019F000DBB2002B14BF01230023DBB213449AB2E5
:101A000097F834309BB212FB03F3FB822B23BB828B
:101A100000237B83A1E07A8B554913461B011344B5
:101A20005B000B441A78BB681B789A4240F09280A6
:101A30007A8B4F4913461B0113445B000B4401335F
:101A40001A78BB6801331B789A4240F0838097F87C
:101A500034309AB2FB8913449BB2013B9CB297F895
:101A600034309AB2BB8913449BB2013B9BB2B98913
:101A7000F8892246FFF702FE0023FB7765E000238A
:101A8000BB775CE097F83830002B2CD17A8BF97F4C
:101A9000374813461B0113445B0003440B440233D5
:101AA0001B781A46BB7F42FA03F303F00103002BB5
:101AB00004D0FB881846FFF7BFFD03E03B8E1846B5
:101AC000FFF7BAFD7B7F01337B777B7F97F834206C
:101AD000B3FBF2F102FB01F29B1ADBB2002B2BD11C
:101AE00000237B772EE07A8BF97F214813461B0178
:101AF00013445B0003440B4402331B781A46BB7F3C
:101B000042FA03F303F00103002B05D0FA88B989E8
:101B1000FB891846FFF766FEFB890133FB81FA89D2
:101B20003B8BD21A97F834309A4205D13B8BFB811C
:101B3000BB890133BB8105E0BB7F0133BB77BB7F32
:101B4000072B9FD9FB7F0133FB77FB7F9BB2FA8A80
:101B50009A4294D87B8B01337B837A8BBB8A9A42DF
:101B6000FFF459AF00BF00BF2437BD4690BD00BF92
:101B7000FC0E010890B589B000AFBA601A46034662
:101B8000FB810B46BB811346FB8000237B77FB89DF
:101B90003B8397F83430DB08DBB21A4697F83430D1
:101BA00003F00703DBB2002B14BF01230023DBB2D9
:101BB00013449AB297F834309BB212FB03F3FB82C2
:101BC0000523BB8200237B839DE07B8B534A4A2104
:101BD00001FB03F313441A78BB681B789A4240F068
:101BE0008F807B8B4D4A4A2101FB03F31344013361
:101BF0001A78BB6801331B789A4240F0818097F8CD
:101C000034309AB2FB8913449BB2013B9CB297F8E3
:101C100034309AB2BB8913449BB2013B9BB2B98961
:101C2000F8892246FFF72AFD0023FB7763E00023B3
:101C3000BB775AE097F83830002B2BD17A8BFB7F9B
:101C400036494A2000FB02F20A44134402331B784F
:101C50001A46BB7F42FA03F303F00103002B04D0C2
:101C6000FB881846FFF7E8FC03E03B8E1846FFF7B9
:101C7000E3FC7B7F01337B777B7F97F83420B3FBDA
:101C8000F2F102FB01F29B1ADBB2002B2AD10023F6
:101C90007B772DE07A8BFB7F20494A2000FB02F204
:101CA0000A44134402331B781A46BB7F42FA03F3FB
:101CB00003F00103002B05D0FA88B989FB89184687
:101CC000FFF790FDFB890133FB81FA893B8BD21A28
:101CD00097F834309A4205D13B8BFB81BB890133A5
:101CE000BB8105E0BB7F0133BB77BB7F072BA1D94D
:101CF000FB7F0133FB77FB7F9BB2FA8A9A4296D82F
:101D00007B8B01337B837A8BBB8A9A42FFF45DAF76
:101D100000BF00BF2437BD4690BD00BFB41401080A
:101D200090B589B000AFBA601A460346FB810B46F6
:101D3000BB811346FB8000237B77FB893B8397F8AD
:101D40003430DB08DBB21A4697F8343003F007036F
:101D5000DBB2002B14BF01230023DBB213449AB281
:101D600097F834309BB212FB03F3FB820523BB824E
:101D700000237B83A1E07A8B554913469B011344D2
:101D80005B000B441A78BB681B789A4240F0928043
:101D90007A8B4F4913469B0113445B000B4401337C
:101DA0001A78BB6801331B789A4240F0838097F819
:101DB00034309AB2FB8913449BB2013B9CB297F832
:101DC00034309AB2BB8913449BB2013B9BB2B989B0
:101DD000F8892246FFF752FC0023FB7765E00023D9
:101DE000BB775CE097F83830002B2CD17A8BF97FE9
:101DF000374813469B0113445B0003440B440233F2
:101E00001B781A46BB7F42FA03F303F00103002B51
:101E100004D0FB881846FFF70FFC03E03B8E184602
:101E2000FFF70AFC7B7F01337B777B7F97F83420B9
:101E3000B3FBF2F102FB01F29B1ADBB2002B2BD1B8
:101E400000237B772EE07A8BF97F214813469B0194
:101E500013445B0003440B4402331B781A46BB7FD8
:101E600042FA03F303F00103002B05D0FA88B98985
:101E7000FB891846FFF7B6FCFB890133FB81FA8921
:101E80003B8BD21A97F834309A4205D13B8BFB81B9
:101E9000BB890133BB8105E0BB7F0133BB77BB7FCF
:101EA000072B9FD9FB7F0133FB77FB7F9BB2FA8A1D
:101EB0009A4294D87B8B01337B837A8BBB8A9A427C
:101EC000FFF459AF00BF00BF2437BD4690BD00BF2F
:101ED0002816010890B587B000AF044608461146A1
:101EE0001A462346FB800346BB800B46FB70134615
:101EF0003B8000237B75FB883B8297F82C305B0886
:101F0000FB73FB7BDB08DBB21A46FB7B03F00703AA
:101F1000DBB2002B14BF01230023DBB213449AB2BF
:101F200097F82C309BB212FB03F3BB81FB78203B6C
:101F3000FB70FB7B9AB2FB8813449BB2013B9CB2C3
:101F400097F82C309AB2BB8813449BB2013B9BB2EA
:101F5000B988F8882246FFF791FB00237B8286E050
:101F600097F82C300C2B0BD1FA78798A4548134618
:101F70005B0013449B0003440B441B78FB7528E073
:101F800097F82C30102B08D1FA787B8A3E49120141
:101F90000A4413441B78FB751BE097F82C30182B70
:101FA0000BD1FA78798A394813465B0013441B0138
:101FB00003440B441B78FB750BE097F82C30202B67
:101FC0005BD1FA787B8A324992010A4413441B7828
:101FD000FB750023BB7544E097F83030002B20D10F
:101FE000FA7DBB7D42FA03F303F00103002B04D01A
:101FF0003B881846FFF720FB03E03B8D1846FFF7B0
:102000001BFB7B7D01337B757B7DFA7BB3FBF2F1A0
:1020100002FB01F29B1ADBB2002B1FD100237B7560
:1020200022E0FA7DBB7D42FA03F303F00103002BAB
:1020300005D03A88B988FB881846FFF7D3FBFB88A0
:102040000133FB80FA883B8AD21AFB7B9A4205D186
:102050003B8AFB80BB880133BB8005E0BB7D01333D
:10206000BB75BB7D072BB7D97B8A01337B827A8A0C
:10207000BB899A42FFF474AF00E000BF1C37BD4635
:1020800090BD00BF84DA0008F8DE0008E8E400082C
:10209000B8F6000890B589B004AFBA601A46034696
:1020A000FB810B46BB811346FB801AE0BB681A78A4
:1020B000FC88B989F88997F82830029397F824307A
:1020C00001933B8C00932346FFF704FF97F82430DD
:1020D0005B08DBB29AB2FB891344FB81BB68013316
:1020E000BB60BB681B78002BE0D100BF00BF14377A
:1020F000BD4690BD90B587B000AF04460846114676
:102100001A462346FB800346BB800B467B80134662
:102110003B8000233B61FA887B8813449BB2013BE0
:102120009CB2BA883B8813449BB2013B9BB2B988EE
:10213000F8882246FFF7A2FA0023FB8227E000235B
:10214000BB821DE03B695B00BA6A13441B78FB73DA
:102150003B695B000133BA6A13441B78BB73FB7B9A
:102160001B021AB2BB7B1BB213431BB29BB21846B5
:10217000FFF762FA3B6901333B61BB8A0133BB82E3
:10218000BA8A3B889A42DDD3FB8A0133FB82FA8A02
:102190007B889A42D3D300BF00BF1C37BD4690BD99
:1021A00080B483B000AF0346FB71FB791B09DBB23F
:1021B00003F00303DBB2002B07D00A4B4FF4A072ED
:1021C0001A80084BF0225A8006E0064BF0221A8053
:1021D000044B4FF4A0725A8000BF0C37BD465DF827
:1021E000047B70479805002080B500AF00224FF4B3
:1021F0000051AA4803F070FA4FF4FA7001F078FF2A
:1022000001224FF40051A54803F066FA4FF4FA702A
:1022100001F06EFF0020FFF7C3FFD320FFF7FCF9AA
:10222000FFF71AFA03461A469D4B9A80FFF714FAF5
:1022300003461A469A4B9A80FFF70EFA03461A464F
:10224000974B9A80964B9B881B029AB2944B9A802C
:10225000FFF702FA03461A46914B9B8813439AB242
:102260008F4B9A80CF20FFF7D7F90020FFF7E4F9D2
:10227000C120FFF7E1F93020FFF7DEF9ED20FFF78D
:10228000CBF96420FFF7D8F90320FFF7D5F9122026
:10229000FFF7D2F98120FFF7CFF9E820FFF7BCF96B
:1022A0008520FFF7C9F91020FFF7C6F97A20FFF75C
:1022B000C3F9CB20FFF7B0F93920FFF7BDF92C2087
:1022C000FFF7BAF90020FFF7B7F93420FFF7B4F9A8
:1022D0000220FFF7B1F9F720FFF79EF92020FFF762
:1022E000ABF9EA20FFF798F90020FFF7A5F90020E5
:1022F000FFF7A2F9C020FFF78FF91B20FFF79CF929
:10230000C120FFF789F90120FFF796F9C520FFF7F3
:1023100083F93020FFF790F93020FFF78DF9C720BF
:10232000FFF77AF9B720FFF787F93620FFF774F93E
:102330000820FFF781F93A20FFF76EF95520FFF7E3
:102340007BF9B120FFF768F90020FFF775F91A2033
:10235000FFF772F9B620FFF75FF90A20FFF76CF973
:10236000A220FFF769F9F220FFF756F90020FFF7E6
:1023700063F92620FFF750F90120FFF75DF9E0200F
:10238000FFF74AF90F20FFF757F92A20FFF754F912
:102390002820FFF751F90820FFF74EF90E20FFF72C
:1023A0004BF90820FFF748F95420FFF745F9A92019
:1023B000FFF742F94320FFF73FF90A20FFF73CF906
:1023C0000F20FFF739F90020FFF736F90020FFF75B
:1023D00033F90020FFF730F90020FFF72DF9E12055
:1023E000FFF71AF90020FFF727F91520FFF724F966
:1023F0001720FFF721F90720FFF71EF91120FFF73B
:102400001BF90620FFF718F92B20FFF715F95620C6
:10241000FFF712F93C20FFF70FF90520FFF70CF941
:102420001020FFF709F90F20FFF706F93F20FFF70B
:1024300003F93F20FFF700F90F20FFF7FDF82B20ED
:10244000FFF7EAF80020FFF7F7F80020FFF7F4F8AD
:102450000120FFF7F1F83F20FFF7EEF82A20FFF701
:10246000DBF80020FFF7E8F80020FFF7E5F8002090
:10247000FFF7E2F8EF20FFF7DFF81120FFF7CCF8C5
:10248000782001F035FE2920FFF7C6F801224FF42D
:102490008071044803F020F900BF80BD00080240AD
:1024A000980500200000024090B58BB004AFBA60E0
:1024B0001A460346FB810B46BB811346FB80FB8912
:1024C000BB820023FB75B3E0FB7D002B48D1FA896A
:1024D0005D4B1B88194697F82C305B08DBB2CB1A92
:1024E0009A4200F3AB80BA89574B5B88194697F83C
:1024F0002C30CB1A9A4200F3A180BB681B78802B4A
:1025000002D90123FB7593E0BB681B780D2B0BD11F
:1025100097F82C309AB2BB891344BB81BB8AFB81EC
:10252000BB680133BB6017E0BB681A78FC88B989C7
:10253000F88997F83030029397F82C3001933B8D4F
:1025400000932346FFF7C6FC97F82C305B08DBB2FC
:102550009AB2FB891344FB81BB680133BB6067E01F
:10256000FA89394B1B88194697F82C30CB1A9A42B6
:1025700066DCBA89344B5B88194697F82C30CB1A45
:102580009A425DDC0023FB7597F82C30202B0FD18D
:10259000FA88B989F88997F83030029397F82C3087
:1025A00001933B8D00931346BA68FFF7B9FB36E001
:1025B00097F82C30182B0FD1FA88B989F88997F839
:1025C0003030029397F82C3001933B8D00931346E3
:1025D000BA68FFF7CFFA22E097F82C30102B0FD112
:1025E000FA88B989F88997F83030029397F82C3037
:1025F00001933B8D00931346BA68FFF7E1F90EE0B3
:10260000FA88B989F88997F83030029397F82C3016
:1026100001933B8D00931346BA68FFF7FBF8BB6844
:102620000233BB6097F82C309AB2FB891344FB81CC
:10263000BB681B78002B7FF447AF02E000BF00E0CF
:1026400000BF1C37BD4690BD9805002080B58AB0FC
:1026500004AFBA601A460346FB810B46BB811346A2
:10266000FB80B868FDF7B4FD0346FB820F4B1B8867
:102670001A46FB8ADB00D31ADA0F13445B10BB82C5
:10268000FA89BB8A134498B2FA88B98997F8283036
:10269000029397F8243001933B8C00931346BA6859
:1026A000FFF702FF00BF1837BD4680BD9805002028
:1026B000B0B584B004AFFEF78BFF03461C46FEF7AF
:1026C00093FF03461D46FEF79BFF034600932B46F0
:1026D00022461F491F4808F03DFF1F4B1A88002360
:1026E000009350233C210020FFF746F8012302937A
:1026F000102301931F2300934FF6FF73154A3C21CB
:102700000020FFF7A3FFFEF733FC0446FEF73CFC76
:102710000346224611490F4808F01CFF0E4B1A8849
:1027200000230093642350210020FFF725F80123A4
:102730000293102301931F2300934FF6FF73054A62
:1027400050210020FFF782FF00BFBD46B0BD00BF93
:1027500030DA0008A00500209805002040DA0008C3
:1027600080B584B004AF0E4800F03AF9012302931B
:10277000102301934FF4784300934FF60743094A1F
:102780001E210020FFF762FF074B009364236122A4
:10279000AA214620FFF7AEFC00BFBD4680BD00BFAA
:1027A00054DA00085CDA0008B418010880B500AFFC
:1027B00000224FF480610D4802F08EFF00224FF49A
:1027C00000610B4802F088FF00220421074802F054
:1027D00083FF00224FF40061044802F07DFF0122D4
:1027E0004021044802F078FF00BF80BD0004024091
:1027F000001402400018024080B500AF00224021C2
:10280000474802F069FF474B1B681A46464BD118F0
:1028100001230122454805F044FA012240214048A5
:1028200002F05AFF3F4B1B68032B6BD801A252F8F2
:1028300023F000BF4528000875280008A5280008D7
:10284000D528000800224FF48061394802F044FF87
:1028500001224FF40061374802F03EFF01220421BB
:10286000334802F039FF01224FF40061304802F092
:1028700033FF47E001224FF480612D4802F02CFF26
:1028800000224FF400612B4802F026FF01220421B0
:10289000274802F021FF01224FF40061244802F092
:1028A0001BFF2FE001224FF48061214802F014FF4A
:1028B00001224FF400611F4802F00EFF00220421A4
:1028C0001B4802F009FF01224FF40061184802F092
:1028D00003FF17E001224FF48061154802F0FCFE6F
:1028E00001224FF40061134802F0F6FE0122042198
:1028F0000F4802F0F1FE00224FF400610C4802F094
:10290000EBFE00BF074B1B6801335A4203F0030381
:1029100002F0030258BF5342024A136000BF80BD59
:1029200000180240100200200000002030040020A7
:10293000000402400014024080B485B000AF78600B
:1029400039607B68092B43DC7B68002B40DB00236C
:10295000FB737B68092B35D801A252F823F000BF26
:10296000892900088F290008952900089B2900085B
:10297000A1290008A7290008AD290008B3290008EB
:10298000B9290008BF2900080323FB731AE09F231D
:10299000FB7317E02523FB7314E00D23FB7311E099
:1029A0009923FB730EE04923FB730BE04123FB7378
:1029B00008E01F23FB7305E00123FB7302E00923FA
:1029C000FB7300BF3B68013B0449FA7BCA5400E03B
:1029D00000BF1437BD465DF8047B7047000000203F
:1029E00080B586B004AF7860214B1A881F2300930E
:1029F000142300210020FEF7BFFE1D4B5B88143B13
:102A000099B21B4B1A881A4B5B881F20009000203C
:102A1000FEF7B2FE01230293102301931F230093BC
:102A20004FF6FF737A6802210020FFF70FFE104B6C
:102A30005B88123B99B201230293102301931F2359
:102A400000934FF6FF730B4A0020FFF7FFFD084B82
:102A50001A88074B5B88143B9BB20021009114211C
:102A60000020FEF789FE00BF0837BD4680BD00BFCD
:102A70009805002070DA000880B592B004AF01F02C
:102A8000C5FA00F065F800F007FB00F0A9F900F0C6
:102A90008FFA00F06FF900F0DFFA00F0C1F800F0F3
:102AA000EBF900F039F900F0ADFA00F033FA00F07C
:102AB00011FC00F0D9FC00237B63FFF751FE00BF3F
:102AC0001F4B1B68002BFBD01D4B00221A60FEF72A
:102AD000FFFCFEF78FFBFEF7F1FA1A4B1A884FF650
:102AE000FF7300938C2378210020FEF745FE7B6B5B
:102AF00098B201230293102301931F2300931F23F5
:102B0000114A7821FFF7C6FA7B6B01330D4A128810
:102B100093FBF2F102FB01F29B1A7B6300F054FC81
:102B2000FEF798FCFEF7C8FB00F0DCFC074B1B68C7
:102B3000002BC4D0054B00221A60FFF7B9FDBEE799
:102B400024020020980500207CDA000820020020E2
:102B500080B594B000AF07F1200330220021184661
:102B600008F086F807F10C0300221A605A609A6098
:102B7000DA601A610023BB60274B1B6C264A43F0C6
:102B800080531364244B1B6C03F08053BB60BB6801
:102B900000237B60214B1B68204A43F48043136071
:102BA0001E4B1B6803F480437B607B6801233B6200
:102BB0004FF480337B620223BB634FF48003FB63DB
:102BC00004233B6448237B640223BB640423FB642B
:102BD00007F12003184604F067FB0346002B01D0E1
:102BE00000F05EFC0F23FB6002233B6100237B614E
:102BF0004FF48053BB610023FB6107F10C030221FA
:102C0000184604F0C9FD0346002B01D000F048FC33
:102C100000BF5037BD4680BD003802400070004004
:102C200080B584B000AF3B4600221A605A609A60BB
:102C3000DA60364B364A1A60344B00225A60334B06
:102C400000229A60314B01221A61304B00221A7621
:102C50002E4B002283F820202C4B0022DA622B4BD3
:102C60002C4A9A62294B0022DA60284B0422DA614E
:102C7000264B002283F83020244B01225A6123483E
:102C800001F05AFA0346002B01D000F009FC0A2398
:102C90003B6001237B600123BB603B4619461B4818
:102CA00001F0BCFB0346002B01D000F0F9FB0B2325
:102CB0003B6002237B603B461946144801F0AEFBA3
:102CC0000346002B01D000F0EBFB08233B600323FD
:102CD0007B603B4619460D4801F0A0FB0346002BE4
:102CE00001D000F0DDFB09233B6004237B603B4601
:102CF0001946064801F092FB0346002B01D000F074
:102D0000CFFB00BF1037BD4680BD00BFEC020020E6
:102D1000002001400100000F80B500AF124B134AA4
:102D20001A60114B124A5A600F4B00229A600E4BE8
:102D30000022DA600C4B4FF480421A610A4B0022E9
:102D40005A61094B00229A61074B0022DA61064B57
:102D500000221A62044802F0F3FC0346002B01D063
:102D600000F09EFB00BF80BD5002002000540040D8
:102D7000A086010080B500AF174B184A1A60164BA9
:102D80004FF482725A60144B00229A60124B002258
:102D9000DA60114B00221A610F4B00225A610E4B70
:102DA0004FF400729A610C4B0022DA610A4B002248
:102DB0001A62094B00225A62074B00229A62064BA4
:102DC0000A22DA62044804F0E3FE0346002B01D035
:102DD00000F066FB00BF80BD3004002000300140E1
:102DE00080B586B000AF07F1080300221A605A6070
:102DF0009A60DA603B4600221A605A601D4B4FF021
:102E000080421A601B4B40F2CF225A60194B0022BD
:102E10009A60184B6322DA60164B00221A61154B38
:102E200000229A61134805F0BDFD0346002B01D036
:102E300000F036FB4FF48053BB6007F108031946DE
:102E40000C4806F0C3F90346002B01D000F028FB24
:102E500000233B6000237B603B461946054806F093
:102E6000B5FD0346002B01D000F01AFB00BF183758
:102E7000BD4680BD8804002080B586B000AF07F154
:102E8000080300221A605A609A60DA603B4600220A
:102E90001A605A601D4B1E4A1A601C4B47225A602A
:102EA0001A4B00229A60194B4FF6FE72DA60174BEC
:102EB00000221A61154B80229A61144805F072FDB8
:102EC0000346002B01D000F0EBFA4FF48053BB60B7
:102ED00007F1080319460D4806F078F90346002B60
:102EE00001D000F0DDFA00233B6000237B603B460D
:102EF0001946064806F06AFD0346002B01D000F093
:102F0000CFFA00BF1837BD4680BD00BFA402002025
:102F10000004004080B588B000AF3B1D00221A605D
:102F20005A609A60DA601A615A619A611E4B1F4AB0
:102F30001A601D4B41F61F425A601B4B00229A60DB
:102F4000194B0922DA60184B00221A61164B8022B5
:102F50009A61154805F026FD0346002B01D000F0CC
:102F60009FFA114805F046FE0346002B01D000F001
:102F700097FA60237B600023BB600023FB60002383
:102F80007B613B1D00221946074806F05DF80346A9
:102F9000002B01D000F084FA034800F075FC00BF5C
:102FA0002037BD4680BD00BF44030020001C004008
:102FB00080B500AF114B124A1A60104B4FF4E1324A
:102FC0005A600E4B00229A600C4B0022DA600B4BC9
:102FD00000221A61094B0C225A61084B00229A61A7
:102FE000064B0022DA61054806F080FD0346002BFF
:102FF00001D000F055FA00BF80BD00BF8C03002057
:103000000010014080B500AF114B124A1A60104BFE
:103010004FF4E1325A600E4B00229A600C4B0022B2
:10302000DA600B4B00221A61094B0C225A61084BE3
:1030300000229A61064B0022DA61054806F056FD2F
:103040000346002B01D000F02BFA00BF80BD00BF6B
:10305000D00400200044004080B582B000AF0023BF
:103060007B600C4B1B6B0B4A43F480031363094BCF
:103070001B6B03F480037B607B68002200213820F7
:1030800001F047FD382001F060FD00BF0837BD4664
:1030900080BD00BF0038024080B58EB000AF07F1A0
:1030A000240300221A605A609A60DA601A610023D1
:1030B0003B62804B1B6B7F4A43F0100313637D4BD5
:1030C0001B6B03F010033B623B6A0023FB61794BEF
:1030D0001B6B784A43F004031363764B1B6B03F0BE
:1030E0000403FB61FB690023BB61724B1B6B714ADC
:1030F00043F0200313636F4B1B6B03F02003BB6192
:10310000BB6900237B616B4B1B6B6A4A43F08003F6
:103110001363684B1B6B03F080037B617B690023A7
:103120003B61644B1B6B634A43F001031363614BC8
:103130001B6B03F001033B613B690023FB605D4BAC
:103140001B6B5C4A43F0020313635A4B1B6B03F087
:103150000203FB60FB680023BB60564B1B6B554AA8
:1031600043F008031363534B1B6B03F00803BB606E
:10317000BB6800237B604F4B1B6B4E4A43F0400300
:1031800013634C4B1B6B03F040037B607B68002296
:103190007021494802F0A0FA00224FF4005147483C
:1031A00002F09AFA002240F60441454802F094FAEF
:1031B00000224FF40061434802F08EFA00224FF4DF
:1031C0001071414802F088FA00224FF480713F48A4
:1031D00002F082FA002248213D4802F07DFA702375
:1031E0007B620123BB620023FB6200233B6307F188
:1031F00024031946304802F0D3F84FF400537B62A1
:103200000123BB620123FB6200233B6307F124031C
:1032100019462A4802F0C4F840F604437B620123B1
:10322000BB620023FB6200233B6307F124031946C2
:10323000234802F0B5F84FF400637B620123BB62C0
:103240000023FB6200233B6307F1240319461D485A
:1032500002F0A6F84FF410737B620123BB620023D7
:10326000FB6200233B6307F124031946164802F072
:1032700097F84FF480737B620123BB620123FB62EA
:1032800003233B6307F124031946104802F088F832
:1032900048237B620123BB620023FB6200233B6364
:1032A00007F1240319460A4802F07AF800BF3837BC
:1032B000BD4680BD003802400010024000080240B8
:1032C00000040240001402400018024000000240C6
:1032D000000C024080B58EB000AF07F11C03002245
:1032E0001A605A609A60DA601A615A619A613B46C4
:1032F00000221A605A609A60DA601A615A619A6113
:103300002F4B4FF020421A602D4B2E4A5A602C4B07
:1033100000229A602A4B0022DA60294B00221A61AF
:10332000274B10225A61264B00229A61244B00221F
:10333000DA61234B00221A62214B00225A62204B91
:103340004FF480529A621E4B0022DA621C4B4FF4FB
:1033500080421A631A4B00225A63194B00229A6367
:10336000174B00225A640F23FB610F233B623C235F
:103370007B620023BB621023FB6211233B630023AB
:103380007B6309233B600F237B600823BB60002322
:10339000FB6010233B6111237B610023BB613A4634
:1033A00007F11C031946064805F0B8FA0346002B3E
:1033B00001D000F075F800BF3837BD4680BD00BFB2
:1033C000D4050020040100A080B500AF214B5B783C
:1033D0001A462021204802F07FF9204B1B785A1C06
:1033E0001F4B83FB0213D910D317C91A0B469B003E
:1033F0000B449B00D11ACAB2184B1A70174B1B789A
:10340000002B03D11021144802F07FF9114B9A7858
:10341000144BA3FB021319090B469B000B449B00A2
:10342000D31ADBB2012B03D140210B4802F06DF916
:10343000084BDB78012B0BD16020FEF7B1FE362064
:10344000FEF7EAF86820FEF7F7F80020FEF762F9C9
:1034500000BF80BD000200200010024014020020C6
:1034600067666666CDCCCCCC80B500AF00F066FC5C
:1034700000F01CF8FDF7AEFEFFF798F9FDF760FDD0
:1034800000F010FDFEF7B0FEFDF7DCFF0122102179
:10349000024802F021F900BF80BD00BF00100240C9
:1034A00080B400AF72B600BFFEE7000080B500AF89
:1034B0000021024805F0F8FB00BF80BD4403002056
:1034C00080B483B000AF0346FB71054B1B68FA79EB
:1034D0005A6300BF0C37BD465DF8047B704700BFE0
:1034E0004403002080B500AF0E4B1B78012B12D196
:1034F0000D4B1B78002B03D10B4B05221A700AE0F1
:10350000094B1B78052B03D1074B09221A7002E0E7
:10351000054B00221A70044B1B781846FFF7D0FFAA
:1035200000BF80BD000200201502002080B483B0DF
:1035300000AF00237B60104B5B6C0F4A43F4804369
:1035400053640D4B5B6C03F480437B607B6800230A
:103550003B60094B1B6C084A43F080531364064BD5
:103560001B6C03F080533B603B6800BF0C37BD46CB
:103570005DF8047B704700BF0038024080B58AB018
:1035800000AF786007F1140300221A605A609A6055
:10359000DA601A617B681B683C4A934271D1002350
:1035A0003B613B4B5B6C3A4A43F480735364384B4A
:1035B0005B6C03F480733B613B690023FB60344B1D
:1035C0001B6B334A43F004031363314B1B6B03F053
:1035D0000403FB60FB680023BB602D4B1B6B2C4A74
:1035E00043F0020313632A4B1B6B03F00203BB601F
:1035F000BB6803237B610323BB610023FB6107F1ED
:1036000014031946234801F0CBFE03237B610323F7
:10361000BB610023FB6107F1140319461E4801F04A
:10362000BFFE1E4B1E4A1A601C4B00225A601B4BE9
:1036300000229A60194B0022DA60184B4FF4806226
:103640001A61164B4FF480525A61144B4FF480426A
:103650009A61124B4FF48072DA61104B00221A62A9
:103660000E4B00225A620D4801F08AFA0346002BE5
:1036700001D0FFF715FF7B68084A9A63074A7B6809
:10368000936300BF2837BD4680BD00BF00200140C6
:10369000003802400008024000040240D00300202D
:1036A0001064024080B58AB000AF786007F114035F
:1036B00000221A605A609A60DA601A617B681B689F
:1036C0001D4A934233D100233B611C4B1B6B1B4AA9
:1036D00043F002031363194B1B6B03F002033B61BE
:1036E0003B69C0237B611223BB610023FB61032381
:1036F0003B6204237B6207F114031946104801F072
:103700004FFE0023FB600D4B1B6C0C4A43F400136F
:1037100013640A4B1B6C03F40013FB60FB6800226C
:1037200000211F2001F0F5F91F2001F00EFA00BF63
:103730002837BD4680BD00BF00540040003802401D
:103740000004024080B58AB000AF786007F114032E
:1037500000221A605A609A60DA601A617B681B68FE
:103760001D4A934233D100233B611C4B5B6C1B4AC7
:1037700043F480535364194B5B6C03F480533B61F7
:103780003B690023FB60154B1B6B144A43F002039B
:103790001363124B1B6B03F00203FB60FB683823BF
:1037A0007B610223BB610023FB6103233B62052392
:1037B0007B6207F114031946094801F0F1FD00226C
:1037C0000021232001F0A5F9232001F0BEF900BF5C
:1037D0002837BD4680BD00BF0030014000380240A0
:1037E0000004024080B586B000AF78607B681B683B
:1037F000B3F1804F16D100237B61204B1B6C1F4A15
:1038000043F0010313641D4B1B6C03F001037B6148
:103810007B69002200211C2001F07BF91C2001F0B3
:1038200094F926E07B681B68154A93420ED1002369
:103830003B61124B1B6C114A43F0020313640F4BA4
:103840001B6C03F002033B613B6912E07B681B6861
:103850000C4A93420DD10023FB60084B1B6C074AB6
:1038600043F080031364054B1B6C03F08003FB6083
:10387000FB6800BF1837BD4680BD00BF003802405E
:1038800000040040001C004080B588B000AF7860A4
:1038900007F10C0300221A605A609A60DA601A611C
:1038A0007B681B68124A93421ED10023BB60114BF8
:1038B0001B6B104A43F0200313630E4B1B6B03F08A
:1038C0002003BB60BB684FF48073FB6002233B6145
:1038D00000237B610023BB610923FB6107F10C031B
:1038E0001946054801F05CFD00BF2037BD4680BD8C
:1038F000001C0040003802400014024080B58CB02B
:1039000000AF786007F11C0300221A605A609A60C9
:10391000DA601A617B681B683A4A934235D100230A
:10392000BB61394B5B6C384A43F010035364364B30
:103930005B6C03F01003BB61BB6900237B61324BFE
:103940001B6B314A43F0010313632F4B1B6B03F0D6
:1039500001037B617B694FF4C063FB6102233B621F
:1039600000237B620323BB620723FB6207F11C0376
:103970001946264801F014FD00220021252001F0FF
:10398000C8F8252001F0E1F838E07B681B68204A80
:10399000934233D100233B611B4B1B6C1A4A43F407
:1039A00000331364184B1B6C03F400333B613B6919
:1039B0000023FB60144B1B6B134A43F0010313639A
:1039C000114B1B6B03F00103FB60FB680C23FB61D5
:1039D00002233B6200237B620323BB620723FB625B
:1039E00007F11C031946094801F0DAFC0022002106
:1039F000262001F08EF8262001F0A7F800BF30370E
:103A0000BD4680BD00100140003802400000024069
:103A10000044004080B586B000AF3B1D00221A6014
:103A20005A609A60DA601A611C4B1B68002B31D116
:103A30001A4B01221A6000233B60194B9B6B184AFA
:103A400043F001039363164B9B6B03F001033B6050
:103A50003B684FF688737B600223BB600123FB60E9
:103A600003233B610C237B613B1D19460D4801F08C
:103A700097FC4CF2B3737B600223BB600123FB60B5
:103A800003233B610C237B613B1D1946064801F073
:103A900087FC00E000BF1837BD4680BD180200203B
:103AA0000038024000100240000C024080B582B095
:103AB00000AF7860FFF7AEFF00BF0837BD4680BD9E
:103AC00080B400AFFEE780B400AFFEE780B400AF83
:103AD000FEE780B400AFFEE780B400AFFEE780B43D
:103AE00000AF00BFBD465DF8047B704780B400AFF7
:103AF00000BFBD465DF8047B704780B400AF00BFD7
:103B0000BD465DF8047B704780B500AF00F0D0FA89
:103B100000BF80BD80B500AF024805F08DF900BF41
:103B200080BD00BF8804002080B500AF024802F0CD
:103B300009F800BF80BD00BF5002002080B500AF73
:103B4000024804F09DFC00BF80BD00BF300400208F
:103B500080B500AF024806F0D9F800BF80BD00BFB5
:103B60008C03002080B500AF024806F0CFF800BFFC
:103B700080BD00BFD004002080B500AF024801F036
:103B800097F900BF80BD00BFD003002080B400AF14
:103B900001231846BD465DF8047B704780B582B0AE
:103BA00000AF7860396007F039F8034616221A60D2
:103BB0004FF0FF3318460837BD4680BD80B582B050
:103BC00000AF78604FF0FF317868FFF7E7FFFEE75E
:103BD00080B586B000AFF860B9607A6000237B6181
:103BE0000AE0AFF300800146BB685A1CBA60CAB253
:103BF0001A707B6901337B617A697B689A42F0DBDA
:103C00007B6818461837BD4680BD80B586B000AFCA
:103C1000F860B9607A6000237B6109E0BB685A1CD8
:103C2000BA601B781846AFF300807B6901337B6173
:103C30007A697B689A42F1DB7B6818461837BD4683
:103C400080BD80B483B000AF78604FF0FF3318467A
:103C50000C37BD465DF8047B704780B483B000AF7D
:103C6000786039603B684FF400525A600023184670
:103C70000C37BD465DF8047B704780B483B000AF5D
:103C80007860012318460C37BD465DF8047B704709
:103C900080B485B000AFF860B9607A600023184640
:103CA0001437BD465DF8047B7047000080B586B0D0
:103CB00000AF7860144A154BD31A7B617B693B6176
:103CC000134B1B68002B02D1114B124A1A60104B88
:103CD0001A687B6813443A699A4207D206F09EFF3D
:103CE00003460C221A604FF0FF3309E0084B1B68B3
:103CF000FB60074B1A687B681344054A1360FB6836
:103D000018461837BD4680BD0000022000040000A0
:103D10001C0200203806002080B400AF064BD3F808
:103D20008830054A43F47003C2F8883000BFBD46AE
:103D30005DF8047B704700BF00ED00E080B500AF88
:103D4000084804F0E7FE084804F02CFE064804F09A
:103D500079FE4FF47A7000F009F8322000F020F874
:103D600000BF80BD88040020A402002080B483B07E
:103D700000AF7860074A7B681360064B1B68064AF1
:103D80001360064B00221A6000BF0C37BD465DF879
:103D9000047B7047380200202C0200202002002003
:103DA00080B483B000AF7860074A7B681360064B2D
:103DB0001B68064A1360064B00221A6000BF0C37CE
:103DC000BD465DF8047B70473C02002030020020B5
:103DD0002402002080B400AF164B1B68002B0FDDBF
:103DE000144B1B68013B134A1360124B1B68002BDA
:103DF00006D1114B01221A60104B1B680D4A13604B
:103E00000F4B1B68002B0FDD0D4B1B68013B0C4A51
:103E100013600B4B1B68002B06D10A4B01221A6062
:103E2000094B1B68064A136000BFBD465DF8047B62
:103E3000704700BF2C020020200200203802002022
:103E400034020020280200204002002080B582B009
:103E500000AF78607B681B68B3F1804F17D10E4BC1
:103E60001B68002B0FDD0C4B1B68013B0A4A1360DB
:103E7000094B1B68002B06D1084B01221A60084B26
:103E80001B68054A1360FFF7A5FFFEF7B5FC00BFEE
:103E90000837BD4680BD00BF30020020240200204C
:103EA0003C02002080B500AF01220549054805F01D
:103EB000FCFE01220449054805F0F7FE00BF80BD65
:103EC000440200208C03002045020020D004002082
:103ED00080B582B000AF78607B681B68114A93425E
:103EE0000AD10A2301221049104805F04CFE012294
:103EF0000D490E4805F0D9FE7B681B680C4A9342B9
:103F00000CD1FDF707FA01220A490B4805F0CDFE56
:103F10000A2301220749054805F035FE00BF08378E
:103F2000BD4680BD00100140440200208C030020EB
:103F30000044004045020020D004002080B483B03B
:103F400000AF0346FB71FB791B09DBB21A469200F6
:103F500013445B00DAB2FB7903F00F03DBB21344C6
:103F6000DBB218460C37BD465DF8047B7047000095
:103F700080B483B000AF0346FB71FB790D4AA2FB0E
:103F80000323DB08DBB21B0158B2FA79094BA3FB10
:103F90000213D9080B469B000B445B00D31ADBB21B
:103FA0005BB203435BB2DBB218460C37BD465DF82B
:103FB000047B7047CDCCCCCCDFF834D00D480E4913
:103FC0000E4A002302E0D458C4500433C4188C4273
:103FD000F9D30B4A0B4C002301E013600432A242D8
:103FE000FBD3FFF799FE06F01FFEFEF745FD704775
:103FF0000000022000000020E00100208C68010881
:10400000E001002038060020FEE7000080B500AF88
:104010000E4B1B680D4A43F4007313600B4B1B6877
:104020000A4A43F480631360084B1B68074A43F451
:1040300080731360032000F061FD0F2000F008F88A
:10404000FFF774FA0023184680BD00BF003C024011
:1040500080B582B000AF7860124B1A68124B1B78A3
:1040600019464FF47A73B3FBF1F3B2FBF3F318463E
:1040700000F079FD0346002B01D001230EE07B68A0
:104080000F2B0AD8002279684FF0FF3000F041FD75
:10409000064A7B681360002300E0012318460837B6
:1040A000BD4680BD040000200C0000200800002058
:1040B00080B400AF064B1B781A46064B1B681344AE
:1040C000044A136000BFBD465DF8047B704700BF23
:1040D0000C0000202406002080B400AF034B1B68B6
:1040E0001846BD465DF8047B704700BF24060020DB
:1040F00080B584B000AF7860FFF7EEFFB8607B68F2
:10410000FB60FB68B3F1FF3F05D00A4B1B781A46F2
:10411000FB681344FB6000BFFFF7DEFF0246BB688D
:10412000D31AFA689A42F7D800BF00BF1037BD46CD
:1041300080BD00BF0C00002080B584B000AF786067
:104140000023FB737B68002B01D1012333E07B68E4
:104150001B6C002B09D17868FFF710FA7B680022EE
:104160005A647B68002283F83C207B681B6C03F058
:104170001003002B18D17B681B6C23F4885323F0A9
:10418000020343F002027B681A64786800F068FA60
:104190007B6800225A647B681B6C23F0030343F0A6
:1041A00001027B681A6401E00123FB737B68002233
:1041B00083F83C20FB7B18461037BD4680BD0000CD
:1041C00080B586B000AFF860B9607A6000233B61CB
:1041D000FB6893F83C30012B01D10223E9E0FB6836
:1041E000012283F83C20FB681B689B6803F00103F5
:1041F000012B18D0FB681B689A68FB681B6842F0AB
:1042000001029A606D4B1B686D4AA2FB03239A0C56
:1042100013465B0013443B6102E03B69013B3B6199
:104220003B69002BF9D1FB681B689B6803F4807322
:10423000B3F5807F07D1FB681B689A68FB681B6831
:1042400022F480729A60FB681B689B6803F001038C
:10425000012B40F0A180FB681B6C23F4E06323F08A
:10426000010343F48072FB681A64FB681B685B6897
:1042700003F48063002B07D0FB681B6C23F44053CE
:1042800043F48052FB681A64FB681B6C03F4805390
:10429000B3F5805F06D1FB685B6C23F00602FB6818
:1042A0005A6402E0FB6800225A64FB68002283F82B
:1042B0003C20444B7B61FB689B6B434ADA63FB68A1
:1042C0009B6B424A1A64FB689B6B414ADA64FB6849
:1042D0001B686FF022021A60FB681B685A68FB6853
:1042E0001B6842F080625A60FB681B689A68FB6832
:1042F0001B6842F480729A60FB68986BFB681B68CD
:104300004C331946BA687B6800F0E8FC7B695B684F
:1043100003F01F03002B2AD1FB681B682D4A934230
:1043200015D0FB681B682C4A934205D1254B5B686E
:1043300003F01F03002B0AD0FB681B68274A934237
:1043400036D1204B5B6803F01003002B30D1FB68A3
:104350001B689B6803F04053002B29D1FB681B6846
:104360009A68FB681B6842F080429A6020E0FB6814
:104370001B68184A93421BD1FB681B689B6803F0BB
:104380004053002B14D1FB681B689A68FB681B68BC
:1043900042F080429A600BE0FB681B6C43F0100215
:1043A000FB681A64FB685B6C43F00102FB685A64AB
:1043B000002318461837BD4680BD00BF040000200A
:1043C00083DE1B43002301405948000813490008BD
:1043D0002F49000800200140002101400022014037
:1043E00080B483B000AF786000BF0C37BD465DF885
:1043F000047B704780B483B000AF786000BF0C3797
:10440000BD465DF8047B704780B483B000AF786030
:1044100000BF0C37BD465DF8047B704780B485B0A3
:1044200000AF786039600023BB607B6893F83C3054
:10443000012B01D1022305E17B68012283F83C2096
:104440003B681B68092B25D97B681B68D9683B68CA
:104450001B689BB21A4613465B0013441E3B07229F
:1044600002FA03F3DA437B681B680A40DA607B6870
:104470001B68D9683B689A683B681B689BB2184602
:1044800003465B0003441E3B9A407B681B680A435B
:10449000DA6022E07B681B6819693B681B689BB285
:1044A0001A4613465B001344072202FA03F3DA4369
:1044B0007B681B680A401A617B681B6819693B6846
:1044C0009A683B681B689BB2184603465B0003442E
:1044D0009A407B681B680A431A613B685B68062B3D
:1044E00024D87B681B68596B3B685A6813469B004D
:1044F0001344053B1F2202FA03F3DA437B681B686F
:104500000A405A637B681B68596B3B681B689BB207
:1045100018463B685A6813469B001344053B00FA53
:1045200003F27B681B680A435A634CE03B685B6894
:104530000C2B24D87B681B68196B3B685A681346A0
:104540009B001344233B1F2202FA03F3DA437B68E8
:104550001B680A401A637B681B68196B3B681B6801
:104560009BB218463B685A6813469B001344233B92
:1045700000FA03F27B681B680A431A6323E07B6836
:104580001B68D96A3B685A6813469B001344413B39
:104590001F2202FA03F3DA437B681B680A40DA62DF
:1045A0007B681B68D96A3B681B689BB218463B68EE
:1045B0005A6813469B001344413B00FA03F27B68A0
:1045C0001B680A43DA62224BFB607B681B68214A46
:1045D000934209D13B681B68122B05D1FB685B68CD
:1045E00043F48002FB685A607B681B68194A934257
:1045F00023D13B681B68102B03D03B681B68112B31
:104600001BD1FB685B6843F40002FB685A603B689F
:104610001B68102B11D1104B1B68104AA2FB0323FF
:104620009A0C13469B0013445B00BB6002E0BB681E
:10463000013BBB60BB68002BF9D17B68002283F88B
:104640003C20002318461437BD465DF8047B7047B4
:1046500000230140002001400400002083DE1B43B2
:1046600080B485B000AF7860794BFB60FB685B6815
:1046700023F44032FB685A60FB685A687B685B68C9
:104680001A43FB685A607B681B685A687B681B6822
:1046900022F480725A607B681B6859687B681B69CA
:1046A0001A027B681B680A435A607B681B685A6859
:1046B0007B681B6822F040725A607B681B685968EF
:1046C0007B689A687B681B680A435A607B681B6832
:1046D0009A687B681B6822F400629A607B681B689A
:1046E00099687B68DA687B681B680A439A607B6814
:1046F0009B6A584A934222D07B681B689A687B6801
:104700001B6822F070629A607B681B6899687B68FE
:104710009A6A7B681B680A439A607B681B689A6880
:104720007B681B6822F040529A607B681B6899681E
:104730007B68DA6A7B681B680A439A600FE07B68D3
:104740001B689A687B681B6822F070629A607B68BD
:104750001B689A687B681B6822F040529A607B68ED
:104760001B689A687B681B6822F002029A607B686B
:104770001B6899687B681B7E5A007B681B680A432C
:104780009A607B6893F82030002B1BD07B681B68F5
:104790005A687B681B6842F400625A607B681B6839
:1047A0005A687B681B6822F460425A607B681B6809
:1047B00059687B685B6A013B5A037B681B680A4344
:1047C0005A6007E07B681B685A687B681B6822F4A4
:1047D00000625A607B681B68DA6A7B681B6822F497
:1047E0007002DA627B681B68D96A7B68DB69013B0F
:1047F0001A057B681B680A43DA627B681B689A6843
:104800007B681B6822F400729A607B681B68996859
:104810007B6893F830305A027B681B680A439A60C1
:104820007B681B689A687B681B6822F480629A60C8
:104830007B681B6899687B685B699A027B681B6868
:104840000A439A6000BF1437BD465DF8047B704789
:10485000002301400100000F80B584B000AF7860F4
:104860007B689B6BFB60FB681B6C03F05003002BA9
:104870003CD1FB681B6C43F40072FB681A64FB6854
:104880001B689B6803F04053002B2BD1FB681B7EF9
:10489000002B27D1FB681B68DB6A03F47003002B35
:1048A00006D0FB681B689B6803F48063002B19D15A
:1048B000FB681B685A68FB681B6822F020025A607C
:1048C000FB681B6C23F48072FB681A64FB681B6C2A
:1048D00003F48053002B05D1FB681B6C43F00102ED
:1048E000FB681A64F868FFF77BFD0EE0FB681B6C41
:1048F00003F01003002B03D0F868FFF785FD04E0F8
:10490000FB689B6BDB6C7868984700BF1037BD462F
:1049100080BD80B584B000AF78607B689B6BFB6026
:10492000F868FFF767FD00BF1037BD4680BD80B552
:1049300084B000AF78607B689B6BFB60FB684022B3
:104940001A64FB685B6C43F00402FB685A64F86805
:10495000FFF75AFD00BF1037BD4680BD80B485B05B
:1049600000AF78607B6803F00703FB600C4BDB68EB
:10497000BB60BA684FF6FF031340BB60FB681A02C6
:10498000BB68134343F0BF6343F40033BB60044A86
:10499000BB68D36000BF1437BD465DF8047B704729
:1049A00000ED00E080B400AF044BDB681B0A03F0AD
:1049B00007031846BD465DF8047B704700ED00E034
:1049C00080B483B000AF0346FB7197F90730002B2A
:1049D0000BDBFB7903F01F02074997F907305B09EE
:1049E000012000FA02F241F8232000BF0C37BD4637
:1049F0005DF8047B704700BF00E100E080B483B045
:104A000000AF03463960FB7197F90730002B0ADBD2
:104A10003B68DAB20C4997F907301201D2B20B4465
:104A200083F800230AE03B68DAB20849FB7903F017
:104A30000F03043B1201D2B20B441A7600BF0C37AD
:104A4000BD465DF8047B704700E100E000ED00E04A
:104A500080B489B000AFF860B9607A60FB6803F099
:104A60000703FB61FB69C3F10703042B28BF042381
:104A7000BB61FB690433062B02D9FB69033B00E0F1
:104A800000237B614FF0FF32BB6902FA03F3DA4384
:104A9000BB681A407B699A404FF0FF317B6901FA8D
:104AA00003F3D9437B680B40134318462437BD46B4
:104AB0005DF8047B7047000080B582B000AF78607D
:104AC0007B68013BB3F1807F01D301230FE00A4AE9
:104AD0007B68013B53600F214FF0FF30FFF78EFFE3
:104AE000054B00229A60044B07221A6000231846E7
:104AF0000837BD4680BD00BF10E000E080B582B041
:104B000000AF78607868FFF729FF00BF0837BD461F
:104B100080BD80B586B000AF0346B9607A60FB7394
:104B200000237B61FFF73EFF78617A68B968786996
:104B3000FFF78EFF024697F90F3011461846FFF730
:104B40005DFF00BF1837BD4680BD80B582B000AFA5
:104B50000346FB7197F907301846FFF731FF00BF96
:104B60000837BD4680BD80B582B000AF78607868F8
:104B7000FFF7A2FF034618460837BD4680BD000078
:104B800080B586B000AF786000237B61FFF7A4FAA0
:104B900038617B68002B01D1012399E07B680222F8
:104BA00083F835207B68002283F834207B681B68FB
:104BB0001A687B681B6822F001021A600FE0FFF799
:104BC0008BFA02463B69D31A052B08D97B68202251
:104BD0005A657B68032283F83520032378E07B68DD
:104BE0001B681B6803F00103002BE8D17B681B687E
:104BF0001B687B617A69384B13407B617B685A681C
:104C00007B689B681A437B68DB681A437B681B6977
:104C10001A437B685B691A437B689B691A437B680C
:104C2000DB691A437B681B6A13437A6913437B6110
:104C30007B685B6A042B07D17B68DA6A7B681B6B35
:104C400013437A6913437B617B681B687A691A6036
:104C50007B681B685B697B617B6923F007037B6171
:104C60007B685B6A7A6913437B617B685B6A042BB0
:104C700017D17B689B6A7A6913437B617B68DB6A27
:104C8000002B0ED0786800F00FFB0346002B08D0F5
:104C90007B6840225A657B68012283F83520012316
:104CA00016E07B681B687A695A61786800F0C6FA7A
:104CB0000346FB607B68DB6D3F229A40FB689A608D
:104CC0007B6800225A657B68012283F83520002327
:104CD00018461837BD4680BD3F8010F080B586B0BD
:104CE00000AFF860B9607A603B600023FB75FB6839
:104CF0009B6D3B61FB6893F83430012B01D102239B
:104D000040E0FB68012283F83420FB6893F83530DB
:104D1000DBB2012B2FD1FB68022283F83520FB6820
:104D200000225A653B687A68B968F86800F058FA5A
:104D3000FB68DB6D3F229A403B699A60FB681B6809
:104D40001A68FB681B6842F016021A60FB681B6C4D
:104D5000002B07D0FB681B681A68FB681B6842F0D1
:104D600008021A60FB681B681A68FB681B6842F03F
:104D700001021A6005E0FB68002283F83420022358
:104D8000FB75FB7D18461837BD4680BD80B584B0E5
:104D900000AF78607B689B6DFB60FFF79DF9B860A2
:104DA0007B6893F83530DBB2022B08D07B68802219
:104DB0005A657B68002283F83420012352E07B6827
:104DC0001B681A687B681B6822F016021A607B68F1
:104DD0001B685A697B681B6822F080025A617B68F5
:104DE0001B6C002B03D17B689B6C002B07D07B686E
:104DF0001B681A687B681B6822F008021A607B68CF
:104E00001B681A687B681B6822F001021A6013E0B5
:104E1000FFF762F90246BB68D31A052B0CD97B68F1
:104E200020225A657B68032283F835207B680022A4
:104E300083F83420032315E07B681B681B6803F0AC
:104E40000103002BE4D17B68DB6D3F229A40FB68B5
:104E50009A607B68012283F835207B68002283F802
:104E60003420002318461037BD4680BD80B483B07F
:104E700000AF78607B6893F83530DBB2022B04D04A
:104E80007B6880225A6501230CE07B68052283F849
:104E900035207B681B681A687B681B6822F001025A
:104EA0001A60002318460C37BD465DF8047B704736
:104EB00080B586B000AF78600023BB60924B1B6862
:104EC000924AA2FB03239B0A7B617B689B6D3B613B
:104ED0003B691B68FB607B68DB6D08229A40FB68BE
:104EE0001340002B1AD07B681B681B6803F0040377
:104EF000002B13D07B681B681A687B681B6822F044
:104F000004021A607B68DB6D08229A403B699A6054
:104F10007B685B6D43F001027B685A657B68DB6DE3
:104F200001229A40FB681340002B12D07B681B685B
:104F30005B6903F08003002B0BD07B68DB6D0122E3
:104F40009A403B699A607B685B6D43F002027B6824
:104F50005A657B68DB6D04229A40FB681340002B86
:104F600012D07B681B681B6803F00203002B0BD078
:104F70007B68DB6D04229A403B699A607B685B6DBD
:104F800043F004027B685A657B68DB6D10229A400F
:104F9000FB681340002B43D07B681B681B6803F041
:104FA0000803002B3CD07B68DB6D10229A403B69E4
:104FB0009A607B681B681B6803F48023002B18D061
:104FC0007B681B681B6803F40023002B08D17B68F7
:104FD0001B6C002B24D07B681B6C786898471FE003
:104FE0007B689B6C002B1BD07B689B6C7868984718
:104FF00016E07B681B681B6803F48073002B07D1E5
:105000007B681B681A687B681B6822F008021A60BC
:105010007B681B6C002B03D07B681B6C78689847FF
:105020007B68DB6D20229A40FB681340002B00F068
:105030008E807B681B681B6803F01003002B00F058
:1050400086807B68DB6D20229A403B699A607B6892
:1050500093F83530DBB2052B36D17B681B681A68B4
:105060007B681B6822F016021A607B681B685A690D
:105070007B681B6822F080025A617B681B6C002BE6
:1050800003D17B689B6C002B07D07B681B681A6878
:105090007B681B6822F008021A607B68DB6D3F2288
:1050A0009A403B699A607B68012283F835207B68CF
:1050B000002283F834207B681B6D002B7DD07B6839
:1050C0001B6D7868984778E07B681B681B6803F461
:1050D0008023002B1CD07B681B681B6803F4002313
:1050E000002B08D17B685B6C002B30D07B685B6C3D
:1050F000786898472BE07B68DB6B002B27D07B68B8
:10510000DB6B7868984722E004000020B5814E1BD5
:105110007B681B681B6803F48073002B0FD17B68CE
:105120001B681A687B681B6822F010021A607B6893
:10513000012283F835207B68002283F834207B68C5
:10514000DB6B002B03D07B68DB6B786898477B6850
:105150005B6D002B32D07B685B6D03F00103002B8D
:1051600022D07B68052283F835207B681B681A688B
:105170007B681B6822F001021A60BB680133BB60C8
:105180007A699A4207D37B681B681B6803F00103A6
:10519000002BF2D100E000BF7B68012283F83520AC
:1051A0007B68002283F834207B68DB6C002B05D001
:1051B0007B68DB6C7868984700E000BF1837BD4615
:1051C00080BD00BF80B483B000AF78607B6893F887
:1051D0003530DBB218460C37BD465DF8047B7047AE
:1051E00080B485B000AFF860B9607A603B60FB685E
:1051F0001B681A68FB681B6822F480221A60FB682F
:105200001B683A685A60FB689B68402B08D1FB68B2
:105210001B687A689A60FB681B68BA68DA6007E006
:10522000FB681B68BA689A60FB681B687A68DA607A
:1052300000BF1437BD465DF8047B704780B485B06D
:1052400000AF78607B681B68DBB2103B144AA2FB9E
:1052500003231B09FB60134AFB6813441B781A469F
:105260007B68DA65FB68032B09D97B681B6823F42C
:105270007F7323F003031A1D7B689A6507E07B6840
:105280001B6823F47F7323F003037A6893657B68BC
:105290009B6D18461437BD465DF8047B704700BF10
:1052A000ABAAAAAA9464010880B485B000AF786064
:1052B0000023FB737B689B6ABB607B689B69002B48
:1052C0001FD1BB68032B56D801A252F823F000BFB0
:1052D000E1520008F3520008E15200087753000839
:1052E0007B68DB6A03F08073002B46D00123FB73DD
:1052F00043E07B68DB6AB3F1C07F40D10123FB73DD
:105300003DE07B689B69B3F5005F21D1BB68032B4F
:1053100037D801A252F823F0295300082F53000870
:1053200029530008415300080123FB7330E07B68D8
:10533000DB6A03F08073002B25D00123FB7322E08E
:105340007B68DB6AB3F1C07F1FD10123FB731CE0D4
:10535000BB68022B03D9BB68032B03D018E00123E1
:10536000FB7315E07B68DB6A03F08073002B0ED0C3
:105370000123FB730BE000BF0AE000BF08E000BFA1
:1053800006E000BF04E000BF02E000BF00E000BF95
:10539000FB7B18461437BD465DF8047B704700BFA1
:1053A00080B489B000AF7860396000237B6100234E
:1053B0003B610023BB610023FB616BE10122FB69C0
:1053C00002FA03F37B613B681B687A6913403B6117
:1053D0003A697B699A4240F05A813B685B6803F006
:1053E0000303012B05D03B685B6803F00303022B2A
:1053F00030D17B689B68BB61FB695B00032202FACA
:1054000003F3DB43BA691340BB613B68DA68FB69AD
:105410005B0002FA03F3BA691343BB617B68BA69A4
:105420009A607B685B68BB610122FB6902FA03F347
:10543000DB43BA691340BB613B685B681B0903F03F
:105440000102FB6902FA03F3BA691343BB617B688B
:10545000BA695A603B685B6803F00303032B17D0FB
:105460007B68DB68BB61FB695B00032202FA03F324
:10547000DB43BA691340BB613B689A68FB695B0018
:1054800002FA03F3BA691343BB617B68BA69DA6055
:105490003B685B6803F00303022B23D1FB69DA0846
:1054A0007B68083253F82230BB61FB6903F00703C5
:1054B0009B000F2202FA03F3DB43BA691340BB617E
:1054C0003B681A69FB6903F007039B0002FA03F3C8
:1054D000BA691343BB61FB69DA087B680832B969B2
:1054E00043F822107B681B68BB61FB695B000322E9
:1054F00002FA03F3DB43BA691340BB613B685B68A4
:1055000003F00302FB695B0002FA03F3BA69134379
:10551000BB617B68BA691A603B685B6803F440331F
:10552000002B00F0B4800023FB60604B5B6C5F4A93
:1055300043F4804353645D4B5B6C03F48043FB6036
:10554000FB685B4AFB699B08023352F82330BB615E
:10555000FB6903F003039B000F2202FA03F3DB4312
:10556000BA691340BB617B68524A93422BD07B6877
:10557000514A934225D07B68504A93421FD07B68A2
:105580004F4A934219D07B684E4A934213D07B68AE
:105590004D4A93420DD07B684C4A934207D07B68BA
:1055A0004B4A934201D107230EE008230CE0062367
:1055B0000AE0052308E0042306E0032304E00223B5
:1055C00002E0012300E00023FA6902F003029200E6
:1055D0009340BA691343BB613549FB699B080233A9
:1055E000BA6941F823203B4B1B68BB613B69DB4335
:1055F000BA691340BB613B685B6803F48033002BDE
:1056000003D0BA693B691343BB61324ABB6913607B
:10561000304B5B68BB613B69DB43BA691340BB61DC
:105620003B685B6803F40033002B03D0BA693B6925
:105630001343BB61274ABB695360264B9B68BB6120
:105640003B69DB43BA691340BB613B685B6803F4A9
:105650008013002B03D0BA693B691343BB611D4A19
:10566000BB6993601B4BDB68BB613B69DB43BA6979
:105670001340BB613B685B6803F40013002B03D04D
:10568000BA693B691343BB61124ABB69D360FB69CA
:105690000133FB61FB690F2B7FF690AE00BF00BFAB
:1056A0002437BD465DF8047B704700BF00380240D8
:1056B000003801400000024000040240000802409F
:1056C000000C02400010024000140240001802408A
:1056D000001C0240003C014080B483B000AF786001
:1056E0000B467B8013467B707B78002B03D07A8837
:1056F0007B689A6103E07B881A047B689A6100BF2B
:105700000C37BD465DF8047B704780B485B000AFB0
:1057100078600B467B807B685B69FB607A88FB68FE
:1057200013401A04FB68D9437B880B401A437B68FB
:105730009A6100BF1437BD465DF8047B70470000D6
:1057400080B584B000AF78607B68002B01D1012365
:105750002BE17B6893F83D30DBB2002B06D17B68F0
:10576000002283F83C207868FDF79CFF7B682422A8
:1057700083F83D207B681B681A687B681B6822F0F1
:1057800001021A607B681B681A687B681B6842F418
:1057900000421A607B681B681A687B681B6822F4E9
:1057A00000421A6002F0CCF9F8607B685B68814ABD
:1057B000934207D8FB68804A934294BF0123002399
:1057C000DBB206E0FB687D4A934294BF01230023CD
:1057D000DBB2002B01D00123E7E0FB68784AA2FB93
:1057E00003239B0CBB607B681B685B6823F03F0155
:1057F0007B681B68BA680A435A607B681B681B6A2F
:1058000023F03F017B685B686A4A934202D8BB6819
:10581000013309E0BB684FF4967202FB03F3694A57
:10582000A2FB03239B0901337A6812680B431362BE
:105830007B681B68DB6923F44F4222F0FF027B6820
:105840005B685C498B4219D8FB68591E7B685B68B2
:105850005B00B1FBF3F3591C40F6FC730B40002BCB
:105860000AD0FB68591E7B685B685B00B1FBF3F3F1
:105870000133C3F30B0351E004234FE07B689B68C3
:10588000002B11D1FB68581E7B6859680B465B00E2
:105890000B44B0FBF3F30133C3F30B03002B0CBF3A
:1058A00001230023DBB212E0FB68581E7B685968B5
:1058B0000B469B000B4499000B44B0FBF3F3013300
:1058C000C3F30B03002B0CBF01230023DBB2002B1F
:1058D00001D0012322E07B689B68002B0ED1FB687E
:1058E000581E7B6859680B465B000B44B0FBF3F312
:1058F0000133C3F30B0343F400430FE0FB68581E6E
:105900007B6859680B469B000B4499000B44B0FB25
:10591000F3F30133C3F30B0343F44043796809689D
:105920001343CB617B681B681B6823F0C0017B6855
:10593000DA697B681B6A1A437B681B680A431A6032
:105940007B681B689B6823F4034323F0FF037A689A
:1059500011697A68D26811437A6812680B439360C0
:105960007B681B68DB6823F0FF017B685A697B68F2
:105970009B691A437B681B680A43DA607B681B6873
:105980001A687B681B6842F001021A607B6800227B
:105990001A647B68202283F83D207B6800221A630A
:1059A0007B68002283F83E20002318461037BD464E
:1059B00080BD00BFA08601007F841E00FF083D005F
:1059C00083DE1B43D34D621080B487B000AFF86014
:1059D000084611461A4603467B810B463B81134617
:1059E000FB8000237B61FB6893F83D30DBB2202B0A
:1059F00040F09A80504B1B68DB08504AA2FB0323FF
:105A00001A0A13469B0013449A0013447B617B6976
:105A1000013B7B617B69002B16D1FB6800221A6376
:105A2000FB68202283F83D20FB68002283F83E209B
:105A3000FB681B6C43F02002FB681A64FB680022C1
:105A400083F83C20012370E0FB681B689B6903F02E
:105A50000203022BDBD0FB6893F83C30012B01D111
:105A6000022362E0FB68012283F83C20FB681B688C
:105A70001B6803F00103012B07D0FB681B681A6841
:105A8000FB681B6842F001021A60FB681B681A6819
:105A9000FB681B6822F400621A60FB68222283F80C
:105AA0003D20FB68402283F83E20FB6800221A64F8
:105AB000FB683A6A5A62FB68BA8C5A85FB685B8D50
:105AC0009AB2FB681A85FB681D4ADA627A89FB681C
:105AD0005A643A89FB689A64FA88FB68DA64FB685E
