:020000040800F2
:1000000000000220D51300089D110008A31100086C
:10001000A9110008AF110008B51100080000000088
:10002000000000000000000000000000BB110008FC
:10003000C911000800000000D7110008E5110008F0
:1000400025140008251400082514000825140008AC
:10005000251400082514000825140008251400089C
:10006000251400082514000825140008251400088C
:10007000251400082514000825140008251400087C
:10008000251400082514000825140008251400086C
:10009000251400082514000825140008251400085C
:1000A000251400082514000825140008251400084C
:1000B000F111000825140008251400082514000873
:1000C000251400082514000825140008051200084E
:1000D000251400081912000825140008251400082A
:1000E000251400082514000825140008251400080C
:1000F00025140008251400082514000825140008FC
:1001000025140008251400082514000825140008EB
:1001100025140008251400082514000825140008DB
:100120002D120008251400082514000825140008C5
:1001300025140008251400082514000825140008BB
:1001400025140008251400082514000825140008AB
:10015000251400082514000825140008251400089B
:10016000251400082514000825140008251400088B
:1001700025140008251400082514000800000000BC
:080180002514000825140008F5
:1001900010B5054C237833B9044B13B10448AFF3C1
:1001A00000800123237010BD7400002000000000B7
:1001B000C062000808B5034B1BB103490348AFF305
:1001C000008008BD0000000078000020C062000828
:1001D00001F0FF01102A2BDB10F0070F08D010F8F8
:1001E000013B013A8B422DD010F0070F42B3F6D1FC
:1001F000F0B441EA012141EA014122F007047FF015
:1002000000070023F0E80256083C85EA010586EA6B
:10021000010685FA47F5A3FA87F586FA47F6A5FAA7
:1002200087F68EB9EED1F0BC01F0FF0102F00702B3
:1002300032B110F8013B013A83EA010313B1F8D15E
:100240000020704701387047002D06BF354603383F
:10025000073815F0010F07D1013015F4807F02BF78
:10026000013015F4C03F0130F0BC0138704700BFC9
:1002700053B94AB9002908BF00281CBF4FF0FF310D
:100280004FF0FF3000F06EB9ADF1080C6DE904CE0F
:1002900000F006F8DDF804E0DDE9022304B0704761
:1002A0002DE9F047089D04468C46002B40F08380E2
:1002B0008A42174647D9B2FA82F242B1C2F120000F
:1002C00024FA00F09140974040EA010C94404FEA34
:1002D0001748230CBCFBF8F61FFA87FE08FB16C173
:1002E00043EA014306FB0EF1994209D9FB1806F1D6
:1002F000FF3080F01981994240F21681023E3B4462
:100300005B1AA4B2B3FBF8F008FB103344EA0344D1
:1003100000FB0EFEA64509D93C1900F1FF3380F021
:100320000581A64540F2028102383C4440EA06407D
:10033000A4EB0E0400261DB1D4400023C5E9004300
:100340003146BDE8F08702B9FFDEB2FA82F2002A38
:1003500050D1CB1B4FEA174E1FFA87F80126B3FB8B
:10036000FEFC210C0EFB1C3341EA034108FB0CF39D
:100370008B4207D979180CF1FF3002D28B4200F280
:10038000E9808446C91AA3B2B1FBFEF00EFB10113E
:1003900043EA014408FB00F8A04507D93C1900F1E5
:1003A000FF3302D2A04500F2D9801846A4EB08041E
:1003B00040EA0C40BFE78B4209D9002D00F0B18024
:1003C0000026C5E9000130463146BDE8F087B3FAA2
:1003D00083F6002E4AD18B4202D3824200F2B880CB
:1003E000841A61EB030101208C46002DA8D0C5E9D9
:1003F000004CA5E7C2F1200320FA03F6974001FA6A
:1004000002F04FEA174ED9403043030CB1FBFEF621
:100410001FFA87F80EFB161143EA014306FB08F1A9
:10042000994204FA02F409D9FB1806F1FF3C80F066
:100430008D80994240F28A80023E3B445B1A81B231
:10044000B3FBFEF00EFB103341EA034100FB08F35F
:100450008B4207D9791800F1FF3C73D28B4271D9D6
:1004600002383944CB1A40EA064678E7C6F1200C38
:1004700003FA06F422FA0CF31C4320FA0CF701FAF3
:1004800006F34FEA144E21FA0CF11F433B0CB1FB6B
:10049000FEF91FFA84F80EFB191143EA014109FB2A
:1004A00008FA8A4502FA06F200FA06F308D961183A
:1004B00009F1FF3048D28A4546D9A9F10209214401
:1004C000A1EB0A01BFB2B1FBFEF00EFB101147EA2F
:1004D000014700FB08F8B84507D9E71900F1FF31DB
:1004E0002ED2B8452CD90238274440EA0940A7EB60
:1004F0000807A0FB02894F45C64649461AD317D0C4
:100500005DB1B3EB0E0267EB010707FA0CFCF2409A
:100510004CEA0202F740C5E9002700263146BDE853
:10052000F0872E4628460BE70646E9E61846FDE624
:100530004345E5D2B8EB020E69EB04010138DFE771
:100540000846D2E760468DE78146B9E7664675E71B
:1005500030464AE7ACF1020C394413E702383C4418
:1005600024E700BF704700BF80B582B000AF002213
:1005700008212A4802F08CFA01220821274802F0BB
:1005800087FA012301222649264803F0EEF880234A
:10059000FB7100233B6038E0FB790F2B17D9204B10
:1005A0001A78FB791340DBB2002B06D03B68C3F10D
:1005B00003031D4A0021D15421E03B68C3F103032A
:1005C000194AD25C0132D1B2174AD15417E0144B08
:1005D0001A78FB791340DBB2002B05D0124A3B6836
:1005E000134400221A700AE00F4A3B6813441B7838
:1005F0000133D9B20C4A3B6813440A461A70FB799E
:100600005B08FB713B6801333B603B68072BC3DD34
:1006100000BF00BF0837BD4680BD00BF000C0240D0
:10062000980000200C0100209000002080B500AF51
:1006300000224021474802F02BFA474B1B681A461C
:10064000464BD11801230122454802F052FF0122F6
:100650004021404802F01CFA3F4B1B68032B6BD82B
:1006600001A252F823F000BF79060008A90600088D
:10067000D90600080907000800224FF480613948B4
:1006800002F006FA01224FF40061374802F000FA46
:1006900001220421334802F0FBF901224FF40061EA
:1006A000304802F0F5F947E001224FF480612D480F
:1006B00002F0EEF900224FF400612B4802F0E8F955
:1006C00001220421274802F0E3F901224FF40061DE
:1006D000244802F0DDF92FE001224FF48061214827
:1006E00002F0D6F901224FF400611F4802F0D0F960
:1006F000002204211B4802F0CBF901224FF40061D3
:10070000184802F0C5F917E001224FF4806115483E
:1007100002F0BEF901224FF40061134802F0B8F96B
:10072000012204210F4802F0B3F900224FF40061C6
:100730000C4802F0ADF900BF074B1B6801335A4269
:1007400003F0030302F0030258BF5342024A13604E
:1007500000BF80BD001802409C0000200000002067
:100760000C010020000402400014024080B485B057
:1007700000AF786039607B68092B43DC7B68002B15
:1007800040DB0023FB737B68092B35D801A252F8AC
:1007900023F000BFBD070008C3070008C907000811
:1007A000CF070008D5070008DB070008E1070008AD
:1007B000E7070008ED070008F30700080323FB73B1
:1007C0001AE09E23FB7317E02523FB7314E00D232F
:1007D000FB7311E09923FB730EE04923FB730BE0DD
:1007E0004123FB7308E01F23FB7305E00123FB7328
:1007F00002E00923FB7300BF3B68013B0449FA7B1D
:10080000CA5400E000BF1437BD465DF8047B704752
:100810000000002080B500AF00F006FE00F0ACF84C
:1008200000F032FA00F09AF900F0E4F900F060F913
:1008300000F00AFA00F0FCF8404803F0E7FC4048FA
:1008400002F0CEFD3F4800F061FE01223E493F48E4
:1008500004F0EDF9012208213D4802F019F90022C7
:100860004FF480613B4802F013F900224FF400611D
:10087000394802F00DF900220421364802F008F947
:1008800000224FF40061334802F002F901224021B6
:10089000324802F0FDF801221021314802F0F8F848
:1008A00001210920FFF762FF02210220FFF75EFF0E
:1008B00003210320FFF75AFF04210420FFF756FF0E
:1008C0004FF47A7000F004FD322000F017FD022092
:1008D00000F028FD234B1B68012B24D14FF47A70C4
:1008E00000F0F6FC10211E4802F0EBF820211C4815
:1008F00002F0E7F840211A4802F0E3F802221A4910
:10090000104800F047FE184B1A68174B5B681749F0
:10091000174805F0A7F803469AB24FF47A731449C2
:100920000A4804F0F2F8134B1B68002BD2D0FFF7F3
:100930001BFE322000F0E2FCCCE700BF6401002087
:100940000C010020AC010020A0000020C800002005
:10095000000C024000040240001402400018024053
:1009600000100240A8000020F4010020D862000816
:100970005C020020AC00002080B594B000AF07F10D
:10098000200330220021184605F064F807F10C031B
:1009900000221A605A609A60DA601A610023BB6014
:1009A000214B1B6C204A43F0805313641E4B1B6C7D
:1009B00003F08053BB60BB6800237B601B4B1B684C
:1009C0001A4A43F480431360184B1B6803F48043B6
:1009D0007B607B6801233B624FF480337B620023A2
:1009E000BB6307F12003184602F086F80346002B8C
:1009F00001D000F067FA0F23FB6001233B61002365
:100A00007B610023BB610023FB6107F10C03002124
:100A1000184602F0E9FA0346002B01D000F052FA22
:100A200000BF5037BD4680BD003802400070004016
:100A300080B584B000AF3B4600221A605A609A60CD
:100A4000DA60284B284A1A60264B00225A60254B50
:100A500000229A60234B01221A61224B01221A764E
:100A6000204B002283F820201E4B0022DA621D4B0F
:100A70001E4A9A621B4B0022DA601A4B0222DA618C
:100A8000184B002283F83020164B01225A6115487A
:100A900000F03CFD0346002B01D000F013FA0A23BE
:100AA0003B6001237B600123BB603B4619460D4838
:100AB00000F09EFE0346002B01D000F003FA0B234A
:100AC0003B6002237B603B461946064800F090FEDF
:100AD0000346002B01D000F0F5F900BF1037BD46EA
:100AE00080BD00BFAC010020002001400100000FCC
:100AF00080B500AF174B184A1A60164B4FF482723C
:100B00005A60144B00229A60124B0022DA60114B9B
:100B100000221A610F4B00225A610E4B4FF40072F3
:100B20009A610C4B0022DA610A4B00221A62094BCF
:100B300000225A62074B00229A62064B0A22DA62AE
:100B4000044802F04DFC0346002B01D000F0BAF936
:100B500000BF80BD0C0100200030014080B586B090
:100B600000AF07F1080300221A605A609A60DA6049
:100B70003B4600221A605A601D4B4FF080421A60BB
:100B80001B4B40F21F325A60194B00229A60184BDF
:100B90000922DA60164B00221A61154B00229A6175
:100BA000134803F0E3FA0346002B01D000F08AF962
:100BB0004FF48053BB6007F1080319460C4803F05B
:100BC0009DFC0346002B01D000F07CF900233B6024
:100BD00000237B603B461946054803F0B9FE0346F7
:100BE000002B01D000F06EF900BF1837BD4680BD64
:100BF0006401002080B500AF114B124A1A60104BFF
:100C00004FF4E1325A600E4B00229A600C4B0022E6
:100C1000DA600B4B00221A61094B0C225A61084B17
:100C200000229A61064B0022DA61054803F020FF9A
:100C30000346002B01D000F045F900BF80BD00BF86
:100C4000C80000200010014080B582B000AF002332
:100C50007B600C4B1B6B0B4A43F480031363094B03
:100C60001B6B03F480037B607B680022002138202B
:100C700001F039F9382001F052F900BF0837BD46BC
:100C800080BD00BF0038024080B58EB000AF07F1D4
:100C9000240300221A605A609A60DA601A61002305
:100CA0003B626A4B1B6B694A43F010031363674B4B
:100CB0001B6B03F010033B623B6A0023FB61634B39
:100CC0001B6B624A43F080031363604B1B6B03F0A2
:100CD0008003FB61FB690023BB615C4B1B6B5B4AC0
:100CE00043F004031363594B1B6B03F00403BB6114
:100CF000BB6900237B61554B1B6B544A43F00203D5
:100D00001363524B1B6B03F002037B617B6900236F
:100D10003B614E4B1B6B4D4A43F0200313634B4B1F
:100D20001B6B03F020033B613B690023FB60474BD7
:100D30001B6B464A43F040031363444B1B6B03F0A9
:100D40004003FB60FB680023BB60404B1B6B3F4ACA
:100D500043F0010313633D4B1B6B03F00103BB60C6
:100D6000BB6800237B60394B1B6B384A43F0080398
:100D70001363364B1B6B03F008037B607B68002218
:100D80007021334801F084FE002240F604413148CE
:100D900001F07EFE00224FF400612F4801F078FE42
:100DA000002240212D4801F073FE002248212C48EA
:100DB00001F06EFE70237B620123BB620023FB62A5
:100DC00000233B6307F124031946214801F0C4FCCA
:100DD00040F604437B620123BB620023FB620023D5
:100DE0003B6307F1240319461A4801F0B5FC4FF4A0
:100DF00000637B620123BB620023FB6200233B6331
:100E000007F124031946144801F0A6FC40237B6235
:100E10000123BB620023FB6200233B6307F1240331
:100E200019460E4801F098FC48237B620123BB62FF
:100E30000023FB6200233B6307F1240319460848A3
:100E400001F08AFC00BF3837BD4680BD0038024043
:100E5000001002400004024000140240001802404A
:100E6000000C024080B582B000AF78607B681B68E0
:100E7000B3F1804F03D100F069FAFFF7D7FB00BF51
:100E80000837BD4680BD000080B582B000AF7860F5
:100E90007B681B68084A93420AD132230122074922
:100EA000074803F032FE01220449054803F0BFFE63
:100EB00000BF0837BD4680BD00100140A0000020E3
:100EC000C800002080B400AF72B600BFFEE700008B
:100ED00080B483B000AF00237B60104B5B6C0F4A83
:100EE00043F4804353640D4B5B6C03F480437B609D
:100EF0007B6800233B60094B1B6C084A43F080531E
:100F00001364064B1B6C03F080533B603B6800BFCF
:100F10000C37BD465DF8047B704700BF00380240C7
:100F200080B58AB000AF786007F1140300221A6020
:100F30005A609A60DA601A617B681B682F4A934294
:100F400057D100233B612E4B5B6C2D4A43F48073D9
:100F500053642B4B5B6C03F480733B613B69002350
:100F6000FB60274B1B6B264A43F004031363244B9F
:100F70001B6B03F00403FB60FB6803237B6103230B
:100F8000BB610023FB6107F1140319461D4801F002
:100F9000E3FB1D4B1D4A1A601B4B00225A601A4B83
:100FA00000229A60184B0022DA60174B4FF48062DF
:100FB0001A61154B4FF480525A61134B4FF4804223
:100FC0009A61114B4FF48072DA610F4B00221A6262
:100FD0000D4B00225A620C4800F0BCFF0346002B68
:100FE00001D0FFF76FFF7B68074A9A63064A7B6868
:100FF000936300BF2837BD4680BD00BF002001407D
:101000000038024000080240FC0100201064024049
:1010100080B58AB000AF786007F1140300221A602F
:101020005A609A60DA601A617B681B681D4A9342B5
:1010300033D100233B611C4B5B6C1B4A43F4805350
:101040005364194B5B6C03F480533B613B69002391
:10105000FB60154B1B6B144A43F002031363124BE6
:101060001B6B03F00203FB60FB6838237B610223E8
:10107000BB610023FB6103233B6205237B6207F115
:1010800014031946094801F067FB002200212320C0
:1010900000F029FF232000F042FF00BF2837BD46A3
:1010A00080BD00BF00300140003802400004024013
:1010B00080B584B000AF78607B681B68B3F1804F67
:1010C00015D10023FB600C4B1B6C0B4A43F0010352
:1010D0001364094B1B6C03F00103FB60FB680022E7
:1010E00000211C2000F0FFFE1C2000F018FF00BFB4
:1010F0001037BD4680BD00BF0038024080B58AB0C1
:1011000000AF786007F1140300221A605A609A60F9
:10111000DA601A617B681B681D4A934234D1002350
:101120003B611C4B5B6C1B4A43F010035364194B2F
:101130005B6C03F010033B613B690023FB60154BC4
:101140001B6B144A43F001031363124B1B6B03F038
:101150000103FB60FB684FF4C0637B610223BB614A
:101160000023FB6103233B6207237B6207F1140327
:101170001946094801F0F0FA00220021252000F06C
:10118000B2FE252000F0CBFE00BF2837BD4680BD53
:1011900000100140003802400000024080B400AF5F
:1011A000FEE780B400AFFEE780B400AFFEE780B496
:1011B00000AFFEE780B400AFFEE780B400AF00BF31
:1011C000BD465DF8047B704780B400AF00BFBD46EC
:1011D0005DF8047B704780B400AF00BFBD465DF88A
:1011E000047B704780B500AF00F070F900BF80BD90
:1011F00080B500AF024803F079F800BF80BD00BFA2
:101200006401002080B500AF024802F061FD00BF1C
:1012100080BD00BF0C01002080B500AF024803F084
:1012200037FD00BF80BD00BFC800002080B500AF03
:10123000024801F027F800BF80BD00BFFC0100207C
:1012400080B586B000AF7860144A154BD31A7B6125
:101250007B693B61134B1B68002B02D1114B124A77
:101260001A60104B1A687B6813443A699A4207D295
:1012700004F0C6FB03460C221A604FF0FF3309E06E
:10128000084B1B68FB60074B1A687B681344054AD0
:101290001360FB6818461837BD4680BD0000022069
:1012A00000040000A4000020D802002080B400AF99
:1012B000064BD3F88830054A43F47003C2F88830EF
:1012C00000BFBD465DF8047B704700BF00ED00E045
:1012D00080B483B000AF7860064B4FF47A721A6026
:1012E000054B00221A6000BF0C37BD465DF8047B39
:1012F000704700BFB4000020A800002080B483B075
:1013000000AF7860054A7B681360054B00221A60C5
:1013100000BF0C37BD465DF8047B7047B800002065
:10132000AC00002080B483B000AF7860054A7B68D1
:101330001360054B00221A6000BF0C37BD465DF8F4
:10134000047B7047BC000020B000002080B400AFD8
:101350001A4B1B68002B0BDD184B1B68013B174A0F
:101360001360164B1B68002B02D1154B01221A602B
:10137000144B1B68002B0BDD124B1B68013B114A01
:101380001360104B1B68002B02D10F4B01221A6017
:101390000E4B1B68002B0BDD0C4B1B68013B0B4AF3
:1013A00013600A4B1B68002B02D1094B01221A6003
:1013B00000BFBD465DF8047B704700BFB40000204D
:1013C000A8000020B8000020AC000020BC000020D5
:1013D000B0000020DFF834D00D480E490E4A00233B
:1013E00002E0D458C4500433C4188C42F9D30B4AD9
:1013F0000B4C002301E013600432A242FBD3FFF741
:1014000055FF04F003FBFFF705FA704700000220C8
:1014100000000020740000205463000874000020C5
:10142000D4020020FEE7000080B500AF0E4B1B6821
:101430000D4A43F4007313600B4B1B680A4A43F4D4
:1014400080631360084B1B68074A43F48073136082
:10145000032000F03DFD0F2000F008F8FFF738FDF5
:101460000023184680BD00BF003C024080B582B01A
:1014700000AF7860124B1A68124B1B7819464FF474
:101480007A73B3FBF1F3B2FBF3F3184600F055FDAA
:101490000346002B01D001230EE07B680F2B0AD8F6
:1014A000002279684FF0FF3000F01DFD064A7B688E
:1014B0001360002300E0012318460837BD4680BDB5
:1014C000040000200C0000200800002080B400AFC1
:1014D000064B1B781A46064B1B681344044A1360DC
:1014E00000BFBD465DF8047B704700BF0C000020C4
:1014F000C002002080B400AF034B1B681846BD46F5
:101500005DF8047B704700BFC002002080B584B046
:1015100000AF78600023FB737B68002B01D10123AF
:1015200033E07B681B6C002B09D17868FFF7F8FC6F
:101530007B6800225A647B68002283F83C207B6829
:101540001B6C03F01003002B18D17B681B6C23F479
:10155000885323F0020343F002027B681A64786820
:1015600000F068FA7B6800225A647B681B6C23F0E9
:10157000030343F001027B681A6401E00123FB735B
:101580007B68002283F83C20FB7B18461037BD4661
:1015900080BD000080B586B000AFF860B9607A60A9
:1015A00000233B61FB6893F83C30012B01D10223FF
:1015B000E9E0FB68012283F83C20FB681B689B681C
:1015C00003F00103012B18D0FB681B689A68FB68C5
:1015D0001B6842F001029A606D4B1B686D4AA2FBCA
:1015E00003239A0C13465B0013443B6102E03B6902
:1015F000013B3B613B69002BF9D1FB681B689B6891
:1016000003F48073B3F5807F07D1FB681B689A6889
:10161000FB681B6822F480729A60FB681B689B68F9
:1016200003F00103012B40F0A180FB681B6C23F445
:10163000E06323F0010343F48072FB681A64FB68E3
:101640001B685B6803F48063002B07D0FB681B6C8E
:1016500023F4405343F48052FB681A64FB681B6C0C
:1016600003F48053B3F5805F06D1FB685B6C23F015
:101670000602FB685A6402E0FB6800225A64FB68B9
:10168000002283F83C20444B7B61FB689B6B434A00
:10169000DA63FB689B6B424A1A64FB689B6B414AA6
:1016A000DA64FB681B686FF022021A60FB681B6833
:1016B0005A68FB681B6842F080625A60FB681B68CE
:1016C0009A68FB681B6842F480729A60FB68986BAA
:1016D000FB681B684C331946BA687B6800F0E8FC6D
:1016E0007B695B6803F01F03002B2AD1FB681B6832
:1016F0002D4A934215D0FB681B682C4A934205D1B2
:10170000254B5B6803F01F03002B0AD0FB681B68A6
:10171000274A934236D1204B5B6803F01003002B1D
:1017200030D1FB681B689B6803F04053002B29D124
:10173000FB681B689A68FB681B6842F080429A60ED
:1017400020E0FB681B68184A93421BD1FB681B68AA
:101750009B6803F04053002B14D1FB681B689A6808
:10176000FB681B6842F080429A600BE0FB681B6CD0
:1017700043F01002FB681A64FB685B6C43F00102E3
:10178000FB685A64002318461837BD4680BD00BF69
:101790000400002083DE1B43002301402D1C0008B1
:1017A000E71C0008031D0008002001400021014043
:1017B0000022014080B483B000AF786000BF0C37D6
:1017C000BD465DF8047B704780B483B000AF78609D
:1017D00000BF0C37BD465DF8047B704780B483B012
:1017E00000AF786000BF0C37BD465DF8047B7047E2
:1017F00080B485B000AF786039600023BB607B683F
:1018000093F83C30012B01D1022305E17B680122D2
:1018100083F83C203B681B68092B25D97B681B6833
:10182000D9683B681B689BB21A4613465B00134499
:101830001E3B072202FA03F3DA437B681B680A4067
:10184000DA607B681B68D9683B689A683B681B68EC
:101850009BB2184603465B0003441E3B9A407B68DC
:101860001B680A43DA6022E07B681B6819693B68E1
:101870001B689BB21A4613465B001344072202FA08
:1018800003F3DA437B681B680A401A617B681B68B4
:1018900019693B689A683B681B689BB21846034607
:1018A0005B0003449A407B681B680A431A613B68EB
:1018B0005B68062B24D87B681B68596B3B685A68A9
:1018C00013469B001344053B1F2202FA03F3DA433D
:1018D0007B681B680A405A637B681B68596B3B68CE
:1018E0001B689BB218463B685A6813469B0013441A
:1018F000053B00FA03F27B681B680A435A634CE01D
:101900003B685B680C2B24D87B681B68196B3B68B1
:101910005A6813469B001344233B1F2202FA03F329
:10192000DA437B681B680A401A637B681B68196B83
:101930003B681B689BB218463B685A6813469B007D
:101940001344233B00FA03F27B681B680A431A63C3
:1019500023E07B681B68D96A3B685A6813469B0082
:101960001344413B1F2202FA03F3DA437B681B68EE
:101970000A40DA627B681B68D96A3B681B689BB2C5
:1019800018463B685A6813469B001344413B00FAD3
:1019900003F27B681B680A43DA62224BFB607B68B8
:1019A0001B68214A934209D13B681B68122B05D161
:1019B000FB685B6843F48002FB685A607B681B68C5
:1019C000194A934223D13B681B68102B03D03B6814
:1019D0001B68112B1BD1FB685B6843F40002FB689A
:1019E0005A603B681B68102B11D1104B1B68104AC2
:1019F000A2FB03239A0C13469B0013445B00BB60BD
:101A000002E0BB68013BBB60BB68002BF9D17B687F
:101A1000002283F83C20002318461437BD465DF8A9
:101A2000047B704700230140002001400400002097
:101A300083DE1B4380B485B000AF7860794BFB60D8
:101A4000FB685B6823F44032FB685A60FB685A68A5
:101A50007B685B681A43FB685A607B681B685A683E
:101A60007B681B6822F480725A607B681B68596827
:101A70007B681B691A027B681B680A435A607B6893
:101A80001B685A687B681B6822F040725A607B684A
:101A90001B6859687B689A687B681B680A435A60B0
:101AA0007B681B689A687B681B6822F400629A60F6
:101AB0007B681B6899687B68DA687B681B680A43E7
:101AC0009A607B689B6A584A934222D07B681B6865
:101AD0009A687B681B6822F070629A607B681B685A
:101AE00099687B689A6A7B681B680A439A607B687E
:101AF0001B689A687B681B6822F040529A607B687A
:101B00001B6899687B68DA6A7B681B680A439A607D
:101B10000FE07B681B689A687B681B6822F0706224
:101B20009A607B681B689A687B681B6822F0405249
:101B30009A607B681B689A687B681B6822F00202C7
:101B40009A607B681B6899687B681B7E5A007B687B
:101B50001B680A439A607B6893F82030002B1BD0E7
:101B60007B681B685A687B681B6842F400625A6095
:101B70007B681B685A687B681B6822F460425A6065
:101B80007B681B6859687B685B6A013B5A037B680A
:101B90001B680A435A6007E07B681B685A687B68C9
:101BA0001B6822F400625A607B681B68DA6A7B68F3
:101BB0001B6822F47002DA627B681B68D96A7B6852
:101BC000DB69013B1A057B681B680A43DA627B68A4
:101BD0001B689A687B681B6822F400729A607B68B5
:101BE0001B6899687B6893F830305A027B681B68E1
:101BF0000A439A607B681B689A687B681B6822F4BA
:101C000080629A607B681B6899687B685B699A024E
:101C10007B681B680A439A6000BF1437BD465DF8B5
:101C2000047B7047002301400100000F80B584B0A1
:101C300000AF78607B689B6BFB60FB681B6C03F0FC
:101C40005003002B3CD1FB681B6C43F40072FB6813
:101C50001A64FB681B689B6803F04053002B2BD170
:101C6000FB681B7E002B27D1FB681B68DB6A03F433
:101C70007003002B06D0FB681B689B6803F480632D
:101C8000002B19D1FB681B685A68FB681B6822F09F
:101C900020025A60FB681B6C23F48072FB681A6494
:101CA000FB681B6C03F48053002B05D1FB681B6C95
:101CB00043F00102FB681A64F868FFF77BFD0EE051
:101CC000FB681B6C03F01003002B03D0F868FFF7D0
:101CD00085FD04E0FB689B6BDB6C7868984700BF70
:101CE0001037BD4680BD80B584B000AF78607B689A
:101CF0009B6BFB60F868FFF767FD00BF1037BD46C0
:101D000080BD80B584B000AF78607B689B6BFB6062
:101D1000FB6840221A64FB685B6C43F00402FB68BA
:101D20005A64F868FFF75AFD00BF1037BD4680BD02
:101D300080B485B000AF78607B6803F00703FB6078
:101D40000C4BDB68BB60BA684FF6FF031340BB6007
:101D5000FB681A02BB68134343F0BF6343F40033CC
:101D6000BB60044ABB68D36000BF1437BD465DF852
:101D7000047B704700ED00E080B400AF044BDB68EB
:101D80001B0A03F007031846BD465DF8047B704745
:101D900000ED00E080B483B000AF0346FB7197F91B
:101DA0000730002B0BDBFB7903F01F02074997F983
:101DB00007305B09012000FA02F241F8232000BF3E
:101DC0000C37BD465DF8047B704700BF00E100E0C2
:101DD00080B483B000AF03463960FB7197F90730D8
:101DE000002B0ADB3B68DAB20C4997F90730120185
:101DF000D2B20B4483F800230AE03B68DAB2084908
:101E0000FB7903F00F03043B1201D2B20B441A76A4
:101E100000BF0C37BD465DF8047B704700E100E071
:101E200000ED00E080B489B000AFF860B9607A607E
:101E3000FB6803F00703FB61FB69C3F10703042B95
:101E400028BF0423BB61FB690433062B02D9FB695D
:101E5000033B00E000237B614FF0FF32BB6902FAD5
:101E600003F3DA43BB681A407B699A404FF0FF31B5
:101E70007B6901FA03F3D9437B680B40134318468F
:101E80002437BD465DF8047B7047000080B582B002
:101E900000AF78607B68013BB3F1807F01D3012301
:101EA0000FE00A4A7B68013B53600F214FF0FF307F
:101EB000FFF78EFF054B00229A60044B07221A6041
:101EC000002318460837BD4680BD00BF10E000E083
:101ED00080B582B000AF78607868FFF729FF00BF57
:101EE0000837BD4680BD80B586B000AF0346B960F7
:101EF0007A60FB7300237B61FFF73EFF78617A68AD
:101F0000B9687869FFF78EFF024697F90F301146DE
:101F10001846FFF75DFF00BF1837BD4680BD80B58E
:101F200082B000AF0346FB7197F907301846FFF700
:101F300031FF00BF0837BD4680BD80B582B000AF1D
:101F400078607868FFF7A2FF034618460837BD4659
:101F500080BD000080B586B000AF786000237B6153
:101F6000FFF7C8FA38617B68002B01D1012399E0A3
:101F70007B68022283F835207B68002283F83420B6
:101F80007B681B681A687B681B6822F001021A6074
:101F90000FE0FFF7AFFA02463B69D31A052B08D9C9
:101FA0007B6820225A657B68032283F8352003234F
:101FB00078E07B681B681B6803F00103002BE8D105
:101FC0007B681B681B687B617A69384B13407B61B7
:101FD0007B685A687B689B681A437B68DB681A4396
:101FE0007B681B691A437B685B691A437B689B6942
:101FF0001A437B68DB691A437B681B6A13437A695F
:1020000013437B617B685B6A042B07D17B68DA6AC8
:102010007B681B6B13437A6913437B617B681B6886
:102020007A691A607B681B685B697B617B6923F056
:1020300007037B617B685B6A7A6913437B617B681A
:102040005B6A042B17D17B689B6A7A6913437B61B7
:102050007B68DB6A002B0ED0786800F001FB03463A
:10206000002B08D07B6840225A657B68012283F8E8
:102070003520012316E07B681B687A695A6178680D
:1020800000F0B8FA0346FB607B68DB6D3F229A40A4
:10209000FB689A607B6800225A657B68012283F89E
:1020A0003520002318461837BD4680BD3F8010F00C
:1020B00080B586B000AFF860B9607A603B600023FD
:1020C000FB75FB689B6D3B61FB6893F83430012B1B
:1020D00001D1022340E0FB68012283F83420FB6831
:1020E00093F83530DBB2012B2FD1FB68022283F845
:1020F0003520FB6800225A653B687A68B968F86841
:1021000000F04AFAFB68DB6D3F229A403B699A6017
:10211000FB681B681A68FB681B6842F016021A60AD
:10212000FB681B6C002B07D0FB681B681A68FB68F8
:102130001B6842F008021A60FB681B681A68FB689B
:102140001B6842F001021A6005E0FB68002283F878
:1021500034200223FB75FB7D18461837BD4680BD31
:1021600080B584B000AF78607B689B6DFB60FFF743
:10217000C1F9B8607B6893F83530DBB2022B08D028
:102180007B6880225A657B68002283F83420012313
:1021900052E07B681B681A687B681B6822F0160295
:1021A0001A607B681B685A697B681B6822F0800292
:1021B0005A617B681B6C002B03D17B689B6C002BE6
:1021C00007D07B681B681A687B681B6822F00802CE
:1021D0001A607B681B681A687B681B6822F0010222
:1021E0001A6013E0FFF786F90246BB68D31A052B85
:1021F0000CD97B6820225A657B68032283F835203E
:102200007B68002283F83420032315E07B681B6879
:102210001B6803F00103002BE4D17B68DB6D3F22D8
:102220009A40FB689A607B68012283F835207B68BE
:10223000002283F83420002318461037BD4680BDA5
:1022400080B483B000AF78607B6893F83530DBB240
:10225000022B04D07B6880225A6501230CE07B6846
:10226000052283F835207B681B681A687B681B6829
:1022700022F001021A60002318460C37BD465DF8B3
:10228000047B704780B586B000AF78600023BB60E8
:10229000924B1B68924AA2FB03239B0A7B617B68DB
:1022A0009B6D3B613B691B68FB607B68DB6D0822B3
:1022B0009A40FB681340002B1AD07B681B681B6890
:1022C00003F00403002B13D07B681B681A687B683B
:1022D0001B6822F004021A607B68DB6D08229A40BA
:1022E0003B699A607B685B6D43F001027B685A65CD
:1022F0007B68DB6D01229A40FB681340002B12D0F3
:102300007B681B685B6903F08003002B0BD07B6844
:10231000DB6D01229A403B699A607B685B6D43F0FC
:1023200002027B685A657B68DB6D04229A40FB6879
:102330001340002B12D07B681B681B6803F002035C
:10234000002B0BD07B68DB6D04229A403B699A60BE
:102350007B685B6D43F004027B685A657B68DB6DCC
:1023600010229A40FB681340002B43D07B681B6807
:102370001B6803F00803002B3CD07B68DB6D102248
:102380009A403B699A607B681B681B6803F4802352
:10239000002B18D07B681B681B6803F40023002BFC
:1023A00008D17B681B6C002B24D07B681B6C786881
:1023B00098471FE07B689B6C002B1BD07B689B6C55
:1023C0007868984716E07B681B681B6803F4807385
:1023D000002B07D17B681B681A687B681B6822F09A
:1023E00008021A607B681B6C002B03D07B681B6C97
:1023F000786898477B68DB6D20229A40FB68134021
:10240000002B00F08E807B681B681B6803F01003B4
:10241000002B00F086807B68DB6D20229A403B69B0
:102420009A607B6893F83530DBB2052B36D17B6838
:102430001B681A687B681B6822F016021A607B68AA
:102440001B685A697B681B6822F080025A617B68AE
:102450001B6C002B03D17B689B6C002B07D07B6827
:102460001B681A687B681B6822F008021A607B6888
:10247000DB6D3F229A403B699A607B68012283F8BA
:1024800035207B68002283F834207B681B6D002B8D
:102490007DD07B681B6D7868984778E07B681B6807
:1024A0001B6803F48023002B1CD07B681B681B680F
:1024B00003F40023002B08D17B685B6C002B30D029
:1024C0007B685B6C786898472BE07B68DB6B002B44
:1024D00027D07B68DB6B7868984722E004000020F7
:1024E000B5814E1B7B681B681B6803F48073002B4F
:1024F0000FD17B681B681A687B681B6822F010028A
:102500001A607B68012283F835207B68002283F8FB
:1025100034207B68DB6B002B03D07B68DB6B786837
:1025200098477B685B6D002B32D07B685B6D03F056
:102530000103002B22D07B68052283F835207B68BD
:102540001B681A687B681B6822F001021A60BB686E
:102550000133BB607A699A4207D37B681B681B68AA
:1025600003F00103002BF2D100E000BF7B680122E1
:1025700083F835207B68002283F834207B68DB6C8D
:10258000002B05D07B68DB6C7868984700E000BFC3
:102590001837BD4680BD00BF80B485B000AFF8607D
:1025A000B9607A603B60FB681B681A68FB681B684F
:1025B00022F480221A60FB681B683A685A60FB6844
:1025C0009B68402B08D1FB681B687A689A60FB689F
:1025D0001B68BA68DA6007E0FB681B68BA689A6033
:1025E000FB681B687A68DA6000BF1437BD465DF887
:1025F000047B704780B485B000AF78607B681B684F
:10260000DBB2103B144AA2FB03231B09FB60134AF5
:10261000FB6813441B781A467B68DA65FB68032B5A
:1026200009D97B681B6823F47F7323F003031A1D09
:102630007B689A6507E07B681B6823F47F7323F04F
:1026400003037A6893657B689B6D18461437BD4613
:102650005DF8047B704700BFABAAAAAA0863000814
:1026600080B485B000AF78600023FB737B689B6A01
:10267000BB607B689B69002B1FD1BB68032B56D8BE
:1026800001A252F823F000BF99260008AB260008EB
:10269000992600082F2700087B68DB6A03F0807307
:1026A000002B46D00123FB7343E07B68DB6AB3F168
:1026B000C07F40D10123FB733DE07B689B69B3F58C
:1026C000005F21D1BB68032B37D801A252F823F059
:1026D000E1260008E7260008E1260008F9260008A0
:1026E0000123FB7330E07B68DB6A03F08073002B0F
:1026F00025D00123FB7322E07B68DB6AB3F1C07F46
:102700001FD10123FB731CE0BB68022B03D9BB68FC
:10271000032B03D018E00123FB7315E07B68DB6A11
:1027200003F08073002B0ED00123FB730BE000BF7E
:102730000AE000BF08E000BF06E000BF04E000BF01
:1027400002E000BF00E000BFFB7B18461437BD4627
:102750005DF8047B704700BF80B489B000AF78603B
:10276000396000237B6100233B610023BB610023B0
:10277000FB616BE10122FB6902FA03F37B613B68B9
:102780001B687A6913403B613A697B699A4240F061
:102790005A813B685B6803F00303012B05D03B685B
:1027A0005B6803F00303022B30D17B689B68BB613D
:1027B000FB695B00032202FA03F3DB43BA691340AF
:1027C000BB613B68DA68FB695B0002FA03F3BA6934
:1027D0001343BB617B68BA699A607B685B68BB61C5
:1027E0000122FB6902FA03F3DB43BA691340BB61C0
:1027F0003B685B681B0903F00102FB6902FA03F303
:10280000BA691343BB617B68BA695A603B685B680D
:1028100003F00303032B17D07B68DB68BB61FB6904
:102820005B00032202FA03F3DB43BA691340BB6186
:102830003B689A68FB695B0002FA03F3BA691343C9
:10284000BB617B68BA69DA603B685B6803F00303CD
:10285000022B23D1FB69DA087B68083253F8223057
:10286000BB61FB6903F007039B000F2202FA03F32D
:10287000DB43BA691340BB613B681A69FB6903F02B
:1028800007039B0002FA03F3BA691343BB61FB69B8
:10289000DA087B680832B96943F822107B681B6844
:1028A000BB61FB695B00032202FA03F3DB43BA69F5
:1028B0001340BB613B685B6803F00302FB695B008C
:1028C00002FA03F3BA691343BB617B68BA691A6001
:1028D0003B685B6803F44033002B00F0B4800023B6
:1028E000FB60604B5B6C5F4A43F4804353645D4B19
:1028F0005B6C03F48043FB60FB685B4AFB699B08ED
:10290000023352F82330BB61FB6903F003039B00E1
:102910000F2202FA03F3DB43BA691340BB617B6801
:10292000524A93422BD07B68514A934225D07B6810
:10293000504A93421FD07B684F4A934219D07B681C
:102940004E4A934213D07B684D4A93420DD07B6828
:102950004C4A934207D07B684B4A934201D10723EC
:102960000EE008230CE006230AE0052308E0042318
:1029700006E0032304E0022302E0012300E0002339
:10298000FA6902F0030292009340BA691343BB61F3
:102990003549FB699B080233BA6941F823203B4B58
:1029A0001B68BB613B69DB43BA691340BB613B6891
:1029B0005B6803F48033002B03D0BA693B6913438F
:1029C000BB61324ABB691360304B5B68BB613B69DA
:1029D000DB43BA691340BB613B685B6803F40033B7
:1029E000002B03D0BA693B691343BB61274ABB691B
:1029F0005360264B9B68BB613B69DB43BA6913405C
:102A0000BB613B685B6803F48013002B03D0BA6999
:102A10003B691343BB611D4ABB6993601B4BDB6879
:102A2000BB613B69DB43BA691340BB613B685B68D0
:102A300003F40013002B03D0BA693B691343BB6155
:102A4000124ABB69D360FB690133FB61FB690F2B41
:102A50007FF690AE00BF00BF2437BD465DF8047B13
:102A6000704700BF003802400038014000000240BB
:102A70000004024000080240000C02400010024026
:102A80000014024000180240001C0240003C0140BB
:102A900080B483B000AF78600B467B8013467B70B8
:102AA0007B78002B03D07A887B689A6103E07B886F
:102AB0001A047B689A6100BF0C37BD465DF8047B41
:102AC000704780B485B000AF78600B467B807B6830
:102AD0005B69FB607A88FB6813401A04FB68D94382
:102AE0007B880B401A437B689A6100BF1437BD4650
:102AF0005DF8047B7047000080B586B000AF786059
:102B00007B68002B01D1012364E27B681B6803F022
:102B10000103002B75D0A34B9B6803F00C03042B1F
:102B20000CD0A04B9B6803F00C03082B12D19D4BDB
:102B30005B6803F48003B3F5800F0BD1994B1B68DE
:102B400003F40033002B5BD07B685B68002B57D10C
:102B500001233FE27B685B68B3F5803F06D1914B70
:102B60001B68904A43F4803313601DE07B685B6808
:102B7000B3F5A02F0CD18B4B1B688A4A43F48023FA
:102B80001360884B1B68874A43F4803313600BE063
:102B9000844B1B68834A23F480331360814B1B688A
:102BA000804A23F4802313607B685B68002B13D07A
:102BB000FEF7A0FC386108E0FEF79CFC02463B698A
:102BC000D31A642B01D9032304E2764B1B6803F468
:102BD0000033002BF0D014E0FEF78CFC386108E0E5
:102BE000FEF788FC02463B69D31A642B01D9032304
:102BF000F0E16C4B1B6803F40033002BF0D100E0D4
:102C000000BF7B681B6803F00203002B63D0654B99
:102C10009B6803F00C03002B0BD0624B9B6803F006
:102C20000C03082B1CD15F4B5B6803F48003002B63
:102C300016D15C4B1B6803F00203002B05D07B68A8
:102C4000DB68012B01D00123C4E1564B1B6823F044
:102C5000F8027B681B69DB00524913430B603AE0C2
:102C60007B68DB68002B20D04F4B01221A60FEF7F7
:102C700041FC386108E0FEF73DFC02463B69D31A8F
:102C8000022B01D90323A5E1464B1B6803F0020385
:102C9000002BF0D0434B1B6823F0F8027B681B69C4
:102CA000DB00404913430B6015E03F4B00221A60E4
:102CB000FEF720FC386108E0FEF71CFC02463B6989
:102CC000D31A022B01D9032384E1364B1B6803F08E
:102CD0000203002BF0D17B681B6803F00803002B74
:102CE00030D07B685B69002B16D0304B01221A6014
:102CF000FEF700FC386108E0FEF7FCFB02463B698A
:102D0000D31A022B01D9032364E1264B5B6F03F036
:102D10000203002BF0D015E0244B00221A60FEF7CE
:102D2000E9FB386108E0FEF7E5FB02463B69D31A90
:102D3000022B01D903234DE11A4B5B6F03F0020311
:102D4000002BF0D17B681B6803F00403002B00F01C
:102D5000A0800023FB75134B1B6C03F08053002BEA
:102D60000FD10023BB600F4B1B6C0E4A43F0805306
:102D700013640C4B1B6C03F08053BB60BB680123D6
:102D8000FB750B4B1B6803F48073002B21D1084BA0
:102D90001B68074A43F480731360FEF7ABFB38618E
:102DA00011E000BF0038024000004742800E474259
:102DB00000700040FEF79EFB02463B69D31A022BCF
:102DC00001D9032306E1854B1B6803F48073002BB4
:102DD000F0D07B689B68012B06D1814B1B6F804A2A
:102DE00043F0010313671CE07B689B68052B0CD143
:102DF0007B4B1B6F7A4A43F004031367784B1B6FBE
:102E0000774A43F0010313670BE0754B1B6F744A5D
:102E100023F001031367724B1B6F714A23F0040305
:102E200013677B689B68002B15D0FEF763FB386146
:102E30000AE0FEF75FFB02463B69D31A41F2883293
:102E4000934201D90323C5E0654B1B6F03F00203D6
:102E5000002BEED014E0FEF74DFB38610AE0FEF7E0
:102E600049FB02463B69D31A41F28832934201D9A9
:102E70000323AFE05A4B1B6F03F00203002BEED18C
:102E8000FB7D012B05D1564B1B6C554A23F080531B
:102E900013647B689B69002B00F09B80504B9B6800
:102EA00003F00C03082B5CD07B689B69022B41D19B
:102EB0004C4B00221A60FEF71DFB386108E0FEF75C
:102EC00019FB02463B69D31A022B01D9032381E087
:102ED000434B1B6803F00073002BF0D17B68DA6969
:102EE0007B681B6A1A437B685B6A9B011A437B6899
:102EF0009B6A5B08013B1B041A437B68DB6A1B0669
:102F0000374913434B60374B01221A60FEF7F2FA40
:102F1000386108E0FEF7EEFA02463B69D31A022B4D
:102F200001D9032356E02E4B1B6803F00073002BDE
:102F3000F0D04EE02B4B00221A60FEF7DBFA38612E
:102F400008E0FEF7D7FA02463B69D31A022B01D9F3
:102F500003233FE0224B1B6803F00073002BF0D1EA
:102F600037E07B689B69012B01D1012332E01C4BC8
:102F70005B68FB607B689B69012B28D0FB6803F4CE
:102F800080027B68DB699A4221D1FB6803F03F0233
:102F90007B681B6A9A421AD1FA6847F6C0731340DD
:102FA0007A68526A9201934211D1FB6803F440326D
:102FB0007B689B6A5B08013B1B049A4207D1FB6854
:102FC00003F070627B68DB6A1B069A4201D0012322
:102FD00000E0002318461837BD4680BD0070004051
:102FE000003802406000474280B584B000AF78608E
:102FF00039607B68002B01D10123CCE0684B1B6852
:1030000003F007033A689A420CD9654B3A68D2B28A
:103010001A70634B1B6803F007033A689A4201D0A9
:103020000123B8E07B681B6803F00203002B20D06B
:103030007B681B6803F00403002B05D0594B9B6889
:10304000584A43F4E05393607B681B6803F008031D
:10305000002B05D0534B9B68524A43F46043936066
:10306000504B9B6823F0F0027B689B684D491343EB
:103070008B607B681B6803F00103002B44D07B68E6
:103080005B68012B07D1474B1B6803F40033002B0F
:1030900019D101237FE07B685B68022B03D07B683A
:1030A0005B68032B07D13F4B1B6803F00073002BB9
:1030B00009D101236FE03B4B1B6803F00203002B97
:1030C00001D1012367E0374B9B6823F003027B6843
:1030D0005B68344913438B60FEF70CFAF8600AE032
:1030E000FEF708FA0246FB68D31A41F2883293428F
:1030F00001D903234FE02B4B9B6803F00C027B6844
:103100005B689B009A42EBD1254B1B6803F00703D9
:103110003A689A420CD2224B3A68D2B21A70204BCB
:103120001B6803F007033A689A4201D0012332E09A
:103130007B681B6803F00403002B08D0194B9B68C5
:1031400023F4E0527B68DB68164913438B607B688D
:103150001B6803F00803002B09D0124B9B6823F473
:1031600060427B681B69DB000E4913438B6000F0F3
:1031700021F802460B4B9B681B0903F00F030A4919
:10318000CB5C22FA03F3094A1360094B1B6818460B
:10319000FEF76CF9002318461037BD4680BD00BF0E
:1031A000003C024000380240F062000804000020A9
:1031B000080000202DE9B04384B000AF00237B60FD
:1031C0000023FB6000233B600023BB60674B9B68D0
:1031D00003F00C03082B0DD0082B00F2BD80002B50
:1031E00002D0042B03D0B7E0614BBB60B7E0614B6A
:1031F000BB60B4E05D4B5B6803F03F037B605B4BFF
:103200005B6803F48003002B4DD0584B5B689B092F
:103210001A464FF0000340F2FF104FF0000102EA9F
:10322000000803EA0109404649464FF000024FF00A
:1032300000034B0143EAD063420110461946B0EB4C
:10324000080061EB09014FF000024FF000038B0111
:1032500043EA90638201121A63EB01034FF000000E
:103260004FF00001D90041EA5271D00002460B46EE
:1032700012EB080243EB09034FF000004FF000018E
:10328000590241EAD251500202460B4610461946F5
:103290007B681A464FF00003FCF7EAFF02460B4634
:1032A0001346FB604AE0314B5B689B091A464FF0BE
:1032B000000340F2FF104FF0000102EA000403EAAD
:1032C0000105204629464FF000024FF000034B0154
:1032D00043EAD063420110461946001B61EB050129
:1032E0004FF000024FF000038B0143EA906382012C
:1032F000121A63EB01034FF000004FF00001D900F8
:1033000041EA5271D00002460B46121945EB030305
:103310004FF000004FF00001990241EA92519002F3
:1033200002460B46104619467B681A464FF00003CA
:10333000FCF79EFF02460B461346FB600B4B5B6897
:103340001B0C03F0030301335B003B60FA683B682E
:10335000B2FBF3F3BB6002E0054BBB6000BFBB6890
:1033600018461037BD46BDE8B08300BF00380240A4
:103370000024F40000127A0080B400AF034B1B68F5
:103380001846BD465DF8047B704700BF040000206E
:1033900080B500AFFFF7F0FF0246054B9B689B0A24
:1033A00003F007030349CB5C22FA03F3184680BD00
:1033B000003802400063000880B500AFFFF7DCFF73
:1033C0000246054B9B685B0B03F007030349CB5C8C
:1033D00022FA03F3184680BD00380240006300085B
:1033E00080B582B000AF78607B68002B01D10123EB
:1033F0007BE07B685B6A002B08D17B685B68B3F578
:10340000827F09D07B680022DA6105E07B680022B8
:103410001A617B6800225A617B6800229A627B688D
:1034200093F85130DBB2002B06D17B68002283F881
:1034300050207868FDF7ECFD7B68022283F851206C
:103440007B681B681A687B681B6822F040021A6060
:103450007B685B6803F482727B689B6803F40443B7
:103460001A437B68DB6803F400631A437B681B69BB
:1034700003F002031A437B685B6903F001031A43FC
:103480007B689B6903F400731A437B68DB6903F074
:1034900038031A437B681B6A03F0800342EA030186
:1034A0007B689B6A03F400527B681B680A431A60BE
:1034B0007B689B691B0C03F004017B685B6A03F06B
:1034C00010027B681B680A435A607B681B68DA69D4
:1034D0007B681B6822F40062DA617B6800225A650F
:1034E0007B68012283F85120002318460837BD4627
:1034F00080BD80B588B000AFF860B9603B6013460E
:10350000FB800023FB77FB6893F85030012B01D13F
:10351000022326E1FB68012283F85020FDF7EAFF31
:10352000B861FB88FB82FB6893F85130DBB2012B5A
:1035300002D00223FB770BE1BB68002B02D0FB8893
:10354000002B02D10123FB7702E1FB68032283F801
:103550005120FB6800225A65FB68BA681A63FB6851
:10356000FA889A86FB68FA88DA86FB6800229A63F2
:10357000FB6800229A87FB680022DA87FB6800223A
:103580005A64FB6800221A64FB689B68B3F5004F1D
:103590000FD1FB681B681A68FB681B6822F04002A9
:1035A0001A60FB681B681A68FB681B6842F480425B
:1035B0001A60FB681B681B6803F04003402B07D0B0
:1035C000FB681B681A68FB681B6842F040021A60BF
:1035D000FB68DB68B3F5006F4BD1FB685B68002BC1
:1035E00002D0FB8A012B3ED1FB681B6B1A88FB685B
:1035F0001B68DA60FB681B6B9A1CFB681A63FB682C
:10360000DB8E9BB2013B9AB2FB68DA862BE0FB684B
:103610001B689B6803F00203022B12D1FB681B6B33
:103620001A88FB681B68DA60FB681B6B9A1CFB68D6
:103630001A63FB68DB8E9BB2013B9AB2FB68DA86A9
:1036400011E0FDF757FF0246BB69D31A3A689A4268
:1036500003D83B68B3F1FF3F02D13B68002B02D196
:103660000323FB7774E0FB68DB8E9BB2002BCED18B
:103670004CE0FB685B68002B02D0FB8A012B40D139
:10368000FB681A6BFB681B680C3312781A70FB68B6
:103690001B6B5A1CFB681A63FB68DB8E9BB2013BF9
:1036A0009AB2FB68DA862CE0FB681B689B6803F023
:1036B0000203022B13D1FB681A6BFB681B680C33E7
:1036C00012781A70FB681B6B5A1CFB681A63FB6844
:1036D000DB8E9BB2013B9AB2FB68DA8611E0FDF704
:1036E00009FF0246BB69D31A3A689A4203D83B687D
:1036F000B3F1FF3F02D13B68002B02D10323FB77DC
:1037000026E0FB68DB8E9BB2002BCDD1BA6939680D
:10371000F86800F0E9FC0346002B02D0FB68202289
:103720005A65FB689B68002B0AD100233B61FB684C
:103730001B68DB683B61FB681B689B683B613B69FE
:10374000FB685B6D002B02D00123FB7700E000BF1C
:10375000FB68012283F85120FB68002283F8502087
:10376000FB7F18462037BD4680BD80B588B002AFCC
:10377000F860B9603B601346FB800023FB75FB6873
:103780005B68B3F5827F12D1FB689B68002B0ED17A
:10379000FB68042283F85120FA883B6800931346A3
:1037A000BA68B968F86800F0F1F80346EAE0FB6827
:1037B00093F85030012B01D10223E3E0FB68012292
:1037C00083F85020FDF796FE3861FB6893F851307E
:1037D000DBB2012B02D00223FB75CAE0BB68002BD1
:1037E00002D0FB88002B02D10123FB75C1E0FB68EE
:1037F000042283F85120FB6800225A65FB68BA68EE
:103800009A63FB68FA889A87FB68FA88DA87FB680C
:1038100000221A63FB6800229A86FB680022DA867F
:10382000FB6800221A64FB6800225A64FB689B68EC
:10383000B3F5004F0FD1FB681B681A68FB681B6863
:1038400022F040021A60FB681B681A68FB681B685C
:1038500022F480421A60FB681B681B6803F0400377
:10386000402B07D0FB681B681A68FB681B6842F096
:1038700040021A60FB68DB68002B62D12EE0FB6817
:103880001B689B6803F00103012B15D1FB681B68C3
:1038900003F10C02FB689B6B1278D2B21A70FB68C2
:1038A0009B6B5A1CFB689A63FB68DB8F9BB2013BE6
:1038B0009AB2FB68DA8711E0FDF71CFE02463B690D
:1038C000D31A3A689A4203D83B68B3F1FF3F02D15A
:1038D0003B68002B02D10323FB754AE0FB68DB8FBA
:1038E0009BB2002BCBD131E0FB681B689B6803F0D7
:1038F0000103012B13D1FB681B68DA68FB689B6B23
:1039000092B21A80FB689B6B9A1CFB689A63FB68F7
:10391000DB8F9BB2013B9AB2FB68DA8711E0FDF7BF
:10392000E9FD02463B69D31A3A689A4203D83B68DC
:10393000B3F1FF3F02D13B68002B02D10323FB759B
:1039400017E0FB68DB8F9BB2002BCDD13A69396859
:10395000F86800F063FB0346002B02D0FB682022CE
:103960005A65FB685B6D002B02D00123FB7500E0FC
:1039700000BFFB68012283F85120FB68002283F816
:103980005020FB7D18461837BD4680BD80B58CB0F1
:1039900000AFF860B9607A607B800123FB6200238E
:1039A00087F82B30FB6893F85030012B01D10223AC
:1039B0008AE1FB68012283F85020FDF79BFD7862C5
:1039C000FB6893F8513087F82330FB685B68FB6134
:1039D0007B887B8397F82330012B0FD0FB69B3F5ED
:1039E000827F07D1FB689B68002B03D197F82330B7
:1039F000042B03D0022387F82B305BE1BB68002B3C
:103A000005D07B68002B02D07B88002B03D10123DB
:103A100087F82B304EE1FB6893F85130DBB2042B72
:103A200003D0FB68052283F85120FB6800225A6509
:103A3000FB687A689A63FB687A88DA87FB687A8819
:103A40009A87FB68BA681A63FB687A88DA86FB682B
:103A50007A889A86FB6800221A64FB6800225A64FE
:103A6000FB681B681B6803F04003402B07D0FB6812
:103A70001B681A68FB681B6842F040021A60FB680A
:103A8000DB68B3F5006F78D1FB685B68002B02D070
:103A90007B8B012B66D1FB681B6B1A88FB681B684C
:103AA000DA60FB681B6B9A1CFB681A63FB68DB8E91
:103AB0009BB2013B9AB2FB68DA8653E0FB681B6855
:103AC0009B6803F00203022B1BD1FB68DB8E9BB2C9
:103AD000002B16D0FB6A012B13D1FB681B6B1A88D5
:103AE000FB681B68DA60FB681B6B9A1CFB681A6337
:103AF000FB68DB8E9BB2013B9AB2FB68DA8600233F
:103B0000FB62FB681B689B6803F00103012B19D162
:103B1000FB68DB8F9BB2002B14D0FB681B68DA6854
:103B2000FB689B6B92B21A80FB689B6B9A1CFB68CC
:103B30009A63FB68DB8F9BB2013B9AB2FB68DA8722
:103B40000123FB62FDF7D6FC02467B6AD31ABA6BEF
:103B50009A4207D8BB6BB3F1FF3F03D0032387F82A
:103B60002B30A7E0FB68DB8E9BB2002BA6D1FB6855
:103B7000DB8F9BB2002BA1D17CE0FB685B68002B44
:103B800002D07B8B012B6BD1FB681A6BFB681B6827
:103B90000C3312781A70FB681B6B5A1CFB681A6393
:103BA000FB68DB8E9BB2013B9AB2FB68DA8657E07A
:103BB000FB681B689B6803F00203022B1CD1FB68A7
:103BC000DB8E9BB2002B17D0FB6A012B14D1FB6854
:103BD0001A6BFB681B680C3312781A70FB681B6B3E
:103BE0005A1CFB681A63FB68DB8E9BB2013B9AB2DE
:103BF000FB68DA860023FB62FB681B689B6803F0A6
:103C00000103012B19D1FB68DB8F9BB2002B14D071
:103C1000FB681B68DA68FB689B6BD2B21A70FB68A2
:103C20009B6B5A1CFB689A63FB68DB8F9BB2013B62
:103C30009AB2FB68DA870123FB62FDF75BFC024660
:103C40007B6AD31ABA6B9A4203D8BB6BB3F1FF3FBE
:103C500002D1BB6B002B03D1032387F82B3029E063
:103C6000FB68DB8E9BB2002BA2D1FB68DB8F9BB283
:103C7000002B9DD17A6AB96BF86800F035FA0346DB
:103C8000002B06D0012387F82B30FB6820225A65D1
:103C900010E0FB689B68002B0BD100237B61FB6865
:103CA0001B68DB687B61FB681B689B687B617B69C9
:103CB00000E000BFFB68012283F85120FB6800226E
:103CC00083F8502097F82B3018463037BD4680BD1A
:103CD00080B588B000AF78607B681B685B68FB616B
:103CE0007B681B689B68BB61BB699B0903F0010390
:103CF000002B0FD1BB6903F00103002B0AD0FB6935
:103D00009B0903F00103002B04D07B681B6C7868CF
:103D10009847D7E0BB695B0803F00103002B0AD08A
:103D2000FB69DB0903F00103002B04D07B685B6CAB
:103D300078689847C6E0BB695B0903F00103002B74
:103D40000CD1BB699B0903F00103002B06D1BB69B1
:103D50001B0A03F00103002B00F0B480FB695B0930
:103D600003F00103002B00F0AD80BB699B0903F059
:103D70000103002B23D07B6893F85130DBB2032B77
:103D800011D07B685B6D43F004027B685A650023A9
:103D90007B617B681B68DB687B617B681B689B6859
:103DA0007B617B690BE000233B617B681B68DB6800
:103DB0003B617B681B689B683B613B6982E0BB6938
:103DC0005B0903F00103002B14D07B685B6D43F0AB
:103DD00001027B685A650023FB607B681B689B6857
:103DE000FB607B681B681A687B681B6822F04002D6
:103DF0001A60FB68BB691B0A03F00103002B0CD09F
:103E00007B685B6D43F008027B685A650023BB60EA
:103E10007B681B689B68BB60BB687B685B6D002B25
:103E20004FD07B681B685A687B681B6822F0E002F1
:103E30005A607B68012283F85120FB6903F002037A
:103E4000002B04D1FB6903F00103002B34D07B6805
:103E50001B685A687B681B6822F003025A607B6803
:103E6000DB6C002B11D07B68DB6C184A1A657B6811
:103E7000DB6C1846FEF7E4F90346002B05D07B689F
:103E80005B6D43F040027B685A657B689B6C002B3E
:103E900016D07B689B6C0D4A1A657B689B6C184634
:103EA000FEF7CEF90346002B0AD07B685B6D43F02A
:103EB00040027B685A6503E0786800F009F800E08A
:103EC00000BF00BF2037BD4680BD00BFE53E0008F3
:103ED00080B483B000AF786000BF0C37BD465DF89A
:103EE000047B704780B584B000AF78607B689B6BC3
:103EF000FB60FB680022DA87FB680022DA86F8683C
:103F0000FFF7E6FF00BF1037BD4680BD80B588B023
:103F100000AFF860B9603B601346FB71FDF7EAFA49
:103F20000246BB6A9B1A3A681344FB61FDF7E2FA4A
:103F3000B861394B1B685B011B0DFA6902FB03F387
:103F40007B6154E03B68B3F1FF3F50D0FDF7D2FAFC
:103F50000246BB69D31AFA699A4202D9FB69002B5F
:103F60003DD1FB681B685A68FB681B6822F0E002C1
:103F70005A60FB685B68B3F5827F11D1FB689B6870
:103F8000B3F5004F04D0FB689B68B3F5806F07D191
:103F9000FB681B681A68FB681B6822F040021A6005
:103FA000FB689B6AB3F5005F0FD1FB681B681A685A
:103FB000FB681B6822F400521A60FB681B681A68D1
:103FC000FB681B6842F400521A60FB68012283F808
:103FD0005120FB68002283F85020032317E07B69FF
:103FE000002B01D10023FB617B69013B7B61FB68F6
:103FF0001B689A68BB681340BA689A420CBF0123D9
:104000000023DBB21A46FB799A429BD10023184663
:104010002037BD4680BD00BF0400002080B586B0BB
:1040200002AFF860B9607A60FB685B68B3F5827FC5
:1040300011D1FB689B68B3F5004F04D0FB689B6807
:10404000B3F5806F07D1FB681B681A68FB681B68B3
:1040500022F040021A60FB685B68B3F5827F2AD1C8
:10406000FB689B68B3F5806F12D07B680093BB68D8
:1040700000228021F868FFF749FF0346002B2DD06E
:10408000FB685B6D43F02002FB685A65032326E062
:104090007B680093BB6800220121F868FFF736FFB8
:1040A0000346002B1AD0FB685B6D43F02002FB68CF
:1040B0005A65032313E07B680093BB68002201214B
:1040C000F868FFF723FF0346002B07D0FB685B6D02
:1040D00043F02002FB685A65032300E000231846E2
:1040E0001037BD4680BD000080B588B002AFF860D3
:1040F000B9607A601B4B1B681B4AA2FB03235B0D54
:104100004FF47A7202FB03F37B61FB685B68B3F5E3
:10411000827F12D17B680093BB6800228021F868FF
:10412000FFF7F4FE0346002B16D0FB685B6D43F0EF
:104130002002FB685A6503230FE07B69002B0AD03D
:104140007B69013B7B61FB681B689B6803F0800314
:10415000802BF2D000E000BF002318461837BD4680
:1041600080BD00BF04000020819F5E1680B582B034
:1041700000AF78607B68002B01D1012341E07B68B0
:1041800093F83D30DBB2002B06D17B68002283F828
:104190003C207868FCF78CFF7B68022283F83D2086
:1041A0007B681A687B6804331946104600F096FA5B
:1041B0007B68012283F846207B68012283F83E2039
:1041C0007B68012283F83F207B68012283F840202E
:1041D0007B68012283F841207B68012283F842201A
:1041E0007B68012283F843207B68012283F8442006
:1041F0007B68012283F845207B68012283F83D20FB
:10420000002318460837BD4680BD000080B485B045
:1042100000AF78607B6893F83D30DBB2012B01D0B2
:1042200001234EE07B68022283F83D207B681B68F7
:10423000DA687B681B6842F00102DA607B681B6801
:10424000234A934222D07B681B68B3F1804F1DD074
:104250007B681B681F4A934218D07B681B681E4A04
:10426000934213D07B681B681C4A93420ED07B6834
:104270001B681B4A934209D07B681B68194A93420A
:1042800004D07B681B68184A934211D17B681B6875
:104290009B6803F00703FB60FB68062B10D07B686C
:1042A0001B681A687B681B6842F001021A6007E00D
:1042B0007B681B681A687B681B6842F001021A6001
:1042C000002318461437BD465DF8047B704700BFD5
:1042D000000001400004004000080040000C0040C5
:1042E00000040140004001400018004080B582B049
:1042F00000AF78607B681B681B6903F00203022B28
:1043000022D17B681B68DB6803F00203022B1BD100
:104310007B681B686FF002021A617B6801221A77C2
:104320007B681B689B6903F00303002B03D078684C
:1043300000F0B5F905E0786800F0A7F9786800F0BA
:10434000B8F97B6800221A777B681B681B6903F049
:104350000403042B22D17B681B68DB6803F0040391
:10436000042B1BD17B681B686FF004021A617B6809
:1043700002221A777B681B689B6903F44073002B49
:1043800003D0786800F08BF905E0786800F07DF9DB
:10439000786800F08EF97B6800221A777B681B68CA
:1043A0001B6903F00803082B22D17B681B68DB68BC
:1043B00003F00803082B1BD17B681B686FF0080211
:1043C0001A617B6804221A777B681B68DB6903F03B
:1043D0000303002B03D0786800F061F905E07868EA
:1043E00000F053F9786800F064F97B6800221A77CE
:1043F0007B681B681B6903F01003102B22D17B68BC
:104400001B68DB6803F01003102B1BD17B681B6853
:104410006FF010021A617B6808221A777B681B68AC
:10442000DB6903F44073002B03D0786800F037F9A0
:1044300005E0786800F029F9786800F03AF97B68BF
:1044400000221A777B681B681B6903F00103012BAC
:104450000ED17B681B68DB6803F00103012B07D1D9
:104460007B681B686FF001021A617868FCF7FAFC40
:104470007B681B681B6903F08003802B0ED17B686F
:104480001B68DB6803F08003802B07D17B681B6807
:104490006FF080021A61786800F0E0FA7B681B68B0
:1044A0001B6903F04003402B0ED17B681B68DB685F
:1044B00003F04003402B07D17B681B686FF040027C
:1044C0001A61786800F0FFF87B681B681B6903F0CD
:1044D0002003202B0ED17B681B68DB6803F02003D0
:1044E000202B07D17B681B686FF020021A61786867
:1044F00000F0AAFA00BF0837BD4680BD80B584B081
:1045000000AF786039600023FB737B6893F83C3020
:10451000012B01D10223B4E07B68012283F83C2007
:104520007B68022283F83D207B681B689B68BB6028
:10453000BB6823F07703BB60BB6823F47F43BB6099
:104540007B681B68BA689A603B681B68B3F5005FBC
:104550003ED0B3F5005F00F28780B3F5805F00F0D6
:104560008680B3F5805F7FD8702B1AD0702B7BD8F4
:10457000602B50D0602B77D8502B3CD0502B73D869
:10458000402B58D0402B6FD8302B64D0302B6BD8B9
:10459000202B60D0202B67D8002B5CD0102B5AD05A
:1045A00062E07B6818683B6899683B685A683B68BA
:1045B000DB6800F0ADF97B681B689B68BB60BB687B
:1045C00043F07703BB607B681B68BA689A604FE072
:1045D0007B6818683B6899683B685A683B68DB6889
:1045E00000F096F97B681B689A687B681B6842F448
:1045F00080429A603CE07B6818683B6859683B6879
:10460000DB681A4600F00AF97B681B6850211846DF
:1046100000F063F92CE07B6818683B6859683B68D8
:10462000DB681A4600F029F97B681B686021184690
:1046300000F053F91CE07B6818683B6859683B68D8
:10464000DB681A4600F0EAF87B681B6840211846D0
:1046500000F043F90CE07B681A683B681B68194658
:10466000104600F03AF903E00123FB7300E000BFBD
:104670007B68012283F83D207B68002283F83C2080
:10468000FB7B18461037BD4680BD80B483B000AFB9
:10469000786000BF0C37BD465DF8047B704780B47E
:1046A00083B000AF786000BF0C37BD465DF8047B77
:1046B000704780B483B000AF786000BF0C37BD4650
:1046C0005DF8047B704780B483B000AF786000BFB2
:1046D0000C37BD465DF8047B7047000080B485B0A0
:1046E00000AF786039607B681B68FB607B68404A7C
:1046F000934213D07B68B3F1804F0FD07B683D4A63
:1047000093420BD07B683C4A934207D07B683B4A7C
:10471000934203D07B683A4A934208D1FB6823F066
:104720007003FB603B685B68FA681343FB607B685F
:104730002F4A93422BD07B68B3F1804F27D07B6800
:104740002C4A934223D07B682B4A93421FD07B682C
:104750002A4A93421BD07B68294A934217D07B6830
:10476000284A934213D07B68274A93420FD07B6834
:10477000264A93420BD07B68254A934207D07B6838
:10478000244A934203D07B68234A934208D1FB68B2
:1047900023F44073FB603B68DB68FA681343FB60FB
:1047A000FB6823F080023B685B691343FB607B6816
:1047B000FA681A603B689A687B68DA623B681A6834
:1047C0007B689A627B680A4A934203D07B680C4AF2
:1047D000934203D13B681A697B681A637B680122A4
:1047E0005A6100BF1437BD465DF8047B704700BFB7
:1047F000000001400004004000080040000C0040A0
:1048000000040140004001400044014000480140D4
:1048100000180040001C00400020004080B487B019
:1048200000AFF860B9607A60FB681B6A7B61FB6867
:104830001B6A23F00102FB681A62FB689B693B61FB
:104840003B6923F0F0033B617B681B013A6913432A
:104850003B617B6923F00A037B617A69BB68134380
:104860007B61FB683A699A61FB687A691A6200BFEA
:104870001C37BD465DF8047B704780B487B000AF3D
:10488000F860B9607A60FB681B6A23F01002FB686D
:104890001A62FB689B697B61FB681B6A3B617B69F1
:1048A00023F470437B617B681B037A6913437B614C
:1048B0003B6923F0A0033B61BB681B013A691343CA
:1048C0003B61FB687A699A61FB683A691A6200BFCA
:1048D0001C37BD465DF8047B704780B485B000AFDF
:1048E000786039607B689B68FB60FB6823F070032D
:1048F000FB603A68FB68134343F00703FB607B6887
:10490000FA689A6000BF1437BD465DF8047B7047B3
:1049100080B487B000AFF860B9607A603B60FB6834
:104920009B687B617B6923F47F437B613B681A0250
:104930007B681A43BB6813437A6913437B61FB6846
:104940007A699A6000BF1C37BD465DF8047B7047EA
:1049500080B485B000AF786039607B6893F83C30F4
:10496000012B01D102235AE07B68012283F83C200D
:104970007B68022283F83D207B681B685B68FB60D4
:104980007B681B689B68BB60FB6823F07003FB605F
:104990003B681B68FA681343FB607B681B68FA6816
:1049A0005A607B681B68214A934222D07B681B684F
:1049B000B3F1804F1DD07B681B681D4A934218D00D
:1049C0007B681B681B4A934213D07B681B681A4A9A
:1049D00093420ED07B681B68184A934209D07B68CB
:1049E0001B68174A934204D07B681B68154A9342A0
:1049F0000CD1BB6823F08003BB603B685B68BA687E
:104A00001343BB607B681B68BA689A607B680122AD
:104A100083F83D207B68002283F83C200023184661
:104A20001437BD465DF8047B704700BF00000140AD
:104A30000004004000080040000C00400004014059
:104A4000004001400018004080B483B000AF78609F
:104A500000BF0C37BD465DF8047B704780B483B05F
:104A600000AF786000BF0C37BD465DF8047B70472F
:104A700080B582B000AF78607B68002B01D1012344
:104A80003FE07B6893F83D30DBB2002B06D17B68BA
:104A9000002283F83C207868FCF730FB7B682422F6
:104AA00083F83D207B681B68DA687B681B6822F40A
:104AB0000052DA60786800F0DBFD7B681B681A69D9
:104AC0007B681B6822F490421A617B681B685A69F4
:104AD0007B681B6822F02A025A617B681B68DA68CF
:104AE0007B681B6842F40052DA607B6800221A641B
:104AF0007B68202283F83D207B68202283F83E20BB
:104B0000002318460837BD4680BD80B58AB002AF85
:104B1000F860B9603B601346FB8000237B61FB6853
:104B200093F83D30DBB2202B7CD1BB68002B02D048
:104B3000FB88002B01D1012375E0FB6893F83C3022
:104B4000012B01D102236EE0FB68012283F83C2097
:104B5000FB6800221A64FB68212283F83D20FCF7E1
:104B6000C9FC7861FB68FA889A84FB68FA88DA8461
:104B7000FB689B68B3F5805F08D1FB681B69002B5D
:104B800004D10023FB61BB68BB6103E0BB68FB6130
:104B90000023BB61FB68002283F83C202AE03B68CD
:104BA00000937B6900228021F86800F01FFB034618
:104BB000002B01D0032336E0FB69002B0BD1BB692E
:104BC0001B881A46FB681B68C2F308025A60BB695F
:104BD0000233BB6107E0FB691A78FB681B685A6007
:104BE000FB690133FB61FB68DB8C9BB2013B9AB232
:104BF000FB68DA84FB68DB8C9BB2002BCFD13B686F
:104C000000937B6900224021F86800F0EFFA034628
:104C1000002B01D0032306E0FB68202283F83D200F
:104C2000002300E0022318462037BD4680BD80B532
:104C300084B000AFF860B9601346FB80FB6893F85E
:104C40003E30DBB2202B1DD1BB68002B02D0FB888D
:104C5000002B01D1012316E0FB6893F83C30012BB7
:104C600001D102230FE0FB68012283F83C20FB689E
:104C700000221A63FB881A46B968F86800F024FB22
:104C8000034600E0022318461037BD4680BD0000F1
:104C900080B5BAB000AF78607B681B681B68C7F846
:104CA000E4307B681B68DB68C7F8E0307B681B6812
:104CB0005B69C7F8DC300023C7F8D8300023C7F899
:104CC000D430D7F8E43003F00F03C7F8D830D7F862
:104CD000D830002B0FD1D7F8E43003F02003002B9D
:104CE00009D0D7F8E03003F02003002B03D0786818
:104CF00000F003FC56E2D7F8D830002B00F0DE803D
:104D0000D7F8DC3003F00103002B06D1D7F8E030F0
:104D100003F49073002B00F0D180D7F8E43003F057
:104D20000103002B0BD0D7F8E03003F48073002B85
:104D300005D07B681B6C43F001027B681A64D7F8CE
:104D4000E43003F00403002B0BD0D7F8DC3003F081
:104D50000103002B05D07B681B6C43F002027B68CB
:104D60001A64D7F8E43003F00203002B0BD0D7F815
:104D7000DC3003F00103002B05D07B681B6C43F093
:104D800004027B681A64D7F8E43003F00803002BB0
:104D900011D0D7F8E03003F02003002B05D1D7F86D
:104DA000DC3003F00103002B05D07B681B6C43F063
:104DB00008027B681A647B681B6C002B00F0ED8195
:104DC000D7F8E43003F02003002B08D0D7F8E03008
:104DD00003F02003002B02D0786800F08EFB7B6884
:104DE0001B685B6903F04003402B0CBF01230023C9
:104DF000DBB2C7F8D4307B681B6C03F00803002BD0
:104E000003D1D7F8D430002B4FD0786800F096FA51
:104E10007B681B685B6903F04003402B41D17B68D2
:104E20001B681433C7F89C30D7F89C3053E8003F18
:104E3000C7F89830D7F8983023F04003C7F8D0303F
:104E40007B681B681433D7F8D020C7F8A820C7F8B0
:104E5000A430D7F8A410D7F8A82041E80023C7F859
:104E6000A030D7F8A030002BD9D17B689B6B002BEA
:104E700013D07B689B6B7D4A1A657B689B6B1846D9
:104E8000FDF7DEF90346002B16D07B689B6B1B6D8C
:104E90007A68926B104698470EE0786800F090F9B7
:104EA0000AE0786800F08CF906E0786800F088F98C
:104EB0007B6800221A6470E100BF6EE17B681B6BA7
:104EC000012B40F04A81D7F8E43003F01003002BA7
:104ED00000F04381D7F8E03003F01003002B00F01E
:104EE0003C810023BB607B681B681B68BB607B68E0
:104EF0001B685B68BB60BB687B681B685B6903F011
:104F00004003402B40F0B4807B689B6B1B685B6860
:104F1000A7F8BE30B7F8BE30002B00F040817B68A8
:104F20009B8DB7F8BE209A4280F039817B68B7F834
:104F3000BE20DA857B689B6BDB69B3F5807F00F070
:104F400088807B681B680C33C7F88830D7F88830B6
:104F500053E8003FC7F88430D7F8843023F48073D7
:104F6000C7F8B8307B681B680C33D7F8B820C7F88F
:104F70009420C7F89030D7F89010D7F8942041E8E3
:104F80000023C7F88C30D7F88C30002BD9D17B6840
:104F90001B6814337B677B6F53E8003F3B673B6FB5
:104FA00023F00103C7F8B4307B681B681433D7F8CB
:104FB000B420C7F88020FB67F96FD7F8802041E85C
:104FC0000023BB67BB6F002BE1D17B681B681433E8
:104FD0003B663B6E53E8003FFB65FB6D23F04003EF
:104FE000C7F8B0307B681B681433D7F8B020FA6676
:104FF000BB66B96EFA6E41E800237B667B6E002BC0
:10500000E3D17B68202283F83E207B6800221A636C
:105010007B681B680C33FB64FB6C53E8003FBB648C
:10502000BB6C23F01003C7F8AC307B681B680C33F3
:10503000D7F8AC20BA657B65796DBA6D41E800237D
:105040003B653B6D002BE3D17B689B6B1846FDF7FE
:1050500087F87B689A8D7B68DB8D9BB2D31A9BB2F5
:105060001946786800F0B6F899E000BF03540008CC
:105070007B689A8D7B68DB8D9BB2D31AA7F8CE3004
:105080007B68DB8D9BB2002B00F08B80B7F8CE30B5
:10509000002B00F086807B681B680C33BB63BB6B06
:1050A00053E8003F7B637B6B23F49073C7F8C830F1
:1050B0007B681B680C33D7F8C8207A643B64396C72
:1050C0007A6C41E80023FB63FB6B002BE3D17B6828
:1050D0001B6814337B627B6A53E8003F3B623B6A88
:1050E00023F00103C7F8C4307B681B681433D7F87A
:1050F000C4203A63FB62F96A3A6B41E80023BB6261
:10510000BB6A002BE3D17B68202283F83E207B68BA
:1051100000221A637B681B680C333B613B6953E8D0
:10512000003FFB60FB6823F01003C7F8C0307B68CA
:105130001B680C33D7F8C020FA61BB61B969FA6902
:1051400041E800237B617B69002BE3D1B7F8CE30C7
:105150001946786800F03EF823E0D7F8E43003F011
:105160008003002B09D0D7F8E03003F08003002B38
:1051700003D0786800F059F914E0D7F8E43003F070
:105180004003002B0ED0D7F8E03003F04003002B93
:1051900008D0786800F099F904E000BF02E000BF91
:1051A00000E000BFE837BD4680BD00BF80B483B0DB
:1051B00000AF786000BF0C37BD465DF8047B7047D8
:1051C00080B483B000AF786000BF0C37BD465DF897
:1051D000047B704780B483B000AF78600B467B805F
:1051E00000BF0C37BD465DF8047B704780B590B0BA
:1051F00000AFF860B9603B601346FB7150E0BB6CD8
:10520000B3F1FF3F4CD0BB6C002B07D0FCF772F919
:1052100002463B68D31ABA6C9A4241D2FB681B68BB
:105220000C33BB62BB6A53E8003F7B627B6A23F4AA
:10523000D073FB63FB681B680C33FA6B7A633B63C8
:10524000396B7A6B41E80023FB62FB6A002BE5D1E6
:10525000FB681B6814337B617B6953E8003F3B614B
:105260003B6923F00103BB63FB681B681433BA6B13
:105270003A62FB61F9693A6A41E80023BB61BB69A4
:10528000002BE5D1FB68202283F83D20FB6820221B
:1052900083F83E20FB68002283F83C2003230FE0C4
:1052A000FB681B681A68BB681340BA689A420CBF57
:1052B00001230023DBB21A46FB799A429FD00023D8
:1052C00018464037BD4680BD80B485B000AFF86059
:1052D000B9601346FB80FB68BA689A62FB68FA887B
:1052E0009A85FB68FA88DA85FB6800221A64FB68F5
:1052F000222283F83E20FB68002283F83C20FB68D2
:105300001B68DA68FB681B6842F48072DA60FB682D
:105310001B685A69FB681B6842F001025A61FB680E
:105320001B68DA68FB681B6842F02002DA60002321
:1053300018461437BD465DF8047B704780B495B0BD
:1053400000AF78607B681B680C337B637B6B53E832
:10535000003F3B633B6B23F49073FB647B681B68EB
:105360000C33FA6C3A64FB63F96B3A6C41E8002346
:10537000BB63BB6B002BE5D17B681B6814333B62BE
:105380003B6A53E8003FFB61FB6923F00103BB6408
:105390007B681B681433BA6CFA62BB62B96AFA6A3A
:1053A00041E800237B627B6A002BE5D17B681B6BA5
:1053B000012B19D17B681B680C33FB60FB6853E839
:1053C000003FBB60BB6823F010037B647B681B68F5
:1053D0000C337A6CBA617B617969BA6941E8002360
:1053E0003B613B69002BE5D17B68202283F83E209E
:1053F0007B6800221A6300BF5437BD465DF8047B0A
:10540000704780B584B000AF78607B689B6BFB60B1
:10541000FB680022DA85FB680022DA84F868FFF76F
:10542000CFFE00BF1037BD4680BD80B485B000AF51
:1054300078607B6893F83D30DBB2212B3ED17B68EE
:105440009B68B3F5805F14D17B681B69002B10D17A
:105450007B681B6AFB60FB681B881A467B681B68BD
:10546000C2F308025A607B681B6A9A1C7B681A6246
:1054700008E07B681B6A591C7A6811621A787B689D
:105480001B685A607B68DB8C9BB2013B9BB27A68DD
:105490001946D184002B0FD17B681B68DA687B68C2
:1054A0001B6822F08002DA607B681B68DA687B6820
:1054B0001B6842F04002DA60002300E00223184635
:1054C0001437BD465DF8047B704780B582B000AFED
:1054D00078607B681B68DA687B681B6822F0400292
:1054E000DA607B68202283F83D207868FFF75EFE53
:1054F000002318460837BD4680BD80B58CB000AF8C
:1055000078607B6893F83E30DBB2222B40F0AB80B2
:105510007B689B68B3F5805F17D17B681B69002BA4
:1055200013D10023FB627B689B6ABB627B681B68AC
:105530005B689BB2C3F308039AB2BB6A1A807B68AC
:105540009B6A9A1C7B689A6226E07B689B6AFB6276
:105550000023BB627B689B68B3F5805F07D07B68E4
:105560009B68002B0AD17B681B69002B06D17B68E6
:105570001B685B68DAB2FB6A1A7008E07B681B681C
:105580005B68DBB203F07F03DAB2FB6A1A707B68F8
:105590009B6A5A1C7B689A627B68DB8D9BB2013BDD
:1055A0009BB27A681946D185002B5AD17B681B685B
:1055B000DA687B681B6822F02002DA607B681B686F
:1055C000DA687B681B6822F48072DA607B681B688B
:1055D0005A697B681B6822F001025A617B682022AD
:1055E00083F83E207B681B6B012B35D17B68002242
:1055F0001A637B681B680C337B617B6953E8003F4F
:105600003B613B6923F010037B627B681B680C33B2
:105610007A6A3A62FB61F9693A6A41E80023BB6140
:10562000BB69002BE5D17B681B681B6803F0100386
:10563000102B0AD10023FB607B681B681B68FB6092
:105640007B681B685B68FB60FB687B689B8D194609
:105650007868FFF7BFFD02E07868FBF715FC0023D0
:1056600002E0002300E0022318463037BD4680BD2B
:105670002DE9F04F9FB000AFF866FB6E1B681B6909
:1056800023F44050FB6ED968FB6E1A6840EA0103B0
:105690001361FB6E9A68FB6E1B691A43FB6E5B69B4
:1056A0001A43FB6EDB6913433B67FB6E1B68DB68C9
:1056B00023F4164121F00C01FB6E1A683B6F0B437B
:1056C000D360FB6E1B685B6923F44070FB6E9969C5
:1056D000FB6E1A6840EA01035361FB6E1A68C54B02
:1056E0009A4204D0FB6E1A68C34B9A4203D1FDF76D
:1056F00063FE786702E0FDF74BFE7867FB6EDB69BF
:10570000B3F5004F40F0B6807B6F1C464FF00005AC
:1057100022462B46911839645B417B64D7E91023FC
:10572000121945EB03034FF000004FF00001D900C0
:1057300041EA5271D00002460B46111939666B419D
:105740007B66FB6E5B681A464FF000039118B963E5
:105750005B41FB63D7E90E23D7E91801FAF788FD0F
:1057600002460B46A54BA3FB02235B091E017B6F80
:105770001C464FF0000522462B46911839635B41C9
:105780007B63D7E90C23121945EB03034FF00000AC
:105790004FF00001D90041EA5271D00002460B4699
:1057A0001119B9656B41FB65FB6E5B681A464FF0DA
:1057B00000039118B9625B41FB62D7E90A23D7E97C
:1057C0001601FAF755FD02460B468C4BA3FB02135C
:1057D0005B09642101FB03F3D31ADB003233874AF0
:1057E000A2FB03235B095B0003F4F8731E447B6F89
:1057F00018464FF0000102460B4694183C625B418C
:105800007B62D7E90823121841EB03034FF0000431
:105810004FF00005DD0045EA5275D40022462B46C4
:1058200014183C654B417B65FB6E5B681A464FF074
:1058300000039118B9615B41FB61D7E90623D7E901
:105840001401FAF715FD02460B466C4BA3FB02133D
:105850005B09642101FB03F3D31ADB003233674A8F
:10586000A2FB03235B0903F00702FB6E1B683244B3
:105870009A60B9E07B6F1C464FF0000522462B462C
:10588000911839615B417B61D7E90423121945EB1B
:1058900003034FF000004FF00001D90041EA5271BC
:1058A000D00002460B4612EB040843EB0509FB6EE1
:1058B0005B6818464FF000014FF000024FF0000304
:1058C0008B0043EA9073820040464946FAF7D0FCC9
:1058D00002460B46494BA3FB02235B091E017B6F6B
:1058E00018464FF0000102460B469418BC605B411D
:1058F000FB60D7E90223121841EB03034FF00004C9
:105900004FF00005DD0045EA5275D40022462B46D3
:105910001418BC644B41FB64FB6E5B6818464FF087
:1059200000014FF000024FF000038B0043EA907338
:105930008200D7E91201FAF79BFC02460B462F4B77
:10594000A3FB02135B09642101FB03F3D31A1B01C0
:1059500032332A4AA2FB03235B0903F0F0031E44FF
:105960007B6F18464FF0000102460B4694183C60CE
:105970005B417B60D7E90023121841EB03034FF032
:1059800000044FF00005DD0045EA5275D4002246C0
:105990002B4612EB000A43EB010BFB6E5B681846CB
:1059A0004FF000014FF000024FF000038B0043EA7C
:1059B0009073820050465946FAF75AFC02460B464D
:1059C0000E4BA3FB02135B09642101FB03F3D31A03
:1059D0001B013233094AA2FB03235B0903F00F02C8
:1059E000FB6E1B6832449A6000BF7C37BD46BDE841
:1059F000F08F00BF00100140001401401F85EB51E3
:105A0000014B1868704700BF1000002070B50D4DA5
:105A10000D4C641BA4100026A64209D10B4D0C4C62
:105A200000F04EFC641BA4100026A64205D170BDF8
:105A300055F8043B98470136EEE755F8043B984784
:105A40000136F2E74C6300084C6300084C63000821
:105A50005063000802440346934200D1704703F8A4
:105A6000011BF9E70EB400B59CB01DAB0290069087
:105A70006FF00041094807910491094953F8042B3C
:105A800005910068019302A900F068F8029B0022CA
:105A90001A701CB05DF804EB03B0704710000020D2
:105AA0000802FFFF2DE9F0478E689E4282460C46B1
:105AB00090461F4638D88A8912F4906F32D02568F4
:105AC0000969A5EB0109656905EB450505EBD57588
:105AD00001334B446D109D4238BF1D46530531D5EF
